{"contracts/Catalog.sol":{"Catalog":{"abi":[{"anonymous":false,"inputs":[{"indexed":false,"internalType":"address","name":"farmScAddr","type":"address"}],"name":"FarmCreated","type":"event"},{"inputs":[],"name":"catalogIpnsKey","outputs":[{"internalType":"string","name":"","type":"string"}],"stateMutability":"view","type":"function"},{"inputs":[{"internalType":"string","name":"_farmId","type":"string"},{"internalType":"string","name":"_ipns_pk","type":"string"}],"name":"createFarm","outputs":[{"internalType":"address","name":"","type":"address"}],"stateMutability":"nonpayable","type":"function"},{"inputs":[],"name":"farmMenuListIpnsKey","outputs":[{"internalType":"string","name":"","type":"string"}],"stateMutability":"view","type":"function"},{"inputs":[],"name":"farmMenuListSecretKey","outputs":[{"internalType":"string","name":"","type":"string"}],"stateMutability":"view","type":"function"},{"inputs":[{"internalType":"string","name":"_farm_menu_ipns_key","type":"string"}],"name":"setFarmMenuListIpnsKey","outputs":[],"stateMutability":"nonpayable","type":"function"},{"inputs":[{"internalType":"string","name":"_farm_secret_key","type":"string"}],"name":"setFarmMenuListSecretKey","outputs":[],"stateMutability":"nonpayable","type":"function"},{"inputs":[{"internalType":"string","name":"_ipns_key","type":"string"}],"name":"setIpnsKey","outputs":[],"stateMutability":"nonpayable","type":"function"}],"evm":{"bytecode":{"linkReferences":{},"object":"608060405234801561001057600080fd5b5061165a806100206000396000f3fe60806040523480156200001157600080fd5b5060043610620000885760003560e01c80638d18dded11620000635780638d18dded14620000ef578063b71cc0781462000111578063e20b937f1462000131578063e6aaf9cc14620001535762000088565b80630f5b7a92146200008d5780630fba35be14620000af5780634e72866514620000cf575b600080fd5b6200009762000189565b604051620000a6919062000584565b60405180910390f35b620000cd6004803603810190620000c791906200070d565b6200021f565b005b620000ed6004803603810190620000e791906200070d565b6200023b565b005b620000f962000257565b60405162000108919062000584565b60405180910390f35b6200012f60048036038101906200012991906200070d565b620002ed565b005b6200013b62000309565b6040516200014a919062000584565b60405180910390f35b6200017160048036038101906200016b91906200075e565b6200039f565b60405162000180919062000828565b60405180910390f35b60018054620001989062000874565b80601f0160208091040260200160405190810160405280929190818152602001828054620001c69062000874565b8015620002175780601f10620001eb5761010080835404028352916020019162000217565b820191906000526020600020905b815481529060010190602001808311620001f957829003601f168201915b505050505081565b80600290805190602001906200023792919062000422565b5050565b80600090805190602001906200025392919062000422565b5050565b60028054620002669062000874565b80601f0160208091040260200160405190810160405280929190818152602001828054620002949062000874565b8015620002e55780601f10620002b957610100808354040283529160200191620002e5565b820191906000526020600020905b815481529060010190602001808311620002c757829003601f168201915b505050505081565b80600190805190602001906200030592919062000422565b5050565b60008054620003189062000874565b80601f0160208091040260200160405190810160405280929190818152602001828054620003469062000874565b8015620003975780601f106200036b5761010080835404028352916020019162000397565b820191906000526020600020905b8154815290600101906020018083116200037957829003601f168201915b505050505081565b6000808383604051620003b290620004b3565b620003bf929190620008aa565b604051809103906000f080158015620003dc573d6000803e3d6000fd5b5090507f46963f16723a084f2199eb74021bd97647aa6c8960612a9a031ce509d40d4ca78160405162000410919062000828565b60405180910390a18091505092915050565b828054620004309062000874565b90600052602060002090601f016020900481019282620004545760008555620004a0565b82601f106200046f57805160ff1916838001178555620004a0565b82800160010185558215620004a0579182015b828111156200049f57825182559160200191906001019062000482565b5b509050620004af9190620004c1565b5090565b610d3f80620008e683390190565b5b80821115620004dc576000816000905550600101620004c2565b5090565b600081519050919050565b600082825260208201905092915050565b60005b838110156200051c578082015181840152602081019050620004ff565b838111156200052c576000848401525b50505050565b6000601f19601f8301169050919050565b60006200055082620004e0565b6200055c8185620004eb565b93506200056e818560208601620004fc565b620005798162000532565b840191505092915050565b60006020820190508181036000830152620005a0818462000543565b905092915050565b6000604051905090565b600080fd5b600080fd5b600080fd5b600080fd5b7f4e487b7100000000000000000000000000000000000000000000000000000000600052604160045260246000fd5b620006008262000532565b810181811067ffffffffffffffff82111715620006225762000621620005c6565b5b80604052505050565b600062000637620005a8565b9050620006458282620005f5565b919050565b600067ffffffffffffffff821115620006685762000667620005c6565b5b620006738262000532565b9050602081019050919050565b82818337600083830152505050565b6000620006a6620006a0846200064a565b6200062b565b905082815260208101848484011115620006c557620006c4620005c1565b5b620006d284828562000680565b509392505050565b600082601f830112620006f257620006f1620005bc565b5b8135620007048482602086016200068f565b91505092915050565b600060208284031215620007265762000725620005b2565b5b600082013567ffffffffffffffff811115620007475762000746620005b7565b5b6200075584828501620006da565b91505092915050565b60008060408385031215620007785762000777620005b2565b5b600083013567ffffffffffffffff811115620007995762000798620005b7565b5b620007a785828601620006da565b925050602083013567ffffffffffffffff811115620007cb57620007ca620005b7565b5b620007d985828601620006da565b9150509250929050565b600073ffffffffffffffffffffffffffffffffffffffff82169050919050565b60006200081082620007e3565b9050919050565b620008228162000803565b82525050565b60006020820190506200083f600083018462000817565b92915050565b7f4e487b7100000000000000000000000000000000000000000000000000000000600052602260045260246000fd5b600060028204905060018216806200088d57607f821691505b60208210811415620008a457620008a362000845565b5b50919050565b60006040820190508181036000830152620008c6818562000543565b90508181036020830152620008dc818462000543565b9050939250505056fe60806040523480156200001157600080fd5b5060405162000d3f38038062000d3f83398181016040528101906200003791906200035a565b81600090805190602001906200004f9291906200010d565b508060019080519060200190620000689291906200010d565b506040518060400160405280600181526020017f300000000000000000000000000000000000000000000000000000000000000081525060029080519060200190620000b69291906200010d565b506040518060400160405280600181526020017f300000000000000000000000000000000000000000000000000000000000000081525060039080519060200190620001049291906200010d565b50505062000444565b8280546200011b906200040e565b90600052602060002090601f0160209004810192826200013f57600085556200018b565b82601f106200015a57805160ff19168380011785556200018b565b828001600101855582156200018b579182015b828111156200018a5782518255916020019190600101906200016d565b5b5090506200019a91906200019e565b5090565b5b80821115620001b95760008160009055506001016200019f565b5090565b6000604051905090565b600080fd5b600080fd5b600080fd5b600080fd5b6000601f19601f8301169050919050565b7f4e487b7100000000000000000000000000000000000000000000000000000000600052604160045260246000fd5b6200022682620001db565b810181811067ffffffffffffffff82111715620002485762000247620001ec565b5b80604052505050565b60006200025d620001bd565b90506200026b82826200021b565b919050565b600067ffffffffffffffff8211156200028e576200028d620001ec565b5b6200029982620001db565b9050602081019050919050565b60005b83811015620002c6578082015181840152602081019050620002a9565b83811115620002d6576000848401525b50505050565b6000620002f3620002ed8462000270565b62000251565b905082815260208101848484011115620003125762000311620001d6565b5b6200031f848285620002a6565b509392505050565b600082601f8301126200033f576200033e620001d1565b5b815162000351848260208601620002dc565b91505092915050565b60008060408385031215620003745762000373620001c7565b5b600083015167ffffffffffffffff811115620003955762000394620001cc565b5b620003a38582860162000327565b925050602083015167ffffffffffffffff811115620003c757620003c6620001cc565b5b620003d58582860162000327565b9150509250929050565b7f4e487b7100000000000000000000000000000000000000000000000000000000600052602260045260246000fd5b600060028204905060018216806200042757607f821691505b602082108114156200043e576200043d620003df565b5b50919050565b6108eb80620004546000396000f3fe608060405234801561001057600080fd5b50600436106100935760003560e01c806349e3915b1161006657806349e3915b146101205780636defbf801461013e5780638c22deaf1461015c578063a8cf759314610178578063b8efc6fa1461019657610093565b80630f9618c614610098578063278de000146100b65780633ad0060d146100d4578063475fc0f4146100f0575b600080fd5b6100a06101b2565b6040516100ad9190610650565b60405180910390f35b6100be610240565b6040516100cb9190610650565b60405180910390f35b6100ee60048036038101906100e991906107bb565b6102ce565b005b61010a600480360381019061010591906107bb565b6102e8565b6040516101179190610650565b60405180910390f35b610128610341565b6040516101359190610650565b60405180910390f35b61014661038d565b6040516101539190610650565b60405180910390f35b610176600480360381019061017191906107bb565b61041b565b005b61018061046c565b60405161018d9190610650565b60405180910390f35b6101b060048036038101906101ab91906107bb565b6104fa565b005b600380546101bf90610833565b80601f01602080910402602001604051908101604052809291908181526020018280546101eb90610833565b80156102385780601f1061020d57610100808354040283529160200191610238565b820191906000526020600020905b81548152906001019060200180831161021b57829003601f168201915b505050505081565b6000805461024d90610833565b80601f016020809104026020016040519081016040528092919081815260200182805461027990610833565b80156102c65780601f1061029b576101008083540402835291602001916102c6565b820191906000526020600020905b8154815290600101906020018083116102a957829003601f168201915b505050505081565b80600390805190602001906102e4929190610514565b5050565b60607f92c8ae1be97440da1f7f30fb5b39a98e3e352284ec632f81dbe4968ec35f5696826040516103199190610650565b60405180910390a160405180606001604052806029815260200161088d602991399050919050565b60607f513f2213bca64463a207dd663bec29171d4ab06a1b71a1fd8c4bd2e66c6837d560405160405180910390a160405180606001604052806027815260200161086660279139905090565b6002805461039a90610833565b80601f01602080910402602001604051908101604052809291908181526020018280546103c690610833565b80156104135780601f106103e857610100808354040283529160200191610413565b820191906000526020600020905b8154815290600101906020018083116103f657829003601f168201915b505050505081565b8060019080519060200190610431929190610514565b507f275554b9e84105477212781091b7b08f2b148d56eee0f3c2f8ffd99730cb853c816040516104619190610650565b60405180910390a150565b6001805461047990610833565b80601f01602080910402602001604051908101604052809291908181526020018280546104a590610833565b80156104f25780601f106104c7576101008083540402835291602001916104f2565b820191906000526020600020905b8154815290600101906020018083116104d557829003601f168201915b505050505081565b8060029080519060200190610510929190610514565b5050565b82805461052090610833565b90600052602060002090601f0160209004810192826105425760008555610589565b82601f1061055b57805160ff1916838001178555610589565b82800160010185558215610589579182015b8281111561058857825182559160200191906001019061056d565b5b509050610596919061059a565b5090565b5b808211156105b357600081600090555060010161059b565b5090565b600081519050919050565b600082825260208201905092915050565b60005b838110156105f15780820151818401526020810190506105d6565b83811115610600576000848401525b50505050565b6000601f19601f8301169050919050565b6000610622826105b7565b61062c81856105c2565b935061063c8185602086016105d3565b61064581610606565b840191505092915050565b6000602082019050818103600083015261066a8184610617565b905092915050565b6000604051905090565b600080fd5b600080fd5b600080fd5b600080fd5b7f4e487b7100000000000000000000000000000000000000000000000000000000600052604160045260246000fd5b6106c882610606565b810181811067ffffffffffffffff821117156106e7576106e6610690565b5b80604052505050565b60006106fa610672565b905061070682826106bf565b919050565b600067ffffffffffffffff82111561072657610725610690565b5b61072f82610606565b9050602081019050919050565b82818337600083830152505050565b600061075e6107598461070b565b6106f0565b90508281526020810184848401111561077a5761077961068b565b5b61078584828561073c565b509392505050565b600082601f8301126107a2576107a1610686565b5b81356107b284826020860161074b565b91505092915050565b6000602082840312156107d1576107d061067c565b5b600082013567ffffffffffffffff8111156107ef576107ee610681565b5b6107fb8482850161078d565b91505092915050565b7f4e487b7100000000000000000000000000000000000000000000000000000000600052602260045260246000fd5b6000600282049050600182168061084b57607f821691505b6020821081141561085f5761085e610804565b5b5091905056fe4661726d2064617461207265717565737465642120436865636b207468652049504e53206b65794465766963652064617461207265717565737465642120436865636b207468652049504e53206b6579a2646970667358221220fabd4d65d1a6209b7a3edfe9dfa7a098ab6616444a468dd2d8c5b55412d19f6d64736f6c63430008090033a2646970667358221220ee3ecfcce8790d6450e0ae45da53ee625c5e46c5684815f4b4fe8795ac65b23164736f6c63430008090033","opcodes":"PUSH1 0x80 PUSH1 0x40 MSTORE CALLVALUE DUP1 ISZERO PUSH2 0x10 JUMPI PUSH1 0x0 DUP1 REVERT JUMPDEST POP PUSH2 0x165A DUP1 PUSH2 0x20 PUSH1 0x0 CODECOPY PUSH1 0x0 RETURN INVALID PUSH1 0x80 PUSH1 0x40 MSTORE CALLVALUE DUP1 ISZERO PUSH3 0x11 JUMPI PUSH1 0x0 DUP1 REVERT JUMPDEST POP PUSH1 0x4 CALLDATASIZE LT PUSH3 0x88 JUMPI PUSH1 0x0 CALLDATALOAD PUSH1 0xE0 SHR DUP1 PUSH4 0x8D18DDED GT PUSH3 0x63 JUMPI DUP1 PUSH4 0x8D18DDED EQ PUSH3 0xEF JUMPI DUP1 PUSH4 0xB71CC078 EQ PUSH3 0x111 JUMPI DUP1 PUSH4 0xE20B937F EQ PUSH3 0x131 JUMPI DUP1 PUSH4 0xE6AAF9CC EQ PUSH3 0x153 JUMPI PUSH3 0x88 JUMP JUMPDEST DUP1 PUSH4 0xF5B7A92 EQ PUSH3 0x8D JUMPI DUP1 PUSH4 0xFBA35BE EQ PUSH3 0xAF JUMPI DUP1 PUSH4 0x4E728665 EQ PUSH3 0xCF JUMPI JUMPDEST PUSH1 0x0 DUP1 REVERT JUMPDEST PUSH3 0x97 PUSH3 0x189 JUMP JUMPDEST PUSH1 0x40 MLOAD PUSH3 0xA6 SWAP2 SWAP1 PUSH3 0x584 JUMP JUMPDEST PUSH1 0x40 MLOAD DUP1 SWAP2 SUB SWAP1 RETURN JUMPDEST PUSH3 0xCD PUSH1 0x4 DUP1 CALLDATASIZE SUB DUP2 ADD SWAP1 PUSH3 0xC7 SWAP2 SWAP1 PUSH3 0x70D JUMP JUMPDEST PUSH3 0x21F JUMP JUMPDEST STOP JUMPDEST PUSH3 0xED PUSH1 0x4 DUP1 CALLDATASIZE SUB DUP2 ADD SWAP1 PUSH3 0xE7 SWAP2 SWAP1 PUSH3 0x70D JUMP JUMPDEST PUSH3 0x23B JUMP JUMPDEST STOP JUMPDEST PUSH3 0xF9 PUSH3 0x257 JUMP JUMPDEST PUSH1 0x40 MLOAD PUSH3 0x108 SWAP2 SWAP1 PUSH3 0x584 JUMP JUMPDEST PUSH1 0x40 MLOAD DUP1 SWAP2 SUB SWAP1 RETURN JUMPDEST PUSH3 0x12F PUSH1 0x4 DUP1 CALLDATASIZE SUB DUP2 ADD SWAP1 PUSH3 0x129 SWAP2 SWAP1 PUSH3 0x70D JUMP JUMPDEST PUSH3 0x2ED JUMP JUMPDEST STOP JUMPDEST PUSH3 0x13B PUSH3 0x309 JUMP JUMPDEST PUSH1 0x40 MLOAD PUSH3 0x14A SWAP2 SWAP1 PUSH3 0x584 JUMP JUMPDEST PUSH1 0x40 MLOAD DUP1 SWAP2 SUB SWAP1 RETURN JUMPDEST PUSH3 0x171 PUSH1 0x4 DUP1 CALLDATASIZE SUB DUP2 ADD SWAP1 PUSH3 0x16B SWAP2 SWAP1 PUSH3 0x75E JUMP JUMPDEST PUSH3 0x39F JUMP JUMPDEST PUSH1 0x40 MLOAD PUSH3 0x180 SWAP2 SWAP1 PUSH3 0x828 JUMP JUMPDEST PUSH1 0x40 MLOAD DUP1 SWAP2 SUB SWAP1 RETURN JUMPDEST PUSH1 0x1 DUP1 SLOAD PUSH3 0x198 SWAP1 PUSH3 0x874 JUMP JUMPDEST DUP1 PUSH1 0x1F ADD PUSH1 0x20 DUP1 SWAP2 DIV MUL PUSH1 0x20 ADD PUSH1 0x40 MLOAD SWAP1 DUP2 ADD PUSH1 0x40 MSTORE DUP1 SWAP3 SWAP2 SWAP1 DUP2 DUP2 MSTORE PUSH1 0x20 ADD DUP3 DUP1 SLOAD PUSH3 0x1C6 SWAP1 PUSH3 0x874 JUMP JUMPDEST DUP1 ISZERO PUSH3 0x217 JUMPI DUP1 PUSH1 0x1F LT PUSH3 0x1EB JUMPI PUSH2 0x100 DUP1 DUP4 SLOAD DIV MUL DUP4 MSTORE SWAP2 PUSH1 0x20 ADD SWAP2 PUSH3 0x217 JUMP JUMPDEST DUP3 ADD SWAP2 SWAP1 PUSH1 0x0 MSTORE PUSH1 0x20 PUSH1 0x0 KECCAK256 SWAP1 JUMPDEST DUP2 SLOAD DUP2 MSTORE SWAP1 PUSH1 0x1 ADD SWAP1 PUSH1 0x20 ADD DUP1 DUP4 GT PUSH3 0x1F9 JUMPI DUP3 SWAP1 SUB PUSH1 0x1F AND DUP3 ADD SWAP2 JUMPDEST POP POP POP POP POP DUP2 JUMP JUMPDEST DUP1 PUSH1 0x2 SWAP1 DUP1 MLOAD SWAP1 PUSH1 0x20 ADD SWAP1 PUSH3 0x237 SWAP3 SWAP2 SWAP1 PUSH3 0x422 JUMP JUMPDEST POP POP JUMP JUMPDEST DUP1 PUSH1 0x0 SWAP1 DUP1 MLOAD SWAP1 PUSH1 0x20 ADD SWAP1 PUSH3 0x253 SWAP3 SWAP2 SWAP1 PUSH3 0x422 JUMP JUMPDEST POP POP JUMP JUMPDEST PUSH1 0x2 DUP1 SLOAD PUSH3 0x266 SWAP1 PUSH3 0x874 JUMP JUMPDEST DUP1 PUSH1 0x1F ADD PUSH1 0x20 DUP1 SWAP2 DIV MUL PUSH1 0x20 ADD PUSH1 0x40 MLOAD SWAP1 DUP2 ADD PUSH1 0x40 MSTORE DUP1 SWAP3 SWAP2 SWAP1 DUP2 DUP2 MSTORE PUSH1 0x20 ADD DUP3 DUP1 SLOAD PUSH3 0x294 SWAP1 PUSH3 0x874 JUMP JUMPDEST DUP1 ISZERO PUSH3 0x2E5 JUMPI DUP1 PUSH1 0x1F LT PUSH3 0x2B9 JUMPI PUSH2 0x100 DUP1 DUP4 SLOAD DIV MUL DUP4 MSTORE SWAP2 PUSH1 0x20 ADD SWAP2 PUSH3 0x2E5 JUMP JUMPDEST DUP3 ADD SWAP2 SWAP1 PUSH1 0x0 MSTORE PUSH1 0x20 PUSH1 0x0 KECCAK256 SWAP1 JUMPDEST DUP2 SLOAD DUP2 MSTORE SWAP1 PUSH1 0x1 ADD SWAP1 PUSH1 0x20 ADD DUP1 DUP4 GT PUSH3 0x2C7 JUMPI DUP3 SWAP1 SUB PUSH1 0x1F AND DUP3 ADD SWAP2 JUMPDEST POP POP POP POP POP DUP2 JUMP JUMPDEST DUP1 PUSH1 0x1 SWAP1 DUP1 MLOAD SWAP1 PUSH1 0x20 ADD SWAP1 PUSH3 0x305 SWAP3 SWAP2 SWAP1 PUSH3 0x422 JUMP JUMPDEST POP POP JUMP JUMPDEST PUSH1 0x0 DUP1 SLOAD PUSH3 0x318 SWAP1 PUSH3 0x874 JUMP JUMPDEST DUP1 PUSH1 0x1F ADD PUSH1 0x20 DUP1 SWAP2 DIV MUL PUSH1 0x20 ADD PUSH1 0x40 MLOAD SWAP1 DUP2 ADD PUSH1 0x40 MSTORE DUP1 SWAP3 SWAP2 SWAP1 DUP2 DUP2 MSTORE PUSH1 0x20 ADD DUP3 DUP1 SLOAD PUSH3 0x346 SWAP1 PUSH3 0x874 JUMP JUMPDEST DUP1 ISZERO PUSH3 0x397 JUMPI DUP1 PUSH1 0x1F LT PUSH3 0x36B JUMPI PUSH2 0x100 DUP1 DUP4 SLOAD DIV MUL DUP4 MSTORE SWAP2 PUSH1 0x20 ADD SWAP2 PUSH3 0x397 JUMP JUMPDEST DUP3 ADD SWAP2 SWAP1 PUSH1 0x0 MSTORE PUSH1 0x20 PUSH1 0x0 KECCAK256 SWAP1 JUMPDEST DUP2 SLOAD DUP2 MSTORE SWAP1 PUSH1 0x1 ADD SWAP1 PUSH1 0x20 ADD DUP1 DUP4 GT PUSH3 0x379 JUMPI DUP3 SWAP1 SUB PUSH1 0x1F AND DUP3 ADD SWAP2 JUMPDEST POP POP POP POP POP DUP2 JUMP JUMPDEST PUSH1 0x0 DUP1 DUP4 DUP4 PUSH1 0x40 MLOAD PUSH3 0x3B2 SWAP1 PUSH3 0x4B3 JUMP JUMPDEST PUSH3 0x3BF SWAP3 SWAP2 SWAP1 PUSH3 0x8AA JUMP JUMPDEST PUSH1 0x40 MLOAD DUP1 SWAP2 SUB SWAP1 PUSH1 0x0 CREATE DUP1 ISZERO DUP1 ISZERO PUSH3 0x3DC JUMPI RETURNDATASIZE PUSH1 0x0 DUP1 RETURNDATACOPY RETURNDATASIZE PUSH1 0x0 REVERT JUMPDEST POP SWAP1 POP PUSH32 0x46963F16723A084F2199EB74021BD97647AA6C8960612A9A031CE509D40D4CA7 DUP2 PUSH1 0x40 MLOAD PUSH3 0x410 SWAP2 SWAP1 PUSH3 0x828 JUMP JUMPDEST PUSH1 0x40 MLOAD DUP1 SWAP2 SUB SWAP1 LOG1 DUP1 SWAP2 POP POP SWAP3 SWAP2 POP POP JUMP JUMPDEST DUP3 DUP1 SLOAD PUSH3 0x430 SWAP1 PUSH3 0x874 JUMP JUMPDEST SWAP1 PUSH1 0x0 MSTORE PUSH1 0x20 PUSH1 0x0 KECCAK256 SWAP1 PUSH1 0x1F ADD PUSH1 0x20 SWAP1 DIV DUP2 ADD SWAP3 DUP3 PUSH3 0x454 JUMPI PUSH1 0x0 DUP6 SSTORE PUSH3 0x4A0 JUMP JUMPDEST DUP3 PUSH1 0x1F LT PUSH3 0x46F JUMPI DUP1 MLOAD PUSH1 0xFF NOT AND DUP4 DUP1 ADD OR DUP6 SSTORE PUSH3 0x4A0 JUMP JUMPDEST DUP3 DUP1 ADD PUSH1 0x1 ADD DUP6 SSTORE DUP3 ISZERO PUSH3 0x4A0 JUMPI SWAP2 DUP3 ADD JUMPDEST DUP3 DUP2 GT ISZERO PUSH3 0x49F JUMPI DUP3 MLOAD DUP3 SSTORE SWAP2 PUSH1 0x20 ADD SWAP2 SWAP1 PUSH1 0x1 ADD SWAP1 PUSH3 0x482 JUMP JUMPDEST JUMPDEST POP SWAP1 POP PUSH3 0x4AF SWAP2 SWAP1 PUSH3 0x4C1 JUMP JUMPDEST POP SWAP1 JUMP JUMPDEST PUSH2 0xD3F DUP1 PUSH3 0x8E6 DUP4 CODECOPY ADD SWAP1 JUMP JUMPDEST JUMPDEST DUP1 DUP3 GT ISZERO PUSH3 0x4DC JUMPI PUSH1 0x0 DUP2 PUSH1 0x0 SWAP1 SSTORE POP PUSH1 0x1 ADD PUSH3 0x4C2 JUMP JUMPDEST POP SWAP1 JUMP JUMPDEST PUSH1 0x0 DUP2 MLOAD SWAP1 POP SWAP2 SWAP1 POP JUMP JUMPDEST PUSH1 0x0 DUP3 DUP3 MSTORE PUSH1 0x20 DUP3 ADD SWAP1 POP SWAP3 SWAP2 POP POP JUMP JUMPDEST PUSH1 0x0 JUMPDEST DUP4 DUP2 LT ISZERO PUSH3 0x51C JUMPI DUP1 DUP3 ADD MLOAD DUP2 DUP5 ADD MSTORE PUSH1 0x20 DUP2 ADD SWAP1 POP PUSH3 0x4FF JUMP JUMPDEST DUP4 DUP2 GT ISZERO PUSH3 0x52C JUMPI PUSH1 0x0 DUP5 DUP5 ADD MSTORE JUMPDEST POP POP POP POP JUMP JUMPDEST PUSH1 0x0 PUSH1 0x1F NOT PUSH1 0x1F DUP4 ADD AND SWAP1 POP SWAP2 SWAP1 POP JUMP JUMPDEST PUSH1 0x0 PUSH3 0x550 DUP3 PUSH3 0x4E0 JUMP JUMPDEST PUSH3 0x55C DUP2 DUP6 PUSH3 0x4EB JUMP JUMPDEST SWAP4 POP PUSH3 0x56E DUP2 DUP6 PUSH1 0x20 DUP7 ADD PUSH3 0x4FC JUMP JUMPDEST PUSH3 0x579 DUP2 PUSH3 0x532 JUMP JUMPDEST DUP5 ADD SWAP2 POP POP SWAP3 SWAP2 POP POP JUMP JUMPDEST PUSH1 0x0 PUSH1 0x20 DUP3 ADD SWAP1 POP DUP2 DUP2 SUB PUSH1 0x0 DUP4 ADD MSTORE PUSH3 0x5A0 DUP2 DUP5 PUSH3 0x543 JUMP JUMPDEST SWAP1 POP SWAP3 SWAP2 POP POP JUMP JUMPDEST PUSH1 0x0 PUSH1 0x40 MLOAD SWAP1 POP SWAP1 JUMP JUMPDEST PUSH1 0x0 DUP1 REVERT JUMPDEST PUSH1 0x0 DUP1 REVERT JUMPDEST PUSH1 0x0 DUP1 REVERT JUMPDEST PUSH1 0x0 DUP1 REVERT JUMPDEST PUSH32 0x4E487B7100000000000000000000000000000000000000000000000000000000 PUSH1 0x0 MSTORE PUSH1 0x41 PUSH1 0x4 MSTORE PUSH1 0x24 PUSH1 0x0 REVERT JUMPDEST PUSH3 0x600 DUP3 PUSH3 0x532 JUMP JUMPDEST DUP2 ADD DUP2 DUP2 LT PUSH8 0xFFFFFFFFFFFFFFFF DUP3 GT OR ISZERO PUSH3 0x622 JUMPI PUSH3 0x621 PUSH3 0x5C6 JUMP JUMPDEST JUMPDEST DUP1 PUSH1 0x40 MSTORE POP POP POP JUMP JUMPDEST PUSH1 0x0 PUSH3 0x637 PUSH3 0x5A8 JUMP JUMPDEST SWAP1 POP PUSH3 0x645 DUP3 DUP3 PUSH3 0x5F5 JUMP JUMPDEST SWAP2 SWAP1 POP JUMP JUMPDEST PUSH1 0x0 PUSH8 0xFFFFFFFFFFFFFFFF DUP3 GT ISZERO PUSH3 0x668 JUMPI PUSH3 0x667 PUSH3 0x5C6 JUMP JUMPDEST JUMPDEST PUSH3 0x673 DUP3 PUSH3 0x532 JUMP JUMPDEST SWAP1 POP PUSH1 0x20 DUP2 ADD SWAP1 POP SWAP2 SWAP1 POP JUMP JUMPDEST DUP3 DUP2 DUP4 CALLDATACOPY PUSH1 0x0 DUP4 DUP4 ADD MSTORE POP POP POP JUMP JUMPDEST PUSH1 0x0 PUSH3 0x6A6 PUSH3 0x6A0 DUP5 PUSH3 0x64A JUMP JUMPDEST PUSH3 0x62B JUMP JUMPDEST SWAP1 POP DUP3 DUP2 MSTORE PUSH1 0x20 DUP2 ADD DUP5 DUP5 DUP5 ADD GT ISZERO PUSH3 0x6C5 JUMPI PUSH3 0x6C4 PUSH3 0x5C1 JUMP JUMPDEST JUMPDEST PUSH3 0x6D2 DUP5 DUP3 DUP6 PUSH3 0x680 JUMP JUMPDEST POP SWAP4 SWAP3 POP POP POP JUMP JUMPDEST PUSH1 0x0 DUP3 PUSH1 0x1F DUP4 ADD SLT PUSH3 0x6F2 JUMPI PUSH3 0x6F1 PUSH3 0x5BC JUMP JUMPDEST JUMPDEST DUP2 CALLDATALOAD PUSH3 0x704 DUP5 DUP3 PUSH1 0x20 DUP7 ADD PUSH3 0x68F JUMP JUMPDEST SWAP2 POP POP SWAP3 SWAP2 POP POP JUMP JUMPDEST PUSH1 0x0 PUSH1 0x20 DUP3 DUP5 SUB SLT ISZERO PUSH3 0x726 JUMPI PUSH3 0x725 PUSH3 0x5B2 JUMP JUMPDEST JUMPDEST PUSH1 0x0 DUP3 ADD CALLDATALOAD PUSH8 0xFFFFFFFFFFFFFFFF DUP2 GT ISZERO PUSH3 0x747 JUMPI PUSH3 0x746 PUSH3 0x5B7 JUMP JUMPDEST JUMPDEST PUSH3 0x755 DUP5 DUP3 DUP6 ADD PUSH3 0x6DA JUMP JUMPDEST SWAP2 POP POP SWAP3 SWAP2 POP POP JUMP JUMPDEST PUSH1 0x0 DUP1 PUSH1 0x40 DUP4 DUP6 SUB SLT ISZERO PUSH3 0x778 JUMPI PUSH3 0x777 PUSH3 0x5B2 JUMP JUMPDEST JUMPDEST PUSH1 0x0 DUP4 ADD CALLDATALOAD PUSH8 0xFFFFFFFFFFFFFFFF DUP2 GT ISZERO PUSH3 0x799 JUMPI PUSH3 0x798 PUSH3 0x5B7 JUMP JUMPDEST JUMPDEST PUSH3 0x7A7 DUP6 DUP3 DUP7 ADD PUSH3 0x6DA JUMP JUMPDEST SWAP3 POP POP PUSH1 0x20 DUP4 ADD CALLDATALOAD PUSH8 0xFFFFFFFFFFFFFFFF DUP2 GT ISZERO PUSH3 0x7CB JUMPI PUSH3 0x7CA PUSH3 0x5B7 JUMP JUMPDEST JUMPDEST PUSH3 0x7D9 DUP6 DUP3 DUP7 ADD PUSH3 0x6DA JUMP JUMPDEST SWAP2 POP POP SWAP3 POP SWAP3 SWAP1 POP JUMP JUMPDEST PUSH1 0x0 PUSH20 0xFFFFFFFFFFFFFFFFFFFFFFFFFFFFFFFFFFFFFFFF DUP3 AND SWAP1 POP SWAP2 SWAP1 POP JUMP JUMPDEST PUSH1 0x0 PUSH3 0x810 DUP3 PUSH3 0x7E3 JUMP JUMPDEST SWAP1 POP SWAP2 SWAP1 POP JUMP JUMPDEST PUSH3 0x822 DUP2 PUSH3 0x803 JUMP JUMPDEST DUP3 MSTORE POP POP JUMP JUMPDEST PUSH1 0x0 PUSH1 0x20 DUP3 ADD SWAP1 POP PUSH3 0x83F PUSH1 0x0 DUP4 ADD DUP5 PUSH3 0x817 JUMP JUMPDEST SWAP3 SWAP2 POP POP JUMP JUMPDEST PUSH32 0x4E487B7100000000000000000000000000000000000000000000000000000000 PUSH1 0x0 MSTORE PUSH1 0x22 PUSH1 0x4 MSTORE PUSH1 0x24 PUSH1 0x0 REVERT JUMPDEST PUSH1 0x0 PUSH1 0x2 DUP3 DIV SWAP1 POP PUSH1 0x1 DUP3 AND DUP1 PUSH3 0x88D JUMPI PUSH1 0x7F DUP3 AND SWAP2 POP JUMPDEST PUSH1 0x20 DUP3 LT DUP2 EQ ISZERO PUSH3 0x8A4 JUMPI PUSH3 0x8A3 PUSH3 0x845 JUMP JUMPDEST JUMPDEST POP SWAP2 SWAP1 POP JUMP JUMPDEST PUSH1 0x0 PUSH1 0x40 DUP3 ADD SWAP1 POP DUP2 DUP2 SUB PUSH1 0x0 DUP4 ADD MSTORE PUSH3 0x8C6 DUP2 DUP6 PUSH3 0x543 JUMP JUMPDEST SWAP1 POP DUP2 DUP2 SUB PUSH1 0x20 DUP4 ADD MSTORE PUSH3 0x8DC DUP2 DUP5 PUSH3 0x543 JUMP JUMPDEST SWAP1 POP SWAP4 SWAP3 POP POP POP JUMP INVALID PUSH1 0x80 PUSH1 0x40 MSTORE CALLVALUE DUP1 ISZERO PUSH3 0x11 JUMPI PUSH1 0x0 DUP1 REVERT JUMPDEST POP PUSH1 0x40 MLOAD PUSH3 0xD3F CODESIZE SUB DUP1 PUSH3 0xD3F DUP4 CODECOPY DUP2 DUP2 ADD PUSH1 0x40 MSTORE DUP2 ADD SWAP1 PUSH3 0x37 SWAP2 SWAP1 PUSH3 0x35A JUMP JUMPDEST DUP2 PUSH1 0x0 SWAP1 DUP1 MLOAD SWAP1 PUSH1 0x20 ADD SWAP1 PUSH3 0x4F SWAP3 SWAP2 SWAP1 PUSH3 0x10D JUMP JUMPDEST POP DUP1 PUSH1 0x1 SWAP1 DUP1 MLOAD SWAP1 PUSH1 0x20 ADD SWAP1 PUSH3 0x68 SWAP3 SWAP2 SWAP1 PUSH3 0x10D JUMP JUMPDEST POP PUSH1 0x40 MLOAD DUP1 PUSH1 0x40 ADD PUSH1 0x40 MSTORE DUP1 PUSH1 0x1 DUP2 MSTORE PUSH1 0x20 ADD PUSH32 0x3000000000000000000000000000000000000000000000000000000000000000 DUP2 MSTORE POP PUSH1 0x2 SWAP1 DUP1 MLOAD SWAP1 PUSH1 0x20 ADD SWAP1 PUSH3 0xB6 SWAP3 SWAP2 SWAP1 PUSH3 0x10D JUMP JUMPDEST POP PUSH1 0x40 MLOAD DUP1 PUSH1 0x40 ADD PUSH1 0x40 MSTORE DUP1 PUSH1 0x1 DUP2 MSTORE PUSH1 0x20 ADD PUSH32 0x3000000000000000000000000000000000000000000000000000000000000000 DUP2 MSTORE POP PUSH1 0x3 SWAP1 DUP1 MLOAD SWAP1 PUSH1 0x20 ADD SWAP1 PUSH3 0x104 SWAP3 SWAP2 SWAP1 PUSH3 0x10D JUMP JUMPDEST POP POP POP PUSH3 0x444 JUMP JUMPDEST DUP3 DUP1 SLOAD PUSH3 0x11B SWAP1 PUSH3 0x40E JUMP JUMPDEST SWAP1 PUSH1 0x0 MSTORE PUSH1 0x20 PUSH1 0x0 KECCAK256 SWAP1 PUSH1 0x1F ADD PUSH1 0x20 SWAP1 DIV DUP2 ADD SWAP3 DUP3 PUSH3 0x13F JUMPI PUSH1 0x0 DUP6 SSTORE PUSH3 0x18B JUMP JUMPDEST DUP3 PUSH1 0x1F LT PUSH3 0x15A JUMPI DUP1 MLOAD PUSH1 0xFF NOT AND DUP4 DUP1 ADD OR DUP6 SSTORE PUSH3 0x18B JUMP JUMPDEST DUP3 DUP1 ADD PUSH1 0x1 ADD DUP6 SSTORE DUP3 ISZERO PUSH3 0x18B JUMPI SWAP2 DUP3 ADD JUMPDEST DUP3 DUP2 GT ISZERO PUSH3 0x18A JUMPI DUP3 MLOAD DUP3 SSTORE SWAP2 PUSH1 0x20 ADD SWAP2 SWAP1 PUSH1 0x1 ADD SWAP1 PUSH3 0x16D JUMP JUMPDEST JUMPDEST POP SWAP1 POP PUSH3 0x19A SWAP2 SWAP1 PUSH3 0x19E JUMP JUMPDEST POP SWAP1 JUMP JUMPDEST JUMPDEST DUP1 DUP3 GT ISZERO PUSH3 0x1B9 JUMPI PUSH1 0x0 DUP2 PUSH1 0x0 SWAP1 SSTORE POP PUSH1 0x1 ADD PUSH3 0x19F JUMP JUMPDEST POP SWAP1 JUMP JUMPDEST PUSH1 0x0 PUSH1 0x40 MLOAD SWAP1 POP SWAP1 JUMP JUMPDEST PUSH1 0x0 DUP1 REVERT JUMPDEST PUSH1 0x0 DUP1 REVERT JUMPDEST PUSH1 0x0 DUP1 REVERT JUMPDEST PUSH1 0x0 DUP1 REVERT JUMPDEST PUSH1 0x0 PUSH1 0x1F NOT PUSH1 0x1F DUP4 ADD AND SWAP1 POP SWAP2 SWAP1 POP JUMP JUMPDEST PUSH32 0x4E487B7100000000000000000000000000000000000000000000000000000000 PUSH1 0x0 MSTORE PUSH1 0x41 PUSH1 0x4 MSTORE PUSH1 0x24 PUSH1 0x0 REVERT JUMPDEST PUSH3 0x226 DUP3 PUSH3 0x1DB JUMP JUMPDEST DUP2 ADD DUP2 DUP2 LT PUSH8 0xFFFFFFFFFFFFFFFF DUP3 GT OR ISZERO PUSH3 0x248 JUMPI PUSH3 0x247 PUSH3 0x1EC JUMP JUMPDEST JUMPDEST DUP1 PUSH1 0x40 MSTORE POP POP POP JUMP JUMPDEST PUSH1 0x0 PUSH3 0x25D PUSH3 0x1BD JUMP JUMPDEST SWAP1 POP PUSH3 0x26B DUP3 DUP3 PUSH3 0x21B JUMP JUMPDEST SWAP2 SWAP1 POP JUMP JUMPDEST PUSH1 0x0 PUSH8 0xFFFFFFFFFFFFFFFF DUP3 GT ISZERO PUSH3 0x28E JUMPI PUSH3 0x28D PUSH3 0x1EC JUMP JUMPDEST JUMPDEST PUSH3 0x299 DUP3 PUSH3 0x1DB JUMP JUMPDEST SWAP1 POP PUSH1 0x20 DUP2 ADD SWAP1 POP SWAP2 SWAP1 POP JUMP JUMPDEST PUSH1 0x0 JUMPDEST DUP4 DUP2 LT ISZERO PUSH3 0x2C6 JUMPI DUP1 DUP3 ADD MLOAD DUP2 DUP5 ADD MSTORE PUSH1 0x20 DUP2 ADD SWAP1 POP PUSH3 0x2A9 JUMP JUMPDEST DUP4 DUP2 GT ISZERO PUSH3 0x2D6 JUMPI PUSH1 0x0 DUP5 DUP5 ADD MSTORE JUMPDEST POP POP POP POP JUMP JUMPDEST PUSH1 0x0 PUSH3 0x2F3 PUSH3 0x2ED DUP5 PUSH3 0x270 JUMP JUMPDEST PUSH3 0x251 JUMP JUMPDEST SWAP1 POP DUP3 DUP2 MSTORE PUSH1 0x20 DUP2 ADD DUP5 DUP5 DUP5 ADD GT ISZERO PUSH3 0x312 JUMPI PUSH3 0x311 PUSH3 0x1D6 JUMP JUMPDEST JUMPDEST PUSH3 0x31F DUP5 DUP3 DUP6 PUSH3 0x2A6 JUMP JUMPDEST POP SWAP4 SWAP3 POP POP POP JUMP JUMPDEST PUSH1 0x0 DUP3 PUSH1 0x1F DUP4 ADD SLT PUSH3 0x33F JUMPI PUSH3 0x33E PUSH3 0x1D1 JUMP JUMPDEST JUMPDEST DUP2 MLOAD PUSH3 0x351 DUP5 DUP3 PUSH1 0x20 DUP7 ADD PUSH3 0x2DC JUMP JUMPDEST SWAP2 POP POP SWAP3 SWAP2 POP POP JUMP JUMPDEST PUSH1 0x0 DUP1 PUSH1 0x40 DUP4 DUP6 SUB SLT ISZERO PUSH3 0x374 JUMPI PUSH3 0x373 PUSH3 0x1C7 JUMP JUMPDEST JUMPDEST PUSH1 0x0 DUP4 ADD MLOAD PUSH8 0xFFFFFFFFFFFFFFFF DUP2 GT ISZERO PUSH3 0x395 JUMPI PUSH3 0x394 PUSH3 0x1CC JUMP JUMPDEST JUMPDEST PUSH3 0x3A3 DUP6 DUP3 DUP7 ADD PUSH3 0x327 JUMP JUMPDEST SWAP3 POP POP PUSH1 0x20 DUP4 ADD MLOAD PUSH8 0xFFFFFFFFFFFFFFFF DUP2 GT ISZERO PUSH3 0x3C7 JUMPI PUSH3 0x3C6 PUSH3 0x1CC JUMP JUMPDEST JUMPDEST PUSH3 0x3D5 DUP6 DUP3 DUP7 ADD PUSH3 0x327 JUMP JUMPDEST SWAP2 POP POP SWAP3 POP SWAP3 SWAP1 POP JUMP JUMPDEST PUSH32 0x4E487B7100000000000000000000000000000000000000000000000000000000 PUSH1 0x0 MSTORE PUSH1 0x22 PUSH1 0x4 MSTORE PUSH1 0x24 PUSH1 0x0 REVERT JUMPDEST PUSH1 0x0 PUSH1 0x2 DUP3 DIV SWAP1 POP PUSH1 0x1 DUP3 AND DUP1 PUSH3 0x427 JUMPI PUSH1 0x7F DUP3 AND SWAP2 POP JUMPDEST PUSH1 0x20 DUP3 LT DUP2 EQ ISZERO PUSH3 0x43E JUMPI PUSH3 0x43D PUSH3 0x3DF JUMP JUMPDEST JUMPDEST POP SWAP2 SWAP1 POP JUMP JUMPDEST PUSH2 0x8EB DUP1 PUSH3 0x454 PUSH1 0x0 CODECOPY PUSH1 0x0 RETURN INVALID PUSH1 0x80 PUSH1 0x40 MSTORE CALLVALUE DUP1 ISZERO PUSH2 0x10 JUMPI PUSH1 0x0 DUP1 REVERT JUMPDEST POP PUSH1 0x4 CALLDATASIZE LT PUSH2 0x93 JUMPI PUSH1 0x0 CALLDATALOAD PUSH1 0xE0 SHR DUP1 PUSH4 0x49E3915B GT PUSH2 0x66 JUMPI DUP1 PUSH4 0x49E3915B EQ PUSH2 0x120 JUMPI DUP1 PUSH4 0x6DEFBF80 EQ PUSH2 0x13E JUMPI DUP1 PUSH4 0x8C22DEAF EQ PUSH2 0x15C JUMPI DUP1 PUSH4 0xA8CF7593 EQ PUSH2 0x178 JUMPI DUP1 PUSH4 0xB8EFC6FA EQ PUSH2 0x196 JUMPI PUSH2 0x93 JUMP JUMPDEST DUP1 PUSH4 0xF9618C6 EQ PUSH2 0x98 JUMPI DUP1 PUSH4 0x278DE000 EQ PUSH2 0xB6 JUMPI DUP1 PUSH4 0x3AD0060D EQ PUSH2 0xD4 JUMPI DUP1 PUSH4 0x475FC0F4 EQ PUSH2 0xF0 JUMPI JUMPDEST PUSH1 0x0 DUP1 REVERT JUMPDEST PUSH2 0xA0 PUSH2 0x1B2 JUMP JUMPDEST PUSH1 0x40 MLOAD PUSH2 0xAD SWAP2 SWAP1 PUSH2 0x650 JUMP JUMPDEST PUSH1 0x40 MLOAD DUP1 SWAP2 SUB SWAP1 RETURN JUMPDEST PUSH2 0xBE PUSH2 0x240 JUMP JUMPDEST PUSH1 0x40 MLOAD PUSH2 0xCB SWAP2 SWAP1 PUSH2 0x650 JUMP JUMPDEST PUSH1 0x40 MLOAD DUP1 SWAP2 SUB SWAP1 RETURN JUMPDEST PUSH2 0xEE PUSH1 0x4 DUP1 CALLDATASIZE SUB DUP2 ADD SWAP1 PUSH2 0xE9 SWAP2 SWAP1 PUSH2 0x7BB JUMP JUMPDEST PUSH2 0x2CE JUMP JUMPDEST STOP JUMPDEST PUSH2 0x10A PUSH1 0x4 DUP1 CALLDATASIZE SUB DUP2 ADD SWAP1 PUSH2 0x105 SWAP2 SWAP1 PUSH2 0x7BB JUMP JUMPDEST PUSH2 0x2E8 JUMP JUMPDEST PUSH1 0x40 MLOAD PUSH2 0x117 SWAP2 SWAP1 PUSH2 0x650 JUMP JUMPDEST PUSH1 0x40 MLOAD DUP1 SWAP2 SUB SWAP1 RETURN JUMPDEST PUSH2 0x128 PUSH2 0x341 JUMP JUMPDEST PUSH1 0x40 MLOAD PUSH2 0x135 SWAP2 SWAP1 PUSH2 0x650 JUMP JUMPDEST PUSH1 0x40 MLOAD DUP1 SWAP2 SUB SWAP1 RETURN JUMPDEST PUSH2 0x146 PUSH2 0x38D JUMP JUMPDEST PUSH1 0x40 MLOAD PUSH2 0x153 SWAP2 SWAP1 PUSH2 0x650 JUMP JUMPDEST PUSH1 0x40 MLOAD DUP1 SWAP2 SUB SWAP1 RETURN JUMPDEST PUSH2 0x176 PUSH1 0x4 DUP1 CALLDATASIZE SUB DUP2 ADD SWAP1 PUSH2 0x171 SWAP2 SWAP1 PUSH2 0x7BB JUMP JUMPDEST PUSH2 0x41B JUMP JUMPDEST STOP JUMPDEST PUSH2 0x180 PUSH2 0x46C JUMP JUMPDEST PUSH1 0x40 MLOAD PUSH2 0x18D SWAP2 SWAP1 PUSH2 0x650 JUMP JUMPDEST PUSH1 0x40 MLOAD DUP1 SWAP2 SUB SWAP1 RETURN JUMPDEST PUSH2 0x1B0 PUSH1 0x4 DUP1 CALLDATASIZE SUB DUP2 ADD SWAP1 PUSH2 0x1AB SWAP2 SWAP1 PUSH2 0x7BB JUMP JUMPDEST PUSH2 0x4FA JUMP JUMPDEST STOP JUMPDEST PUSH1 0x3 DUP1 SLOAD PUSH2 0x1BF SWAP1 PUSH2 0x833 JUMP JUMPDEST DUP1 PUSH1 0x1F ADD PUSH1 0x20 DUP1 SWAP2 DIV MUL PUSH1 0x20 ADD PUSH1 0x40 MLOAD SWAP1 DUP2 ADD PUSH1 0x40 MSTORE DUP1 SWAP3 SWAP2 SWAP1 DUP2 DUP2 MSTORE PUSH1 0x20 ADD DUP3 DUP1 SLOAD PUSH2 0x1EB SWAP1 PUSH2 0x833 JUMP JUMPDEST DUP1 ISZERO PUSH2 0x238 JUMPI DUP1 PUSH1 0x1F LT PUSH2 0x20D JUMPI PUSH2 0x100 DUP1 DUP4 SLOAD DIV MUL DUP4 MSTORE SWAP2 PUSH1 0x20 ADD SWAP2 PUSH2 0x238 JUMP JUMPDEST DUP3 ADD SWAP2 SWAP1 PUSH1 0x0 MSTORE PUSH1 0x20 PUSH1 0x0 KECCAK256 SWAP1 JUMPDEST DUP2 SLOAD DUP2 MSTORE SWAP1 PUSH1 0x1 ADD SWAP1 PUSH1 0x20 ADD DUP1 DUP4 GT PUSH2 0x21B JUMPI DUP3 SWAP1 SUB PUSH1 0x1F AND DUP3 ADD SWAP2 JUMPDEST POP POP POP POP POP DUP2 JUMP JUMPDEST PUSH1 0x0 DUP1 SLOAD PUSH2 0x24D SWAP1 PUSH2 0x833 JUMP JUMPDEST DUP1 PUSH1 0x1F ADD PUSH1 0x20 DUP1 SWAP2 DIV MUL PUSH1 0x20 ADD PUSH1 0x40 MLOAD SWAP1 DUP2 ADD PUSH1 0x40 MSTORE DUP1 SWAP3 SWAP2 SWAP1 DUP2 DUP2 MSTORE PUSH1 0x20 ADD DUP3 DUP1 SLOAD PUSH2 0x279 SWAP1 PUSH2 0x833 JUMP JUMPDEST DUP1 ISZERO PUSH2 0x2C6 JUMPI DUP1 PUSH1 0x1F LT PUSH2 0x29B JUMPI PUSH2 0x100 DUP1 DUP4 SLOAD DIV MUL DUP4 MSTORE SWAP2 PUSH1 0x20 ADD SWAP2 PUSH2 0x2C6 JUMP JUMPDEST DUP3 ADD SWAP2 SWAP1 PUSH1 0x0 MSTORE PUSH1 0x20 PUSH1 0x0 KECCAK256 SWAP1 JUMPDEST DUP2 SLOAD DUP2 MSTORE SWAP1 PUSH1 0x1 ADD SWAP1 PUSH1 0x20 ADD DUP1 DUP4 GT PUSH2 0x2A9 JUMPI DUP3 SWAP1 SUB PUSH1 0x1F AND DUP3 ADD SWAP2 JUMPDEST POP POP POP POP POP DUP2 JUMP JUMPDEST DUP1 PUSH1 0x3 SWAP1 DUP1 MLOAD SWAP1 PUSH1 0x20 ADD SWAP1 PUSH2 0x2E4 SWAP3 SWAP2 SWAP1 PUSH2 0x514 JUMP JUMPDEST POP POP JUMP JUMPDEST PUSH1 0x60 PUSH32 0x92C8AE1BE97440DA1F7F30FB5B39A98E3E352284EC632F81DBE4968EC35F5696 DUP3 PUSH1 0x40 MLOAD PUSH2 0x319 SWAP2 SWAP1 PUSH2 0x650 JUMP JUMPDEST PUSH1 0x40 MLOAD DUP1 SWAP2 SUB SWAP1 LOG1 PUSH1 0x40 MLOAD DUP1 PUSH1 0x60 ADD PUSH1 0x40 MSTORE DUP1 PUSH1 0x29 DUP2 MSTORE PUSH1 0x20 ADD PUSH2 0x88D PUSH1 0x29 SWAP2 CODECOPY SWAP1 POP SWAP2 SWAP1 POP JUMP JUMPDEST PUSH1 0x60 PUSH32 0x513F2213BCA64463A207DD663BEC29171D4AB06A1B71A1FD8C4BD2E66C6837D5 PUSH1 0x40 MLOAD PUSH1 0x40 MLOAD DUP1 SWAP2 SUB SWAP1 LOG1 PUSH1 0x40 MLOAD DUP1 PUSH1 0x60 ADD PUSH1 0x40 MSTORE DUP1 PUSH1 0x27 DUP2 MSTORE PUSH1 0x20 ADD PUSH2 0x866 PUSH1 0x27 SWAP2 CODECOPY SWAP1 POP SWAP1 JUMP JUMPDEST PUSH1 0x2 DUP1 SLOAD PUSH2 0x39A SWAP1 PUSH2 0x833 JUMP JUMPDEST DUP1 PUSH1 0x1F ADD PUSH1 0x20 DUP1 SWAP2 DIV MUL PUSH1 0x20 ADD PUSH1 0x40 MLOAD SWAP1 DUP2 ADD PUSH1 0x40 MSTORE DUP1 SWAP3 SWAP2 SWAP1 DUP2 DUP2 MSTORE PUSH1 0x20 ADD DUP3 DUP1 SLOAD PUSH2 0x3C6 SWAP1 PUSH2 0x833 JUMP JUMPDEST DUP1 ISZERO PUSH2 0x413 JUMPI DUP1 PUSH1 0x1F LT PUSH2 0x3E8 JUMPI PUSH2 0x100 DUP1 DUP4 SLOAD DIV MUL DUP4 MSTORE SWAP2 PUSH1 0x20 ADD SWAP2 PUSH2 0x413 JUMP JUMPDEST DUP3 ADD SWAP2 SWAP1 PUSH1 0x0 MSTORE PUSH1 0x20 PUSH1 0x0 KECCAK256 SWAP1 JUMPDEST DUP2 SLOAD DUP2 MSTORE SWAP1 PUSH1 0x1 ADD SWAP1 PUSH1 0x20 ADD DUP1 DUP4 GT PUSH2 0x3F6 JUMPI DUP3 SWAP1 SUB PUSH1 0x1F AND DUP3 ADD SWAP2 JUMPDEST POP POP POP POP POP DUP2 JUMP JUMPDEST DUP1 PUSH1 0x1 SWAP1 DUP1 MLOAD SWAP1 PUSH1 0x20 ADD SWAP1 PUSH2 0x431 SWAP3 SWAP2 SWAP1 PUSH2 0x514 JUMP JUMPDEST POP PUSH32 0x275554B9E84105477212781091B7B08F2B148D56EEE0F3C2F8FFD99730CB853C DUP2 PUSH1 0x40 MLOAD PUSH2 0x461 SWAP2 SWAP1 PUSH2 0x650 JUMP JUMPDEST PUSH1 0x40 MLOAD DUP1 SWAP2 SUB SWAP1 LOG1 POP JUMP JUMPDEST PUSH1 0x1 DUP1 SLOAD PUSH2 0x479 SWAP1 PUSH2 0x833 JUMP JUMPDEST DUP1 PUSH1 0x1F ADD PUSH1 0x20 DUP1 SWAP2 DIV MUL PUSH1 0x20 ADD PUSH1 0x40 MLOAD SWAP1 DUP2 ADD PUSH1 0x40 MSTORE DUP1 SWAP3 SWAP2 SWAP1 DUP2 DUP2 MSTORE PUSH1 0x20 ADD DUP3 DUP1 SLOAD PUSH2 0x4A5 SWAP1 PUSH2 0x833 JUMP JUMPDEST DUP1 ISZERO PUSH2 0x4F2 JUMPI DUP1 PUSH1 0x1F LT PUSH2 0x4C7 JUMPI PUSH2 0x100 DUP1 DUP4 SLOAD DIV MUL DUP4 MSTORE SWAP2 PUSH1 0x20 ADD SWAP2 PUSH2 0x4F2 JUMP JUMPDEST DUP3 ADD SWAP2 SWAP1 PUSH1 0x0 MSTORE PUSH1 0x20 PUSH1 0x0 KECCAK256 SWAP1 JUMPDEST DUP2 SLOAD DUP2 MSTORE SWAP1 PUSH1 0x1 ADD SWAP1 PUSH1 0x20 ADD DUP1 DUP4 GT PUSH2 0x4D5 JUMPI DUP3 SWAP1 SUB PUSH1 0x1F AND DUP3 ADD SWAP2 JUMPDEST POP POP POP POP POP DUP2 JUMP JUMPDEST DUP1 PUSH1 0x2 SWAP1 DUP1 MLOAD SWAP1 PUSH1 0x20 ADD SWAP1 PUSH2 0x510 SWAP3 SWAP2 SWAP1 PUSH2 0x514 JUMP JUMPDEST POP POP JUMP JUMPDEST DUP3 DUP1 SLOAD PUSH2 0x520 SWAP1 PUSH2 0x833 JUMP JUMPDEST SWAP1 PUSH1 0x0 MSTORE PUSH1 0x20 PUSH1 0x0 KECCAK256 SWAP1 PUSH1 0x1F ADD PUSH1 0x20 SWAP1 DIV DUP2 ADD SWAP3 DUP3 PUSH2 0x542 JUMPI PUSH1 0x0 DUP6 SSTORE PUSH2 0x589 JUMP JUMPDEST DUP3 PUSH1 0x1F LT PUSH2 0x55B JUMPI DUP1 MLOAD PUSH1 0xFF NOT AND DUP4 DUP1 ADD OR DUP6 SSTORE PUSH2 0x589 JUMP JUMPDEST DUP3 DUP1 ADD PUSH1 0x1 ADD DUP6 SSTORE DUP3 ISZERO PUSH2 0x589 JUMPI SWAP2 DUP3 ADD JUMPDEST DUP3 DUP2 GT ISZERO PUSH2 0x588 JUMPI DUP3 MLOAD DUP3 SSTORE SWAP2 PUSH1 0x20 ADD SWAP2 SWAP1 PUSH1 0x1 ADD SWAP1 PUSH2 0x56D JUMP JUMPDEST JUMPDEST POP SWAP1 POP PUSH2 0x596 SWAP2 SWAP1 PUSH2 0x59A JUMP JUMPDEST POP SWAP1 JUMP JUMPDEST JUMPDEST DUP1 DUP3 GT ISZERO PUSH2 0x5B3 JUMPI PUSH1 0x0 DUP2 PUSH1 0x0 SWAP1 SSTORE POP PUSH1 0x1 ADD PUSH2 0x59B JUMP JUMPDEST POP SWAP1 JUMP JUMPDEST PUSH1 0x0 DUP2 MLOAD SWAP1 POP SWAP2 SWAP1 POP JUMP JUMPDEST PUSH1 0x0 DUP3 DUP3 MSTORE PUSH1 0x20 DUP3 ADD SWAP1 POP SWAP3 SWAP2 POP POP JUMP JUMPDEST PUSH1 0x0 JUMPDEST DUP4 DUP2 LT ISZERO PUSH2 0x5F1 JUMPI DUP1 DUP3 ADD MLOAD DUP2 DUP5 ADD MSTORE PUSH1 0x20 DUP2 ADD SWAP1 POP PUSH2 0x5D6 JUMP JUMPDEST DUP4 DUP2 GT ISZERO PUSH2 0x600 JUMPI PUSH1 0x0 DUP5 DUP5 ADD MSTORE JUMPDEST POP POP POP POP JUMP JUMPDEST PUSH1 0x0 PUSH1 0x1F NOT PUSH1 0x1F DUP4 ADD AND SWAP1 POP SWAP2 SWAP1 POP JUMP JUMPDEST PUSH1 0x0 PUSH2 0x622 DUP3 PUSH2 0x5B7 JUMP JUMPDEST PUSH2 0x62C DUP2 DUP6 PUSH2 0x5C2 JUMP JUMPDEST SWAP4 POP PUSH2 0x63C DUP2 DUP6 PUSH1 0x20 DUP7 ADD PUSH2 0x5D3 JUMP JUMPDEST PUSH2 0x645 DUP2 PUSH2 0x606 JUMP JUMPDEST DUP5 ADD SWAP2 POP POP SWAP3 SWAP2 POP POP JUMP JUMPDEST PUSH1 0x0 PUSH1 0x20 DUP3 ADD SWAP1 POP DUP2 DUP2 SUB PUSH1 0x0 DUP4 ADD MSTORE PUSH2 0x66A DUP2 DUP5 PUSH2 0x617 JUMP JUMPDEST SWAP1 POP SWAP3 SWAP2 POP POP JUMP JUMPDEST PUSH1 0x0 PUSH1 0x40 MLOAD SWAP1 POP SWAP1 JUMP JUMPDEST PUSH1 0x0 DUP1 REVERT JUMPDEST PUSH1 0x0 DUP1 REVERT JUMPDEST PUSH1 0x0 DUP1 REVERT JUMPDEST PUSH1 0x0 DUP1 REVERT JUMPDEST PUSH32 0x4E487B7100000000000000000000000000000000000000000000000000000000 PUSH1 0x0 MSTORE PUSH1 0x41 PUSH1 0x4 MSTORE PUSH1 0x24 PUSH1 0x0 REVERT JUMPDEST PUSH2 0x6C8 DUP3 PUSH2 0x606 JUMP JUMPDEST DUP2 ADD DUP2 DUP2 LT PUSH8 0xFFFFFFFFFFFFFFFF DUP3 GT OR ISZERO PUSH2 0x6E7 JUMPI PUSH2 0x6E6 PUSH2 0x690 JUMP JUMPDEST JUMPDEST DUP1 PUSH1 0x40 MSTORE POP POP POP JUMP JUMPDEST PUSH1 0x0 PUSH2 0x6FA PUSH2 0x672 JUMP JUMPDEST SWAP1 POP PUSH2 0x706 DUP3 DUP3 PUSH2 0x6BF JUMP JUMPDEST SWAP2 SWAP1 POP JUMP JUMPDEST PUSH1 0x0 PUSH8 0xFFFFFFFFFFFFFFFF DUP3 GT ISZERO PUSH2 0x726 JUMPI PUSH2 0x725 PUSH2 0x690 JUMP JUMPDEST JUMPDEST PUSH2 0x72F DUP3 PUSH2 0x606 JUMP JUMPDEST SWAP1 POP PUSH1 0x20 DUP2 ADD SWAP1 POP SWAP2 SWAP1 POP JUMP JUMPDEST DUP3 DUP2 DUP4 CALLDATACOPY PUSH1 0x0 DUP4 DUP4 ADD MSTORE POP POP POP JUMP JUMPDEST PUSH1 0x0 PUSH2 0x75E PUSH2 0x759 DUP5 PUSH2 0x70B JUMP JUMPDEST PUSH2 0x6F0 JUMP JUMPDEST SWAP1 POP DUP3 DUP2 MSTORE PUSH1 0x20 DUP2 ADD DUP5 DUP5 DUP5 ADD GT ISZERO PUSH2 0x77A JUMPI PUSH2 0x779 PUSH2 0x68B JUMP JUMPDEST JUMPDEST PUSH2 0x785 DUP5 DUP3 DUP6 PUSH2 0x73C JUMP JUMPDEST POP SWAP4 SWAP3 POP POP POP JUMP JUMPDEST PUSH1 0x0 DUP3 PUSH1 0x1F DUP4 ADD SLT PUSH2 0x7A2 JUMPI PUSH2 0x7A1 PUSH2 0x686 JUMP JUMPDEST JUMPDEST DUP2 CALLDATALOAD PUSH2 0x7B2 DUP5 DUP3 PUSH1 0x20 DUP7 ADD PUSH2 0x74B JUMP JUMPDEST SWAP2 POP POP SWAP3 SWAP2 POP POP JUMP JUMPDEST PUSH1 0x0 PUSH1 0x20 DUP3 DUP5 SUB SLT ISZERO PUSH2 0x7D1 JUMPI PUSH2 0x7D0 PUSH2 0x67C JUMP JUMPDEST JUMPDEST PUSH1 0x0 DUP3 ADD CALLDATALOAD PUSH8 0xFFFFFFFFFFFFFFFF DUP2 GT ISZERO PUSH2 0x7EF JUMPI PUSH2 0x7EE PUSH2 0x681 JUMP JUMPDEST JUMPDEST PUSH2 0x7FB DUP5 DUP3 DUP6 ADD PUSH2 0x78D JUMP JUMPDEST SWAP2 POP POP SWAP3 SWAP2 POP POP JUMP JUMPDEST PUSH32 0x4E487B7100000000000000000000000000000000000000000000000000000000 PUSH1 0x0 MSTORE PUSH1 0x22 PUSH1 0x4 MSTORE PUSH1 0x24 PUSH1 0x0 REVERT JUMPDEST PUSH1 0x0 PUSH1 0x2 DUP3 DIV SWAP1 POP PUSH1 0x1 DUP3 AND DUP1 PUSH2 0x84B JUMPI PUSH1 0x7F DUP3 AND SWAP2 POP JUMPDEST PUSH1 0x20 DUP3 LT DUP2 EQ ISZERO PUSH2 0x85F JUMPI PUSH2 0x85E PUSH2 0x804 JUMP JUMPDEST JUMPDEST POP SWAP2 SWAP1 POP JUMP INVALID CHAINID PUSH2 0x726D KECCAK256 PUSH5 0x6174612072 PUSH6 0x717565737465 PUSH5 0x2120436865 PUSH4 0x6B207468 PUSH6 0x2049504E5320 PUSH12 0x657944657669636520646174 PUSH2 0x2072 PUSH6 0x717565737465 PUSH5 0x2120436865 PUSH4 0x6B207468 PUSH6 0x2049504E5320 PUSH12 0x6579A2646970667358221220 STATICCALL 0xBD 0x4D PUSH6 0xD1A6209B7A3E 0xDF 0xE9 0xDF 0xA7 LOG0 SWAP9 0xAB PUSH7 0x16444A468DD2D8 0xC5 0xB5 SLOAD SLT 0xD1 SWAP16 PUSH14 0x64736F6C63430008090033A26469 PUSH17 0x667358221220EE3ECFCCE8790D6450E0AE GASLIMIT 0xDA MSTORE8 0xEE PUSH3 0x5C5E46 0xC5 PUSH9 0x4815F4B4FE8795AC65 0xB2 BALANCE PUSH5 0x736F6C6343 STOP ADDMOD MULMOD STOP CALLER "},"methodIdentifiers":{"catalogIpnsKey()":"e20b937f","createFarm(string,string)":"e6aaf9cc","farmMenuListIpnsKey()":"0f5b7a92","farmMenuListSecretKey()":"8d18dded","setFarmMenuListIpnsKey(string)":"b71cc078","setFarmMenuListSecretKey(string)":"0fba35be","setIpnsKey(string)":"4e728665"}}}}}