{"contracts/HelloWorld.sol":{"HelloWorld":{"abi":[{"inputs":[{"internalType":"string","name":"initMessage","type":"string"}],"stateMutability":"nonpayable","type":"constructor"},{"anonymous":false,"inputs":[{"indexed":false,"internalType":"string","name":"oldStr","type":"string"},{"indexed":false,"internalType":"string","name":"newStr","type":"string"}],"name":"UpdatedMessages","type":"event"},{"inputs":[],"name":"message","outputs":[{"internalType":"string","name":"","type":"string"}],"stateMutability":"view","type":"function"},{"inputs":[{"internalType":"string","name":"newMessage","type":"string"}],"name":"update","outputs":[],"stateMutability":"nonpayable","type":"function"}],"evm":{"bytecode":{"linkReferences":{},"object":"60806040523480156200001157600080fd5b506040516200090d3803806200090d8339818101604052810190620000379190620002a4565b80600090805190602001906200004f92919062000057565b50506200035a565b828054620000659062000324565b90600052602060002090601f016020900481019282620000895760008555620000d5565b82601f10620000a457805160ff1916838001178555620000d5565b82800160010185558215620000d5579182015b82811115620000d4578251825591602001919060010190620000b7565b5b509050620000e49190620000e8565b5090565b5b8082111562000103576000816000905550600101620000e9565b5090565b6000604051905090565b600080fd5b600080fd5b600080fd5b600080fd5b6000601f19601f8301169050919050565b7f4e487b7100000000000000000000000000000000000000000000000000000000600052604160045260246000fd5b620001708262000125565b810181811067ffffffffffffffff8211171562000192576200019162000136565b5b80604052505050565b6000620001a762000107565b9050620001b5828262000165565b919050565b600067ffffffffffffffff821115620001d857620001d762000136565b5b620001e38262000125565b9050602081019050919050565b60005b8381101562000210578082015181840152602081019050620001f3565b8381111562000220576000848401525b50505050565b60006200023d6200023784620001ba565b6200019b565b9050828152602081018484840111156200025c576200025b62000120565b5b62000269848285620001f0565b509392505050565b600082601f8301126200028957620002886200011b565b5b81516200029b84826020860162000226565b91505092915050565b600060208284031215620002bd57620002bc62000111565b5b600082015167ffffffffffffffff811115620002de57620002dd62000116565b5b620002ec8482850162000271565b91505092915050565b7f4e487b7100000000000000000000000000000000000000000000000000000000600052602260045260246000fd5b600060028204905060018216806200033d57607f821691505b60208210811415620003545762000353620002f5565b5b50919050565b6105a3806200036a6000396000f3fe608060405234801561001057600080fd5b50600436106100365760003560e01c80633d7403a31461003b578063e21f37ce14610057575b600080fd5b610055600480360381019061005091906103e2565b610075565b005b61005f610157565b60405161006c91906104b3565b60405180910390f35b600080805461008390610504565b80601f01602080910402602001604051908101604052809291908181526020018280546100af90610504565b80156100fc5780601f106100d1576101008083540402835291602001916100fc565b820191906000526020600020905b8154815290600101906020018083116100df57829003601f168201915b5050505050905081600090805190602001906101199291906101e5565b507ff91d506d7335e83e4869a58cd98e0557cdcef6f507ba1e52725521305626d05b818360405161014b929190610536565b60405180910390a15050565b6000805461016490610504565b80601f016020809104026020016040519081016040528092919081815260200182805461019090610504565b80156101dd5780601f106101b2576101008083540402835291602001916101dd565b820191906000526020600020905b8154815290600101906020018083116101c057829003601f168201915b505050505081565b8280546101f190610504565b90600052602060002090601f016020900481019282610213576000855561025a565b82601f1061022c57805160ff191683800117855561025a565b8280016001018555821561025a579182015b8281111561025957825182559160200191906001019061023e565b5b509050610267919061026b565b5090565b5b8082111561028457600081600090555060010161026c565b5090565b6000604051905090565b600080fd5b600080fd5b600080fd5b600080fd5b6000601f19601f8301169050919050565b7f4e487b7100000000000000000000000000000000000000000000000000000000600052604160045260246000fd5b6102ef826102a6565b810181811067ffffffffffffffff8211171561030e5761030d6102b7565b5b80604052505050565b6000610321610288565b905061032d82826102e6565b919050565b600067ffffffffffffffff82111561034d5761034c6102b7565b5b610356826102a6565b9050602081019050919050565b82818337600083830152505050565b600061038561038084610332565b610317565b9050828152602081018484840111156103a1576103a06102a1565b5b6103ac848285610363565b509392505050565b600082601f8301126103c9576103c861029c565b5b81356103d9848260208601610372565b91505092915050565b6000602082840312156103f8576103f7610292565b5b600082013567ffffffffffffffff81111561041657610415610297565b5b610422848285016103b4565b91505092915050565b600081519050919050565b600082825260208201905092915050565b60005b8381101561046557808201518184015260208101905061044a565b83811115610474576000848401525b50505050565b60006104858261042b565b61048f8185610436565b935061049f818560208601610447565b6104a8816102a6565b840191505092915050565b600060208201905081810360008301526104cd818461047a565b905092915050565b7f4e487b7100000000000000000000000000000000000000000000000000000000600052602260045260246000fd5b6000600282049050600182168061051c57607f821691505b602082108114156105305761052f6104d5565b5b50919050565b60006040820190508181036000830152610550818561047a565b90508181036020830152610564818461047a565b9050939250505056fea2646970667358221220f6e175a0399e1cef5f7cb6c6ae512c9ff60543cbaa8785fc40a3561eca292d7364736f6c63430008090033","opcodes":"PUSH1 0x80 PUSH1 0x40 MSTORE CALLVALUE DUP1 ISZERO PUSH3 0x11 JUMPI PUSH1 0x0 DUP1 REVERT JUMPDEST POP PUSH1 0x40 MLOAD PUSH3 0x90D CODESIZE SUB DUP1 PUSH3 0x90D DUP4 CODECOPY DUP2 DUP2 ADD PUSH1 0x40 MSTORE DUP2 ADD SWAP1 PUSH3 0x37 SWAP2 SWAP1 PUSH3 0x2A4 JUMP JUMPDEST DUP1 PUSH1 0x0 SWAP1 DUP1 MLOAD SWAP1 PUSH1 0x20 ADD SWAP1 PUSH3 0x4F SWAP3 SWAP2 SWAP1 PUSH3 0x57 JUMP JUMPDEST POP POP PUSH3 0x35A JUMP JUMPDEST DUP3 DUP1 SLOAD PUSH3 0x65 SWAP1 PUSH3 0x324 JUMP JUMPDEST SWAP1 PUSH1 0x0 MSTORE PUSH1 0x20 PUSH1 0x0 KECCAK256 SWAP1 PUSH1 0x1F ADD PUSH1 0x20 SWAP1 DIV DUP2 ADD SWAP3 DUP3 PUSH3 0x89 JUMPI PUSH1 0x0 DUP6 SSTORE PUSH3 0xD5 JUMP JUMPDEST DUP3 PUSH1 0x1F LT PUSH3 0xA4 JUMPI DUP1 MLOAD PUSH1 0xFF NOT AND DUP4 DUP1 ADD OR DUP6 SSTORE PUSH3 0xD5 JUMP JUMPDEST DUP3 DUP1 ADD PUSH1 0x1 ADD DUP6 SSTORE DUP3 ISZERO PUSH3 0xD5 JUMPI SWAP2 DUP3 ADD JUMPDEST DUP3 DUP2 GT ISZERO PUSH3 0xD4 JUMPI DUP3 MLOAD DUP3 SSTORE SWAP2 PUSH1 0x20 ADD SWAP2 SWAP1 PUSH1 0x1 ADD SWAP1 PUSH3 0xB7 JUMP JUMPDEST JUMPDEST POP SWAP1 POP PUSH3 0xE4 SWAP2 SWAP1 PUSH3 0xE8 JUMP JUMPDEST POP SWAP1 JUMP JUMPDEST JUMPDEST DUP1 DUP3 GT ISZERO PUSH3 0x103 JUMPI PUSH1 0x0 DUP2 PUSH1 0x0 SWAP1 SSTORE POP PUSH1 0x1 ADD PUSH3 0xE9 JUMP JUMPDEST POP SWAP1 JUMP JUMPDEST PUSH1 0x0 PUSH1 0x40 MLOAD SWAP1 POP SWAP1 JUMP JUMPDEST PUSH1 0x0 DUP1 REVERT JUMPDEST PUSH1 0x0 DUP1 REVERT JUMPDEST PUSH1 0x0 DUP1 REVERT JUMPDEST PUSH1 0x0 DUP1 REVERT JUMPDEST PUSH1 0x0 PUSH1 0x1F NOT PUSH1 0x1F DUP4 ADD AND SWAP1 POP SWAP2 SWAP1 POP JUMP JUMPDEST PUSH32 0x4E487B7100000000000000000000000000000000000000000000000000000000 PUSH1 0x0 MSTORE PUSH1 0x41 PUSH1 0x4 MSTORE PUSH1 0x24 PUSH1 0x0 REVERT JUMPDEST PUSH3 0x170 DUP3 PUSH3 0x125 JUMP JUMPDEST DUP2 ADD DUP2 DUP2 LT PUSH8 0xFFFFFFFFFFFFFFFF DUP3 GT OR ISZERO PUSH3 0x192 JUMPI PUSH3 0x191 PUSH3 0x136 JUMP JUMPDEST JUMPDEST DUP1 PUSH1 0x40 MSTORE POP POP POP JUMP JUMPDEST PUSH1 0x0 PUSH3 0x1A7 PUSH3 0x107 JUMP JUMPDEST SWAP1 POP PUSH3 0x1B5 DUP3 DUP3 PUSH3 0x165 JUMP JUMPDEST SWAP2 SWAP1 POP JUMP JUMPDEST PUSH1 0x0 PUSH8 0xFFFFFFFFFFFFFFFF DUP3 GT ISZERO PUSH3 0x1D8 JUMPI PUSH3 0x1D7 PUSH3 0x136 JUMP JUMPDEST JUMPDEST PUSH3 0x1E3 DUP3 PUSH3 0x125 JUMP JUMPDEST SWAP1 POP PUSH1 0x20 DUP2 ADD SWAP1 POP SWAP2 SWAP1 POP JUMP JUMPDEST PUSH1 0x0 JUMPDEST DUP4 DUP2 LT ISZERO PUSH3 0x210 JUMPI DUP1 DUP3 ADD MLOAD DUP2 DUP5 ADD MSTORE PUSH1 0x20 DUP2 ADD SWAP1 POP PUSH3 0x1F3 JUMP JUMPDEST DUP4 DUP2 GT ISZERO PUSH3 0x220 JUMPI PUSH1 0x0 DUP5 DUP5 ADD MSTORE JUMPDEST POP POP POP POP JUMP JUMPDEST PUSH1 0x0 PUSH3 0x23D PUSH3 0x237 DUP5 PUSH3 0x1BA JUMP JUMPDEST PUSH3 0x19B JUMP JUMPDEST SWAP1 POP DUP3 DUP2 MSTORE PUSH1 0x20 DUP2 ADD DUP5 DUP5 DUP5 ADD GT ISZERO PUSH3 0x25C JUMPI PUSH3 0x25B PUSH3 0x120 JUMP JUMPDEST JUMPDEST PUSH3 0x269 DUP5 DUP3 DUP6 PUSH3 0x1F0 JUMP JUMPDEST POP SWAP4 SWAP3 POP POP POP JUMP JUMPDEST PUSH1 0x0 DUP3 PUSH1 0x1F DUP4 ADD SLT PUSH3 0x289 JUMPI PUSH3 0x288 PUSH3 0x11B JUMP JUMPDEST JUMPDEST DUP2 MLOAD PUSH3 0x29B DUP5 DUP3 PUSH1 0x20 DUP7 ADD PUSH3 0x226 JUMP JUMPDEST SWAP2 POP POP SWAP3 SWAP2 POP POP JUMP JUMPDEST PUSH1 0x0 PUSH1 0x20 DUP3 DUP5 SUB SLT ISZERO PUSH3 0x2BD JUMPI PUSH3 0x2BC PUSH3 0x111 JUMP JUMPDEST JUMPDEST PUSH1 0x0 DUP3 ADD MLOAD PUSH8 0xFFFFFFFFFFFFFFFF DUP2 GT ISZERO PUSH3 0x2DE JUMPI PUSH3 0x2DD PUSH3 0x116 JUMP JUMPDEST JUMPDEST PUSH3 0x2EC DUP5 DUP3 DUP6 ADD PUSH3 0x271 JUMP JUMPDEST SWAP2 POP POP SWAP3 SWAP2 POP POP JUMP JUMPDEST PUSH32 0x4E487B7100000000000000000000000000000000000000000000000000000000 PUSH1 0x0 MSTORE PUSH1 0x22 PUSH1 0x4 MSTORE PUSH1 0x24 PUSH1 0x0 REVERT JUMPDEST PUSH1 0x0 PUSH1 0x2 DUP3 DIV SWAP1 POP PUSH1 0x1 DUP3 AND DUP1 PUSH3 0x33D JUMPI PUSH1 0x7F DUP3 AND SWAP2 POP JUMPDEST PUSH1 0x20 DUP3 LT DUP2 EQ ISZERO PUSH3 0x354 JUMPI PUSH3 0x353 PUSH3 0x2F5 JUMP JUMPDEST JUMPDEST POP SWAP2 SWAP1 POP JUMP JUMPDEST PUSH2 0x5A3 DUP1 PUSH3 0x36A PUSH1 0x0 CODECOPY PUSH1 0x0 RETURN INVALID PUSH1 0x80 PUSH1 0x40 MSTORE CALLVALUE DUP1 ISZERO PUSH2 0x10 JUMPI PUSH1 0x0 DUP1 REVERT JUMPDEST POP PUSH1 0x4 CALLDATASIZE LT PUSH2 0x36 JUMPI PUSH1 0x0 CALLDATALOAD PUSH1 0xE0 SHR DUP1 PUSH4 0x3D7403A3 EQ PUSH2 0x3B JUMPI DUP1 PUSH4 0xE21F37CE EQ PUSH2 0x57 JUMPI JUMPDEST PUSH1 0x0 DUP1 REVERT JUMPDEST PUSH2 0x55 PUSH1 0x4 DUP1 CALLDATASIZE SUB DUP2 ADD SWAP1 PUSH2 0x50 SWAP2 SWAP1 PUSH2 0x3E2 JUMP JUMPDEST PUSH2 0x75 JUMP JUMPDEST STOP JUMPDEST PUSH2 0x5F PUSH2 0x157 JUMP JUMPDEST PUSH1 0x40 MLOAD PUSH2 0x6C SWAP2 SWAP1 PUSH2 0x4B3 JUMP JUMPDEST PUSH1 0x40 MLOAD DUP1 SWAP2 SUB SWAP1 RETURN JUMPDEST PUSH1 0x0 DUP1 DUP1 SLOAD PUSH2 0x83 SWAP1 PUSH2 0x504 JUMP JUMPDEST DUP1 PUSH1 0x1F ADD PUSH1 0x20 DUP1 SWAP2 DIV MUL PUSH1 0x20 ADD PUSH1 0x40 MLOAD SWAP1 DUP2 ADD PUSH1 0x40 MSTORE DUP1 SWAP3 SWAP2 SWAP1 DUP2 DUP2 MSTORE PUSH1 0x20 ADD DUP3 DUP1 SLOAD PUSH2 0xAF SWAP1 PUSH2 0x504 JUMP JUMPDEST DUP1 ISZERO PUSH2 0xFC JUMPI DUP1 PUSH1 0x1F LT PUSH2 0xD1 JUMPI PUSH2 0x100 DUP1 DUP4 SLOAD DIV MUL DUP4 MSTORE SWAP2 PUSH1 0x20 ADD SWAP2 PUSH2 0xFC JUMP JUMPDEST DUP3 ADD SWAP2 SWAP1 PUSH1 0x0 MSTORE PUSH1 0x20 PUSH1 0x0 KECCAK256 SWAP1 JUMPDEST DUP2 SLOAD DUP2 MSTORE SWAP1 PUSH1 0x1 ADD SWAP1 PUSH1 0x20 ADD DUP1 DUP4 GT PUSH2 0xDF JUMPI DUP3 SWAP1 SUB PUSH1 0x1F AND DUP3 ADD SWAP2 JUMPDEST POP POP POP POP POP SWAP1 POP DUP2 PUSH1 0x0 SWAP1 DUP1 MLOAD SWAP1 PUSH1 0x20 ADD SWAP1 PUSH2 0x119 SWAP3 SWAP2 SWAP1 PUSH2 0x1E5 JUMP JUMPDEST POP PUSH32 0xF91D506D7335E83E4869A58CD98E0557CDCEF6F507BA1E52725521305626D05B DUP2 DUP4 PUSH1 0x40 MLOAD PUSH2 0x14B SWAP3 SWAP2 SWAP1 PUSH2 0x536 JUMP JUMPDEST PUSH1 0x40 MLOAD DUP1 SWAP2 SUB SWAP1 LOG1 POP POP JUMP JUMPDEST PUSH1 0x0 DUP1 SLOAD PUSH2 0x164 SWAP1 PUSH2 0x504 JUMP JUMPDEST DUP1 PUSH1 0x1F ADD PUSH1 0x20 DUP1 SWAP2 DIV MUL PUSH1 0x20 ADD PUSH1 0x40 MLOAD SWAP1 DUP2 ADD PUSH1 0x40 MSTORE DUP1 SWAP3 SWAP2 SWAP1 DUP2 DUP2 MSTORE PUSH1 0x20 ADD DUP3 DUP1 SLOAD PUSH2 0x190 SWAP1 PUSH2 0x504 JUMP JUMPDEST DUP1 ISZERO PUSH2 0x1DD JUMPI DUP1 PUSH1 0x1F LT PUSH2 0x1B2 JUMPI PUSH2 0x100 DUP1 DUP4 SLOAD DIV MUL DUP4 MSTORE SWAP2 PUSH1 0x20 ADD SWAP2 PUSH2 0x1DD JUMP JUMPDEST DUP3 ADD SWAP2 SWAP1 PUSH1 0x0 MSTORE PUSH1 0x20 PUSH1 0x0 KECCAK256 SWAP1 JUMPDEST DUP2 SLOAD DUP2 MSTORE SWAP1 PUSH1 0x1 ADD SWAP1 PUSH1 0x20 ADD DUP1 DUP4 GT PUSH2 0x1C0 JUMPI DUP3 SWAP1 SUB PUSH1 0x1F AND DUP3 ADD SWAP2 JUMPDEST POP POP POP POP POP DUP2 JUMP JUMPDEST DUP3 DUP1 SLOAD PUSH2 0x1F1 SWAP1 PUSH2 0x504 JUMP JUMPDEST SWAP1 PUSH1 0x0 MSTORE PUSH1 0x20 PUSH1 0x0 KECCAK256 SWAP1 PUSH1 0x1F ADD PUSH1 0x20 SWAP1 DIV DUP2 ADD SWAP3 DUP3 PUSH2 0x213 JUMPI PUSH1 0x0 DUP6 SSTORE PUSH2 0x25A JUMP JUMPDEST DUP3 PUSH1 0x1F LT PUSH2 0x22C JUMPI DUP1 MLOAD PUSH1 0xFF NOT AND DUP4 DUP1 ADD OR DUP6 SSTORE PUSH2 0x25A JUMP JUMPDEST DUP3 DUP1 ADD PUSH1 0x1 ADD DUP6 SSTORE DUP3 ISZERO PUSH2 0x25A JUMPI SWAP2 DUP3 ADD JUMPDEST DUP3 DUP2 GT ISZERO PUSH2 0x259 JUMPI DUP3 MLOAD DUP3 SSTORE SWAP2 PUSH1 0x20 ADD SWAP2 SWAP1 PUSH1 0x1 ADD SWAP1 PUSH2 0x23E JUMP JUMPDEST JUMPDEST POP SWAP1 POP PUSH2 0x267 SWAP2 SWAP1 PUSH2 0x26B JUMP JUMPDEST POP SWAP1 JUMP JUMPDEST JUMPDEST DUP1 DUP3 GT ISZERO PUSH2 0x284 JUMPI PUSH1 0x0 DUP2 PUSH1 0x0 SWAP1 SSTORE POP PUSH1 0x1 ADD PUSH2 0x26C JUMP JUMPDEST POP SWAP1 JUMP JUMPDEST PUSH1 0x0 PUSH1 0x40 MLOAD SWAP1 POP SWAP1 JUMP JUMPDEST PUSH1 0x0 DUP1 REVERT JUMPDEST PUSH1 0x0 DUP1 REVERT JUMPDEST PUSH1 0x0 DUP1 REVERT JUMPDEST PUSH1 0x0 DUP1 REVERT JUMPDEST PUSH1 0x0 PUSH1 0x1F NOT PUSH1 0x1F DUP4 ADD AND SWAP1 POP SWAP2 SWAP1 POP JUMP JUMPDEST PUSH32 0x4E487B7100000000000000000000000000000000000000000000000000000000 PUSH1 0x0 MSTORE PUSH1 0x41 PUSH1 0x4 MSTORE PUSH1 0x24 PUSH1 0x0 REVERT JUMPDEST PUSH2 0x2EF DUP3 PUSH2 0x2A6 JUMP JUMPDEST DUP2 ADD DUP2 DUP2 LT PUSH8 0xFFFFFFFFFFFFFFFF DUP3 GT OR ISZERO PUSH2 0x30E JUMPI PUSH2 0x30D PUSH2 0x2B7 JUMP JUMPDEST JUMPDEST DUP1 PUSH1 0x40 MSTORE POP POP POP JUMP JUMPDEST PUSH1 0x0 PUSH2 0x321 PUSH2 0x288 JUMP JUMPDEST SWAP1 POP PUSH2 0x32D DUP3 DUP3 PUSH2 0x2E6 JUMP JUMPDEST SWAP2 SWAP1 POP JUMP JUMPDEST PUSH1 0x0 PUSH8 0xFFFFFFFFFFFFFFFF DUP3 GT ISZERO PUSH2 0x34D JUMPI PUSH2 0x34C PUSH2 0x2B7 JUMP JUMPDEST JUMPDEST PUSH2 0x356 DUP3 PUSH2 0x2A6 JUMP JUMPDEST SWAP1 POP PUSH1 0x20 DUP2 ADD SWAP1 POP SWAP2 SWAP1 POP JUMP JUMPDEST DUP3 DUP2 DUP4 CALLDATACOPY PUSH1 0x0 DUP4 DUP4 ADD MSTORE POP POP POP JUMP JUMPDEST PUSH1 0x0 PUSH2 0x385 PUSH2 0x380 DUP5 PUSH2 0x332 JUMP JUMPDEST PUSH2 0x317 JUMP JUMPDEST SWAP1 POP DUP3 DUP2 MSTORE PUSH1 0x20 DUP2 ADD DUP5 DUP5 DUP5 ADD GT ISZERO PUSH2 0x3A1 JUMPI PUSH2 0x3A0 PUSH2 0x2A1 JUMP JUMPDEST JUMPDEST PUSH2 0x3AC DUP5 DUP3 DUP6 PUSH2 0x363 JUMP JUMPDEST POP SWAP4 SWAP3 POP POP POP JUMP JUMPDEST PUSH1 0x0 DUP3 PUSH1 0x1F DUP4 ADD SLT PUSH2 0x3C9 JUMPI PUSH2 0x3C8 PUSH2 0x29C JUMP JUMPDEST JUMPDEST DUP2 CALLDATALOAD PUSH2 0x3D9 DUP5 DUP3 PUSH1 0x20 DUP7 ADD PUSH2 0x372 JUMP JUMPDEST SWAP2 POP POP SWAP3 SWAP2 POP POP JUMP JUMPDEST PUSH1 0x0 PUSH1 0x20 DUP3 DUP5 SUB SLT ISZERO PUSH2 0x3F8 JUMPI PUSH2 0x3F7 PUSH2 0x292 JUMP JUMPDEST JUMPDEST PUSH1 0x0 DUP3 ADD CALLDATALOAD PUSH8 0xFFFFFFFFFFFFFFFF DUP2 GT ISZERO PUSH2 0x416 JUMPI PUSH2 0x415 PUSH2 0x297 JUMP JUMPDEST JUMPDEST PUSH2 0x422 DUP5 DUP3 DUP6 ADD PUSH2 0x3B4 JUMP JUMPDEST SWAP2 POP POP SWAP3 SWAP2 POP POP JUMP JUMPDEST PUSH1 0x0 DUP2 MLOAD SWAP1 POP SWAP2 SWAP1 POP JUMP JUMPDEST PUSH1 0x0 DUP3 DUP3 MSTORE PUSH1 0x20 DUP3 ADD SWAP1 POP SWAP3 SWAP2 POP POP JUMP JUMPDEST PUSH1 0x0 JUMPDEST DUP4 DUP2 LT ISZERO PUSH2 0x465 JUMPI DUP1 DUP3 ADD MLOAD DUP2 DUP5 ADD MSTORE PUSH1 0x20 DUP2 ADD SWAP1 POP PUSH2 0x44A JUMP JUMPDEST DUP4 DUP2 GT ISZERO PUSH2 0x474 JUMPI PUSH1 0x0 DUP5 DUP5 ADD MSTORE JUMPDEST POP POP POP POP JUMP JUMPDEST PUSH1 0x0 PUSH2 0x485 DUP3 PUSH2 0x42B JUMP JUMPDEST PUSH2 0x48F DUP2 DUP6 PUSH2 0x436 JUMP JUMPDEST SWAP4 POP PUSH2 0x49F DUP2 DUP6 PUSH1 0x20 DUP7 ADD PUSH2 0x447 JUMP JUMPDEST PUSH2 0x4A8 DUP2 PUSH2 0x2A6 JUMP JUMPDEST DUP5 ADD SWAP2 POP POP SWAP3 SWAP2 POP POP JUMP JUMPDEST PUSH1 0x0 PUSH1 0x20 DUP3 ADD SWAP1 POP DUP2 DUP2 SUB PUSH1 0x0 DUP4 ADD MSTORE PUSH2 0x4CD DUP2 DUP5 PUSH2 0x47A JUMP JUMPDEST SWAP1 POP SWAP3 SWAP2 POP POP JUMP JUMPDEST PUSH32 0x4E487B7100000000000000000000000000000000000000000000000000000000 PUSH1 0x0 MSTORE PUSH1 0x22 PUSH1 0x4 MSTORE PUSH1 0x24 PUSH1 0x0 REVERT JUMPDEST PUSH1 0x0 PUSH1 0x2 DUP3 DIV SWAP1 POP PUSH1 0x1 DUP3 AND DUP1 PUSH2 0x51C JUMPI PUSH1 0x7F DUP3 AND SWAP2 POP JUMPDEST PUSH1 0x20 DUP3 LT DUP2 EQ ISZERO PUSH2 0x530 JUMPI PUSH2 0x52F PUSH2 0x4D5 JUMP JUMPDEST JUMPDEST POP SWAP2 SWAP1 POP JUMP JUMPDEST PUSH1 0x0 PUSH1 0x40 DUP3 ADD SWAP1 POP DUP2 DUP2 SUB PUSH1 0x0 DUP4 ADD MSTORE PUSH2 0x550 DUP2 DUP6 PUSH2 0x47A JUMP JUMPDEST SWAP1 POP DUP2 DUP2 SUB PUSH1 0x20 DUP4 ADD MSTORE PUSH2 0x564 DUP2 DUP5 PUSH2 0x47A JUMP JUMPDEST SWAP1 POP SWAP4 SWAP3 POP POP POP JUMP INVALID LOG2 PUSH5 0x6970667358 0x22 SLT KECCAK256 0xF6 0xE1 PUSH22 0xA0399E1CEF5F7CB6C6AE512C9FF60543CBAA8785FC40 LOG3 JUMP 0x1E 0xCA 0x29 0x2D PUSH20 0x64736F6C63430008090033000000000000000000 "},"methodIdentifiers":{"message()":"e21f37ce","update(string)":"3d7403a3"}}}}}