{"contracts/Gateway_Catalog.sol":{"GatewayCatalog":{"abi":[{"inputs":[],"stateMutability":"nonpayable","type":"constructor"},{"inputs":[],"name":"catalogIpnsKey","outputs":[{"internalType":"string","name":"","type":"string"}],"stateMutability":"view","type":"function"},{"inputs":[],"name":"getCatalogIpnsKey","outputs":[{"internalType":"string","name":"","type":"string"}],"stateMutability":"view","type":"function"},{"inputs":[],"name":"getOutputIpnsKey","outputs":[{"internalType":"string","name":"","type":"string"}],"stateMutability":"view","type":"function"},{"inputs":[],"name":"getOutputIpnsPrivateKey","outputs":[{"internalType":"string","name":"","type":"string"}],"stateMutability":"view","type":"function"},{"inputs":[],"name":"getPrivateKeyCid","outputs":[{"internalType":"string","name":"","type":"string"}],"stateMutability":"view","type":"function"},{"inputs":[],"name":"outputIpnsKey","outputs":[{"internalType":"string","name":"","type":"string"}],"stateMutability":"view","type":"function"},{"inputs":[],"name":"outputIpnsPrivateKey","outputs":[{"internalType":"string","name":"","type":"string"}],"stateMutability":"view","type":"function"},{"inputs":[],"name":"privateKeyCid","outputs":[{"internalType":"string","name":"","type":"string"}],"stateMutability":"view","type":"function"},{"inputs":[{"internalType":"string","name":"_caralog_ipns_key","type":"string"}],"name":"setCatalogIpnsKey","outputs":[],"stateMutability":"nonpayable","type":"function"},{"inputs":[{"internalType":"string","name":"_output_ipns_key","type":"string"}],"name":"setOuputIpnsKey","outputs":[],"stateMutability":"nonpayable","type":"function"},{"inputs":[{"internalType":"string","name":"_output_ipns_private_key","type":"string"}],"name":"setOutputIpnsPrivateKey","outputs":[],"stateMutability":"nonpayable","type":"function"},{"inputs":[{"internalType":"string","name":"_sk_cid","type":"string"}],"name":"setPrivateKeyCid","outputs":[],"stateMutability":"nonpayable","type":"function"}],"evm":{"bytecode":{"linkReferences":{},"object":"60806040523480156200001157600080fd5b506040518060400160405280600181526020017f3000000000000000000000000000000000000000000000000000000000000000815250600090805190602001906200005f92919062000150565b506040518060400160405280600181526020017f300000000000000000000000000000000000000000000000000000000000000081525060019080519060200190620000ad92919062000150565b506040518060400160405280600181526020017f300000000000000000000000000000000000000000000000000000000000000081525060029080519060200190620000fb92919062000150565b506040518060400160405280600181526020017f3000000000000000000000000000000000000000000000000000000000000000815250600390805190602001906200014992919062000150565b5062000265565b8280546200015e906200022f565b90600052602060002090601f016020900481019282620001825760008555620001ce565b82601f106200019d57805160ff1916838001178555620001ce565b82800160010185558215620001ce579182015b82811115620001cd578251825591602001919060010190620001b0565b5b509050620001dd9190620001e1565b5090565b5b80821115620001fc576000816000905550600101620001e2565b5090565b7f4e487b7100000000000000000000000000000000000000000000000000000000600052602260045260246000fd5b600060028204905060018216806200024857607f821691505b602082108114156200025f576200025e62000200565b5b50919050565b610a8880620002756000396000f3fe608060405234801561001057600080fd5b50600436106100b45760003560e01c80636bbaf770116100715780636bbaf7701461016b57806379ad054f14610189578063ad5c8576146101a5578063b624d9c4146101c1578063e20b937f146101df578063f378da5d146101fd576100b4565b806317d54020146100b95780632b7853ef146100d557806334b04f0f146100f3578063462659ee146101115780634d6fd0801461012f5780636883fb4d1461014d575b600080fd5b6100d360048036038101906100ce91906108fe565b610219565b005b6100dd610233565b6040516100ea91906109cf565b60405180910390f35b6100fb6102c1565b60405161010891906109cf565b60405180910390f35b610119610353565b60405161012691906109cf565b60405180910390f35b6101376103e1565b60405161014491906109cf565b60405180910390f35b610155610473565b60405161016291906109cf565b60405180910390f35b610173610505565b60405161018091906109cf565b60405180910390f35b6101a3600480360381019061019e91906108fe565b610593565b005b6101bf60048036038101906101ba91906108fe565b6105ad565b005b6101c96105c7565b6040516101d691906109cf565b60405180910390f35b6101e7610659565b6040516101f491906109cf565b60405180910390f35b610217600480360381019061021291906108fe565b6106e7565b005b806002908051906020019061022f929190610701565b5050565b6001805461024090610a20565b80601f016020809104026020016040519081016040528092919081815260200182805461026c90610a20565b80156102b95780601f1061028e576101008083540402835291602001916102b9565b820191906000526020600020905b81548152906001019060200180831161029c57829003601f168201915b505050505081565b6060600080546102d090610a20565b80601f01602080910402602001604051908101604052809291908181526020018280546102fc90610a20565b80156103495780601f1061031e57610100808354040283529160200191610349565b820191906000526020600020905b81548152906001019060200180831161032c57829003601f168201915b5050505050905090565b6003805461036090610a20565b80601f016020809104026020016040519081016040528092919081815260200182805461038c90610a20565b80156103d95780601f106103ae576101008083540402835291602001916103d9565b820191906000526020600020905b8154815290600101906020018083116103bc57829003601f168201915b505050505081565b6060600180546103f090610a20565b80601f016020809104026020016040519081016040528092919081815260200182805461041c90610a20565b80156104695780601f1061043e57610100808354040283529160200191610469565b820191906000526020600020905b81548152906001019060200180831161044c57829003601f168201915b5050505050905090565b60606002805461048290610a20565b80601f01602080910402602001604051908101604052809291908181526020018280546104ae90610a20565b80156104fb5780601f106104d0576101008083540402835291602001916104fb565b820191906000526020600020905b8154815290600101906020018083116104de57829003601f168201915b5050505050905090565b6002805461051290610a20565b80601f016020809104026020016040519081016040528092919081815260200182805461053e90610a20565b801561058b5780601f106105605761010080835404028352916020019161058b565b820191906000526020600020905b81548152906001019060200180831161056e57829003601f168201915b505050505081565b80600090805190602001906105a9929190610701565b5050565b80600190805190602001906105c3929190610701565b5050565b6060600380546105d690610a20565b80601f016020809104026020016040519081016040528092919081815260200182805461060290610a20565b801561064f5780601f106106245761010080835404028352916020019161064f565b820191906000526020600020905b81548152906001019060200180831161063257829003601f168201915b5050505050905090565b6000805461066690610a20565b80601f016020809104026020016040519081016040528092919081815260200182805461069290610a20565b80156106df5780601f106106b4576101008083540402835291602001916106df565b820191906000526020600020905b8154815290600101906020018083116106c257829003601f168201915b505050505081565b80600390805190602001906106fd929190610701565b5050565b82805461070d90610a20565b90600052602060002090601f01602090048101928261072f5760008555610776565b82601f1061074857805160ff1916838001178555610776565b82800160010185558215610776579182015b8281111561077557825182559160200191906001019061075a565b5b5090506107839190610787565b5090565b5b808211156107a0576000816000905550600101610788565b5090565b6000604051905090565b600080fd5b600080fd5b600080fd5b600080fd5b6000601f19601f8301169050919050565b7f4e487b7100000000000000000000000000000000000000000000000000000000600052604160045260246000fd5b61080b826107c2565b810181811067ffffffffffffffff8211171561082a576108296107d3565b5b80604052505050565b600061083d6107a4565b90506108498282610802565b919050565b600067ffffffffffffffff821115610869576108686107d3565b5b610872826107c2565b9050602081019050919050565b82818337600083830152505050565b60006108a161089c8461084e565b610833565b9050828152602081018484840111156108bd576108bc6107bd565b5b6108c884828561087f565b509392505050565b600082601f8301126108e5576108e46107b8565b5b81356108f584826020860161088e565b91505092915050565b600060208284031215610914576109136107ae565b5b600082013567ffffffffffffffff811115610932576109316107b3565b5b61093e848285016108d0565b91505092915050565b600081519050919050565b600082825260208201905092915050565b60005b83811015610981578082015181840152602081019050610966565b83811115610990576000848401525b50505050565b60006109a182610947565b6109ab8185610952565b93506109bb818560208601610963565b6109c4816107c2565b840191505092915050565b600060208201905081810360008301526109e98184610996565b905092915050565b7f4e487b7100000000000000000000000000000000000000000000000000000000600052602260045260246000fd5b60006002820490506001821680610a3857607f821691505b60208210811415610a4c57610a4b6109f1565b5b5091905056fea2646970667358221220b9883a77c338b6e9d2c77b611a66188aa5996efbcf8f5aabccfcc0211e5889f264736f6c63430008090033","opcodes":"PUSH1 0x80 PUSH1 0x40 MSTORE CALLVALUE DUP1 ISZERO PUSH3 0x11 JUMPI PUSH1 0x0 DUP1 REVERT JUMPDEST POP PUSH1 0x40 MLOAD DUP1 PUSH1 0x40 ADD PUSH1 0x40 MSTORE DUP1 PUSH1 0x1 DUP2 MSTORE PUSH1 0x20 ADD PUSH32 0x3000000000000000000000000000000000000000000000000000000000000000 DUP2 MSTORE POP PUSH1 0x0 SWAP1 DUP1 MLOAD SWAP1 PUSH1 0x20 ADD SWAP1 PUSH3 0x5F SWAP3 SWAP2 SWAP1 PUSH3 0x150 JUMP JUMPDEST POP PUSH1 0x40 MLOAD DUP1 PUSH1 0x40 ADD PUSH1 0x40 MSTORE DUP1 PUSH1 0x1 DUP2 MSTORE PUSH1 0x20 ADD PUSH32 0x3000000000000000000000000000000000000000000000000000000000000000 DUP2 MSTORE POP PUSH1 0x1 SWAP1 DUP1 MLOAD SWAP1 PUSH1 0x20 ADD SWAP1 PUSH3 0xAD SWAP3 SWAP2 SWAP1 PUSH3 0x150 JUMP JUMPDEST POP PUSH1 0x40 MLOAD DUP1 PUSH1 0x40 ADD PUSH1 0x40 MSTORE DUP1 PUSH1 0x1 DUP2 MSTORE PUSH1 0x20 ADD PUSH32 0x3000000000000000000000000000000000000000000000000000000000000000 DUP2 MSTORE POP PUSH1 0x2 SWAP1 DUP1 MLOAD SWAP1 PUSH1 0x20 ADD SWAP1 PUSH3 0xFB SWAP3 SWAP2 SWAP1 PUSH3 0x150 JUMP JUMPDEST POP PUSH1 0x40 MLOAD DUP1 PUSH1 0x40 ADD PUSH1 0x40 MSTORE DUP1 PUSH1 0x1 DUP2 MSTORE PUSH1 0x20 ADD PUSH32 0x3000000000000000000000000000000000000000000000000000000000000000 DUP2 MSTORE POP PUSH1 0x3 SWAP1 DUP1 MLOAD SWAP1 PUSH1 0x20 ADD SWAP1 PUSH3 0x149 SWAP3 SWAP2 SWAP1 PUSH3 0x150 JUMP JUMPDEST POP PUSH3 0x265 JUMP JUMPDEST DUP3 DUP1 SLOAD PUSH3 0x15E SWAP1 PUSH3 0x22F JUMP JUMPDEST SWAP1 PUSH1 0x0 MSTORE PUSH1 0x20 PUSH1 0x0 KECCAK256 SWAP1 PUSH1 0x1F ADD PUSH1 0x20 SWAP1 DIV DUP2 ADD SWAP3 DUP3 PUSH3 0x182 JUMPI PUSH1 0x0 DUP6 SSTORE PUSH3 0x1CE JUMP JUMPDEST DUP3 PUSH1 0x1F LT PUSH3 0x19D JUMPI DUP1 MLOAD PUSH1 0xFF NOT AND DUP4 DUP1 ADD OR DUP6 SSTORE PUSH3 0x1CE JUMP JUMPDEST DUP3 DUP1 ADD PUSH1 0x1 ADD DUP6 SSTORE DUP3 ISZERO PUSH3 0x1CE JUMPI SWAP2 DUP3 ADD JUMPDEST DUP3 DUP2 GT ISZERO PUSH3 0x1CD JUMPI DUP3 MLOAD DUP3 SSTORE SWAP2 PUSH1 0x20 ADD SWAP2 SWAP1 PUSH1 0x1 ADD SWAP1 PUSH3 0x1B0 JUMP JUMPDEST JUMPDEST POP SWAP1 POP PUSH3 0x1DD SWAP2 SWAP1 PUSH3 0x1E1 JUMP JUMPDEST POP SWAP1 JUMP JUMPDEST JUMPDEST DUP1 DUP3 GT ISZERO PUSH3 0x1FC JUMPI PUSH1 0x0 DUP2 PUSH1 0x0 SWAP1 SSTORE POP PUSH1 0x1 ADD PUSH3 0x1E2 JUMP JUMPDEST POP SWAP1 JUMP JUMPDEST PUSH32 0x4E487B7100000000000000000000000000000000000000000000000000000000 PUSH1 0x0 MSTORE PUSH1 0x22 PUSH1 0x4 MSTORE PUSH1 0x24 PUSH1 0x0 REVERT JUMPDEST PUSH1 0x0 PUSH1 0x2 DUP3 DIV SWAP1 POP PUSH1 0x1 DUP3 AND DUP1 PUSH3 0x248 JUMPI PUSH1 0x7F DUP3 AND SWAP2 POP JUMPDEST PUSH1 0x20 DUP3 LT DUP2 EQ ISZERO PUSH3 0x25F JUMPI PUSH3 0x25E PUSH3 0x200 JUMP JUMPDEST JUMPDEST POP SWAP2 SWAP1 POP JUMP JUMPDEST PUSH2 0xA88 DUP1 PUSH3 0x275 PUSH1 0x0 CODECOPY PUSH1 0x0 RETURN INVALID PUSH1 0x80 PUSH1 0x40 MSTORE CALLVALUE DUP1 ISZERO PUSH2 0x10 JUMPI PUSH1 0x0 DUP1 REVERT JUMPDEST POP PUSH1 0x4 CALLDATASIZE LT PUSH2 0xB4 JUMPI PUSH1 0x0 CALLDATALOAD PUSH1 0xE0 SHR DUP1 PUSH4 0x6BBAF770 GT PUSH2 0x71 JUMPI DUP1 PUSH4 0x6BBAF770 EQ PUSH2 0x16B JUMPI DUP1 PUSH4 0x79AD054F EQ PUSH2 0x189 JUMPI DUP1 PUSH4 0xAD5C8576 EQ PUSH2 0x1A5 JUMPI DUP1 PUSH4 0xB624D9C4 EQ PUSH2 0x1C1 JUMPI DUP1 PUSH4 0xE20B937F EQ PUSH2 0x1DF JUMPI DUP1 PUSH4 0xF378DA5D EQ PUSH2 0x1FD JUMPI PUSH2 0xB4 JUMP JUMPDEST DUP1 PUSH4 0x17D54020 EQ PUSH2 0xB9 JUMPI DUP1 PUSH4 0x2B7853EF EQ PUSH2 0xD5 JUMPI DUP1 PUSH4 0x34B04F0F EQ PUSH2 0xF3 JUMPI DUP1 PUSH4 0x462659EE EQ PUSH2 0x111 JUMPI DUP1 PUSH4 0x4D6FD080 EQ PUSH2 0x12F JUMPI DUP1 PUSH4 0x6883FB4D EQ PUSH2 0x14D JUMPI JUMPDEST PUSH1 0x0 DUP1 REVERT JUMPDEST PUSH2 0xD3 PUSH1 0x4 DUP1 CALLDATASIZE SUB DUP2 ADD SWAP1 PUSH2 0xCE SWAP2 SWAP1 PUSH2 0x8FE JUMP JUMPDEST PUSH2 0x219 JUMP JUMPDEST STOP JUMPDEST PUSH2 0xDD PUSH2 0x233 JUMP JUMPDEST PUSH1 0x40 MLOAD PUSH2 0xEA SWAP2 SWAP1 PUSH2 0x9CF JUMP JUMPDEST PUSH1 0x40 MLOAD DUP1 SWAP2 SUB SWAP1 RETURN JUMPDEST PUSH2 0xFB PUSH2 0x2C1 JUMP JUMPDEST PUSH1 0x40 MLOAD PUSH2 0x108 SWAP2 SWAP1 PUSH2 0x9CF JUMP JUMPDEST PUSH1 0x40 MLOAD DUP1 SWAP2 SUB SWAP1 RETURN JUMPDEST PUSH2 0x119 PUSH2 0x353 JUMP JUMPDEST PUSH1 0x40 MLOAD PUSH2 0x126 SWAP2 SWAP1 PUSH2 0x9CF JUMP JUMPDEST PUSH1 0x40 MLOAD DUP1 SWAP2 SUB SWAP1 RETURN JUMPDEST PUSH2 0x137 PUSH2 0x3E1 JUMP JUMPDEST PUSH1 0x40 MLOAD PUSH2 0x144 SWAP2 SWAP1 PUSH2 0x9CF JUMP JUMPDEST PUSH1 0x40 MLOAD DUP1 SWAP2 SUB SWAP1 RETURN JUMPDEST PUSH2 0x155 PUSH2 0x473 JUMP JUMPDEST PUSH1 0x40 MLOAD PUSH2 0x162 SWAP2 SWAP1 PUSH2 0x9CF JUMP JUMPDEST PUSH1 0x40 MLOAD DUP1 SWAP2 SUB SWAP1 RETURN JUMPDEST PUSH2 0x173 PUSH2 0x505 JUMP JUMPDEST PUSH1 0x40 MLOAD PUSH2 0x180 SWAP2 SWAP1 PUSH2 0x9CF JUMP JUMPDEST PUSH1 0x40 MLOAD DUP1 SWAP2 SUB SWAP1 RETURN JUMPDEST PUSH2 0x1A3 PUSH1 0x4 DUP1 CALLDATASIZE SUB DUP2 ADD SWAP1 PUSH2 0x19E SWAP2 SWAP1 PUSH2 0x8FE JUMP JUMPDEST PUSH2 0x593 JUMP JUMPDEST STOP JUMPDEST PUSH2 0x1BF PUSH1 0x4 DUP1 CALLDATASIZE SUB DUP2 ADD SWAP1 PUSH2 0x1BA SWAP2 SWAP1 PUSH2 0x8FE JUMP JUMPDEST PUSH2 0x5AD JUMP JUMPDEST STOP JUMPDEST PUSH2 0x1C9 PUSH2 0x5C7 JUMP JUMPDEST PUSH1 0x40 MLOAD PUSH2 0x1D6 SWAP2 SWAP1 PUSH2 0x9CF JUMP JUMPDEST PUSH1 0x40 MLOAD DUP1 SWAP2 SUB SWAP1 RETURN JUMPDEST PUSH2 0x1E7 PUSH2 0x659 JUMP JUMPDEST PUSH1 0x40 MLOAD PUSH2 0x1F4 SWAP2 SWAP1 PUSH2 0x9CF JUMP JUMPDEST PUSH1 0x40 MLOAD DUP1 SWAP2 SUB SWAP1 RETURN JUMPDEST PUSH2 0x217 PUSH1 0x4 DUP1 CALLDATASIZE SUB DUP2 ADD SWAP1 PUSH2 0x212 SWAP2 SWAP1 PUSH2 0x8FE JUMP JUMPDEST PUSH2 0x6E7 JUMP JUMPDEST STOP JUMPDEST DUP1 PUSH1 0x2 SWAP1 DUP1 MLOAD SWAP1 PUSH1 0x20 ADD SWAP1 PUSH2 0x22F SWAP3 SWAP2 SWAP1 PUSH2 0x701 JUMP JUMPDEST POP POP JUMP JUMPDEST PUSH1 0x1 DUP1 SLOAD PUSH2 0x240 SWAP1 PUSH2 0xA20 JUMP JUMPDEST DUP1 PUSH1 0x1F ADD PUSH1 0x20 DUP1 SWAP2 DIV MUL PUSH1 0x20 ADD PUSH1 0x40 MLOAD SWAP1 DUP2 ADD PUSH1 0x40 MSTORE DUP1 SWAP3 SWAP2 SWAP1 DUP2 DUP2 MSTORE PUSH1 0x20 ADD DUP3 DUP1 SLOAD PUSH2 0x26C SWAP1 PUSH2 0xA20 JUMP JUMPDEST DUP1 ISZERO PUSH2 0x2B9 JUMPI DUP1 PUSH1 0x1F LT PUSH2 0x28E JUMPI PUSH2 0x100 DUP1 DUP4 SLOAD DIV MUL DUP4 MSTORE SWAP2 PUSH1 0x20 ADD SWAP2 PUSH2 0x2B9 JUMP JUMPDEST DUP3 ADD SWAP2 SWAP1 PUSH1 0x0 MSTORE PUSH1 0x20 PUSH1 0x0 KECCAK256 SWAP1 JUMPDEST DUP2 SLOAD DUP2 MSTORE SWAP1 PUSH1 0x1 ADD SWAP1 PUSH1 0x20 ADD DUP1 DUP4 GT PUSH2 0x29C JUMPI DUP3 SWAP1 SUB PUSH1 0x1F AND DUP3 ADD SWAP2 JUMPDEST POP POP POP POP POP DUP2 JUMP JUMPDEST PUSH1 0x60 PUSH1 0x0 DUP1 SLOAD PUSH2 0x2D0 SWAP1 PUSH2 0xA20 JUMP JUMPDEST DUP1 PUSH1 0x1F ADD PUSH1 0x20 DUP1 SWAP2 DIV MUL PUSH1 0x20 ADD PUSH1 0x40 MLOAD SWAP1 DUP2 ADD PUSH1 0x40 MSTORE DUP1 SWAP3 SWAP2 SWAP1 DUP2 DUP2 MSTORE PUSH1 0x20 ADD DUP3 DUP1 SLOAD PUSH2 0x2FC SWAP1 PUSH2 0xA20 JUMP JUMPDEST DUP1 ISZERO PUSH2 0x349 JUMPI DUP1 PUSH1 0x1F LT PUSH2 0x31E JUMPI PUSH2 0x100 DUP1 DUP4 SLOAD DIV MUL DUP4 MSTORE SWAP2 PUSH1 0x20 ADD SWAP2 PUSH2 0x349 JUMP JUMPDEST DUP3 ADD SWAP2 SWAP1 PUSH1 0x0 MSTORE PUSH1 0x20 PUSH1 0x0 KECCAK256 SWAP1 JUMPDEST DUP2 SLOAD DUP2 MSTORE SWAP1 PUSH1 0x1 ADD SWAP1 PUSH1 0x20 ADD DUP1 DUP4 GT PUSH2 0x32C JUMPI DUP3 SWAP1 SUB PUSH1 0x1F AND DUP3 ADD SWAP2 JUMPDEST POP POP POP POP POP SWAP1 POP SWAP1 JUMP JUMPDEST PUSH1 0x3 DUP1 SLOAD PUSH2 0x360 SWAP1 PUSH2 0xA20 JUMP JUMPDEST DUP1 PUSH1 0x1F ADD PUSH1 0x20 DUP1 SWAP2 DIV MUL PUSH1 0x20 ADD PUSH1 0x40 MLOAD SWAP1 DUP2 ADD PUSH1 0x40 MSTORE DUP1 SWAP3 SWAP2 SWAP1 DUP2 DUP2 MSTORE PUSH1 0x20 ADD DUP3 DUP1 SLOAD PUSH2 0x38C SWAP1 PUSH2 0xA20 JUMP JUMPDEST DUP1 ISZERO PUSH2 0x3D9 JUMPI DUP1 PUSH1 0x1F LT PUSH2 0x3AE JUMPI PUSH2 0x100 DUP1 DUP4 SLOAD DIV MUL DUP4 MSTORE SWAP2 PUSH1 0x20 ADD SWAP2 PUSH2 0x3D9 JUMP JUMPDEST DUP3 ADD SWAP2 SWAP1 PUSH1 0x0 MSTORE PUSH1 0x20 PUSH1 0x0 KECCAK256 SWAP1 JUMPDEST DUP2 SLOAD DUP2 MSTORE SWAP1 PUSH1 0x1 ADD SWAP1 PUSH1 0x20 ADD DUP1 DUP4 GT PUSH2 0x3BC JUMPI DUP3 SWAP1 SUB PUSH1 0x1F AND DUP3 ADD SWAP2 JUMPDEST POP POP POP POP POP DUP2 JUMP JUMPDEST PUSH1 0x60 PUSH1 0x1 DUP1 SLOAD PUSH2 0x3F0 SWAP1 PUSH2 0xA20 JUMP JUMPDEST DUP1 PUSH1 0x1F ADD PUSH1 0x20 DUP1 SWAP2 DIV MUL PUSH1 0x20 ADD PUSH1 0x40 MLOAD SWAP1 DUP2 ADD PUSH1 0x40 MSTORE DUP1 SWAP3 SWAP2 SWAP1 DUP2 DUP2 MSTORE PUSH1 0x20 ADD DUP3 DUP1 SLOAD PUSH2 0x41C SWAP1 PUSH2 0xA20 JUMP JUMPDEST DUP1 ISZERO PUSH2 0x469 JUMPI DUP1 PUSH1 0x1F LT PUSH2 0x43E JUMPI PUSH2 0x100 DUP1 DUP4 SLOAD DIV MUL DUP4 MSTORE SWAP2 PUSH1 0x20 ADD SWAP2 PUSH2 0x469 JUMP JUMPDEST DUP3 ADD SWAP2 SWAP1 PUSH1 0x0 MSTORE PUSH1 0x20 PUSH1 0x0 KECCAK256 SWAP1 JUMPDEST DUP2 SLOAD DUP2 MSTORE SWAP1 PUSH1 0x1 ADD SWAP1 PUSH1 0x20 ADD DUP1 DUP4 GT PUSH2 0x44C JUMPI DUP3 SWAP1 SUB PUSH1 0x1F AND DUP3 ADD SWAP2 JUMPDEST POP POP POP POP POP SWAP1 POP SWAP1 JUMP JUMPDEST PUSH1 0x60 PUSH1 0x2 DUP1 SLOAD PUSH2 0x482 SWAP1 PUSH2 0xA20 JUMP JUMPDEST DUP1 PUSH1 0x1F ADD PUSH1 0x20 DUP1 SWAP2 DIV MUL PUSH1 0x20 ADD PUSH1 0x40 MLOAD SWAP1 DUP2 ADD PUSH1 0x40 MSTORE DUP1 SWAP3 SWAP2 SWAP1 DUP2 DUP2 MSTORE PUSH1 0x20 ADD DUP3 DUP1 SLOAD PUSH2 0x4AE SWAP1 PUSH2 0xA20 JUMP JUMPDEST DUP1 ISZERO PUSH2 0x4FB JUMPI DUP1 PUSH1 0x1F LT PUSH2 0x4D0 JUMPI PUSH2 0x100 DUP1 DUP4 SLOAD DIV MUL DUP4 MSTORE SWAP2 PUSH1 0x20 ADD SWAP2 PUSH2 0x4FB JUMP JUMPDEST DUP3 ADD SWAP2 SWAP1 PUSH1 0x0 MSTORE PUSH1 0x20 PUSH1 0x0 KECCAK256 SWAP1 JUMPDEST DUP2 SLOAD DUP2 MSTORE SWAP1 PUSH1 0x1 ADD SWAP1 PUSH1 0x20 ADD DUP1 DUP4 GT PUSH2 0x4DE JUMPI DUP3 SWAP1 SUB PUSH1 0x1F AND DUP3 ADD SWAP2 JUMPDEST POP POP POP POP POP SWAP1 POP SWAP1 JUMP JUMPDEST PUSH1 0x2 DUP1 SLOAD PUSH2 0x512 SWAP1 PUSH2 0xA20 JUMP JUMPDEST DUP1 PUSH1 0x1F ADD PUSH1 0x20 DUP1 SWAP2 DIV MUL PUSH1 0x20 ADD PUSH1 0x40 MLOAD SWAP1 DUP2 ADD PUSH1 0x40 MSTORE DUP1 SWAP3 SWAP2 SWAP1 DUP2 DUP2 MSTORE PUSH1 0x20 ADD DUP3 DUP1 SLOAD PUSH2 0x53E SWAP1 PUSH2 0xA20 JUMP JUMPDEST DUP1 ISZERO PUSH2 0x58B JUMPI DUP1 PUSH1 0x1F LT PUSH2 0x560 JUMPI PUSH2 0x100 DUP1 DUP4 SLOAD DIV MUL DUP4 MSTORE SWAP2 PUSH1 0x20 ADD SWAP2 PUSH2 0x58B JUMP JUMPDEST DUP3 ADD SWAP2 SWAP1 PUSH1 0x0 MSTORE PUSH1 0x20 PUSH1 0x0 KECCAK256 SWAP1 JUMPDEST DUP2 SLOAD DUP2 MSTORE SWAP1 PUSH1 0x1 ADD SWAP1 PUSH1 0x20 ADD DUP1 DUP4 GT PUSH2 0x56E JUMPI DUP3 SWAP1 SUB PUSH1 0x1F AND DUP3 ADD SWAP2 JUMPDEST POP POP POP POP POP DUP2 JUMP JUMPDEST DUP1 PUSH1 0x0 SWAP1 DUP1 MLOAD SWAP1 PUSH1 0x20 ADD SWAP1 PUSH2 0x5A9 SWAP3 SWAP2 SWAP1 PUSH2 0x701 JUMP JUMPDEST POP POP JUMP JUMPDEST DUP1 PUSH1 0x1 SWAP1 DUP1 MLOAD SWAP1 PUSH1 0x20 ADD SWAP1 PUSH2 0x5C3 SWAP3 SWAP2 SWAP1 PUSH2 0x701 JUMP JUMPDEST POP POP JUMP JUMPDEST PUSH1 0x60 PUSH1 0x3 DUP1 SLOAD PUSH2 0x5D6 SWAP1 PUSH2 0xA20 JUMP JUMPDEST DUP1 PUSH1 0x1F ADD PUSH1 0x20 DUP1 SWAP2 DIV MUL PUSH1 0x20 ADD PUSH1 0x40 MLOAD SWAP1 DUP2 ADD PUSH1 0x40 MSTORE DUP1 SWAP3 SWAP2 SWAP1 DUP2 DUP2 MSTORE PUSH1 0x20 ADD DUP3 DUP1 SLOAD PUSH2 0x602 SWAP1 PUSH2 0xA20 JUMP JUMPDEST DUP1 ISZERO PUSH2 0x64F JUMPI DUP1 PUSH1 0x1F LT PUSH2 0x624 JUMPI PUSH2 0x100 DUP1 DUP4 SLOAD DIV MUL DUP4 MSTORE SWAP2 PUSH1 0x20 ADD SWAP2 PUSH2 0x64F JUMP JUMPDEST DUP3 ADD SWAP2 SWAP1 PUSH1 0x0 MSTORE PUSH1 0x20 PUSH1 0x0 KECCAK256 SWAP1 JUMPDEST DUP2 SLOAD DUP2 MSTORE SWAP1 PUSH1 0x1 ADD SWAP1 PUSH1 0x20 ADD DUP1 DUP4 GT PUSH2 0x632 JUMPI DUP3 SWAP1 SUB PUSH1 0x1F AND DUP3 ADD SWAP2 JUMPDEST POP POP POP POP POP SWAP1 POP SWAP1 JUMP JUMPDEST PUSH1 0x0 DUP1 SLOAD PUSH2 0x666 SWAP1 PUSH2 0xA20 JUMP JUMPDEST DUP1 PUSH1 0x1F ADD PUSH1 0x20 DUP1 SWAP2 DIV MUL PUSH1 0x20 ADD PUSH1 0x40 MLOAD SWAP1 DUP2 ADD PUSH1 0x40 MSTORE DUP1 SWAP3 SWAP2 SWAP1 DUP2 DUP2 MSTORE PUSH1 0x20 ADD DUP3 DUP1 SLOAD PUSH2 0x692 SWAP1 PUSH2 0xA20 JUMP JUMPDEST DUP1 ISZERO PUSH2 0x6DF JUMPI DUP1 PUSH1 0x1F LT PUSH2 0x6B4 JUMPI PUSH2 0x100 DUP1 DUP4 SLOAD DIV MUL DUP4 MSTORE SWAP2 PUSH1 0x20 ADD SWAP2 PUSH2 0x6DF JUMP JUMPDEST DUP3 ADD SWAP2 SWAP1 PUSH1 0x0 MSTORE PUSH1 0x20 PUSH1 0x0 KECCAK256 SWAP1 JUMPDEST DUP2 SLOAD DUP2 MSTORE SWAP1 PUSH1 0x1 ADD SWAP1 PUSH1 0x20 ADD DUP1 DUP4 GT PUSH2 0x6C2 JUMPI DUP3 SWAP1 SUB PUSH1 0x1F AND DUP3 ADD SWAP2 JUMPDEST POP POP POP POP POP DUP2 JUMP JUMPDEST DUP1 PUSH1 0x3 SWAP1 DUP1 MLOAD SWAP1 PUSH1 0x20 ADD SWAP1 PUSH2 0x6FD SWAP3 SWAP2 SWAP1 PUSH2 0x701 JUMP JUMPDEST POP POP JUMP JUMPDEST DUP3 DUP1 SLOAD PUSH2 0x70D SWAP1 PUSH2 0xA20 JUMP JUMPDEST SWAP1 PUSH1 0x0 MSTORE PUSH1 0x20 PUSH1 0x0 KECCAK256 SWAP1 PUSH1 0x1F ADD PUSH1 0x20 SWAP1 DIV DUP2 ADD SWAP3 DUP3 PUSH2 0x72F JUMPI PUSH1 0x0 DUP6 SSTORE PUSH2 0x776 JUMP JUMPDEST DUP3 PUSH1 0x1F LT PUSH2 0x748 JUMPI DUP1 MLOAD PUSH1 0xFF NOT AND DUP4 DUP1 ADD OR DUP6 SSTORE PUSH2 0x776 JUMP JUMPDEST DUP3 DUP1 ADD PUSH1 0x1 ADD DUP6 SSTORE DUP3 ISZERO PUSH2 0x776 JUMPI SWAP2 DUP3 ADD JUMPDEST DUP3 DUP2 GT ISZERO PUSH2 0x775 JUMPI DUP3 MLOAD DUP3 SSTORE SWAP2 PUSH1 0x20 ADD SWAP2 SWAP1 PUSH1 0x1 ADD SWAP1 PUSH2 0x75A JUMP JUMPDEST JUMPDEST POP SWAP1 POP PUSH2 0x783 SWAP2 SWAP1 PUSH2 0x787 JUMP JUMPDEST POP SWAP1 JUMP JUMPDEST JUMPDEST DUP1 DUP3 GT ISZERO PUSH2 0x7A0 JUMPI PUSH1 0x0 DUP2 PUSH1 0x0 SWAP1 SSTORE POP PUSH1 0x1 ADD PUSH2 0x788 JUMP JUMPDEST POP SWAP1 JUMP JUMPDEST PUSH1 0x0 PUSH1 0x40 MLOAD SWAP1 POP SWAP1 JUMP JUMPDEST PUSH1 0x0 DUP1 REVERT JUMPDEST PUSH1 0x0 DUP1 REVERT JUMPDEST PUSH1 0x0 DUP1 REVERT JUMPDEST PUSH1 0x0 DUP1 REVERT JUMPDEST PUSH1 0x0 PUSH1 0x1F NOT PUSH1 0x1F DUP4 ADD AND SWAP1 POP SWAP2 SWAP1 POP JUMP JUMPDEST PUSH32 0x4E487B7100000000000000000000000000000000000000000000000000000000 PUSH1 0x0 MSTORE PUSH1 0x41 PUSH1 0x4 MSTORE PUSH1 0x24 PUSH1 0x0 REVERT JUMPDEST PUSH2 0x80B DUP3 PUSH2 0x7C2 JUMP JUMPDEST DUP2 ADD DUP2 DUP2 LT PUSH8 0xFFFFFFFFFFFFFFFF DUP3 GT OR ISZERO PUSH2 0x82A JUMPI PUSH2 0x829 PUSH2 0x7D3 JUMP JUMPDEST JUMPDEST DUP1 PUSH1 0x40 MSTORE POP POP POP JUMP JUMPDEST PUSH1 0x0 PUSH2 0x83D PUSH2 0x7A4 JUMP JUMPDEST SWAP1 POP PUSH2 0x849 DUP3 DUP3 PUSH2 0x802 JUMP JUMPDEST SWAP2 SWAP1 POP JUMP JUMPDEST PUSH1 0x0 PUSH8 0xFFFFFFFFFFFFFFFF DUP3 GT ISZERO PUSH2 0x869 JUMPI PUSH2 0x868 PUSH2 0x7D3 JUMP JUMPDEST JUMPDEST PUSH2 0x872 DUP3 PUSH2 0x7C2 JUMP JUMPDEST SWAP1 POP PUSH1 0x20 DUP2 ADD SWAP1 POP SWAP2 SWAP1 POP JUMP JUMPDEST DUP3 DUP2 DUP4 CALLDATACOPY PUSH1 0x0 DUP4 DUP4 ADD MSTORE POP POP POP JUMP JUMPDEST PUSH1 0x0 PUSH2 0x8A1 PUSH2 0x89C DUP5 PUSH2 0x84E JUMP JUMPDEST PUSH2 0x833 JUMP JUMPDEST SWAP1 POP DUP3 DUP2 MSTORE PUSH1 0x20 DUP2 ADD DUP5 DUP5 DUP5 ADD GT ISZERO PUSH2 0x8BD JUMPI PUSH2 0x8BC PUSH2 0x7BD JUMP JUMPDEST JUMPDEST PUSH2 0x8C8 DUP5 DUP3 DUP6 PUSH2 0x87F JUMP JUMPDEST POP SWAP4 SWAP3 POP POP POP JUMP JUMPDEST PUSH1 0x0 DUP3 PUSH1 0x1F DUP4 ADD SLT PUSH2 0x8E5 JUMPI PUSH2 0x8E4 PUSH2 0x7B8 JUMP JUMPDEST JUMPDEST DUP2 CALLDATALOAD PUSH2 0x8F5 DUP5 DUP3 PUSH1 0x20 DUP7 ADD PUSH2 0x88E JUMP JUMPDEST SWAP2 POP POP SWAP3 SWAP2 POP POP JUMP JUMPDEST PUSH1 0x0 PUSH1 0x20 DUP3 DUP5 SUB SLT ISZERO PUSH2 0x914 JUMPI PUSH2 0x913 PUSH2 0x7AE JUMP JUMPDEST JUMPDEST PUSH1 0x0 DUP3 ADD CALLDATALOAD PUSH8 0xFFFFFFFFFFFFFFFF DUP2 GT ISZERO PUSH2 0x932 JUMPI PUSH2 0x931 PUSH2 0x7B3 JUMP JUMPDEST JUMPDEST PUSH2 0x93E DUP5 DUP3 DUP6 ADD PUSH2 0x8D0 JUMP JUMPDEST SWAP2 POP POP SWAP3 SWAP2 POP POP JUMP JUMPDEST PUSH1 0x0 DUP2 MLOAD SWAP1 POP SWAP2 SWAP1 POP JUMP JUMPDEST PUSH1 0x0 DUP3 DUP3 MSTORE PUSH1 0x20 DUP3 ADD SWAP1 POP SWAP3 SWAP2 POP POP JUMP JUMPDEST PUSH1 0x0 JUMPDEST DUP4 DUP2 LT ISZERO PUSH2 0x981 JUMPI DUP1 DUP3 ADD MLOAD DUP2 DUP5 ADD MSTORE PUSH1 0x20 DUP2 ADD SWAP1 POP PUSH2 0x966 JUMP JUMPDEST DUP4 DUP2 GT ISZERO PUSH2 0x990 JUMPI PUSH1 0x0 DUP5 DUP5 ADD MSTORE JUMPDEST POP POP POP POP JUMP JUMPDEST PUSH1 0x0 PUSH2 0x9A1 DUP3 PUSH2 0x947 JUMP JUMPDEST PUSH2 0x9AB DUP2 DUP6 PUSH2 0x952 JUMP JUMPDEST SWAP4 POP PUSH2 0x9BB DUP2 DUP6 PUSH1 0x20 DUP7 ADD PUSH2 0x963 JUMP JUMPDEST PUSH2 0x9C4 DUP2 PUSH2 0x7C2 JUMP JUMPDEST DUP5 ADD SWAP2 POP POP SWAP3 SWAP2 POP POP JUMP JUMPDEST PUSH1 0x0 PUSH1 0x20 DUP3 ADD SWAP1 POP DUP2 DUP2 SUB PUSH1 0x0 DUP4 ADD MSTORE PUSH2 0x9E9 DUP2 DUP5 PUSH2 0x996 JUMP JUMPDEST SWAP1 POP SWAP3 SWAP2 POP POP JUMP JUMPDEST PUSH32 0x4E487B7100000000000000000000000000000000000000000000000000000000 PUSH1 0x0 MSTORE PUSH1 0x22 PUSH1 0x4 MSTORE PUSH1 0x24 PUSH1 0x0 REVERT JUMPDEST PUSH1 0x0 PUSH1 0x2 DUP3 DIV SWAP1 POP PUSH1 0x1 DUP3 AND DUP1 PUSH2 0xA38 JUMPI PUSH1 0x7F DUP3 AND SWAP2 POP JUMPDEST PUSH1 0x20 DUP3 LT DUP2 EQ ISZERO PUSH2 0xA4C JUMPI PUSH2 0xA4B PUSH2 0x9F1 JUMP JUMPDEST JUMPDEST POP SWAP2 SWAP1 POP JUMP INVALID LOG2 PUSH5 0x6970667358 0x22 SLT KECCAK256 0xB9 DUP9 GASPRICE PUSH24 0xC338B6E9D2C77B611A66188AA5996EFBCF8F5AABCCFCC021 0x1E PC DUP10 CALLCODE PUSH5 0x736F6C6343 STOP ADDMOD MULMOD STOP CALLER "},"methodIdentifiers":{"catalogIpnsKey()":"e20b937f","getCatalogIpnsKey()":"34b04f0f","getOutputIpnsKey()":"4d6fd080","getOutputIpnsPrivateKey()":"6883fb4d","getPrivateKeyCid()":"b624d9c4","outputIpnsKey()":"2b7853ef","outputIpnsPrivateKey()":"6bbaf770","privateKeyCid()":"462659ee","setCatalogIpnsKey(string)":"79ad054f","setOuputIpnsKey(string)":"ad5c8576","setOutputIpnsPrivateKey(string)":"17d54020","setPrivateKeyCid(string)":"f378da5d"}}}}}