{
  "_format": "hh-sol-artifact-1",
  "contractName": "GatewayCatalog",
  "sourceName": "contracts/Gateway_Catalog.sol",
  "abi": [
    {
      "inputs": [],
      "name": "catalogIpnsKey",
      "outputs": [
        {
          "internalType": "string",
          "name": "",
          "type": "string"
        }
      ],
      "stateMutability": "view",
      "type": "function"
    },
    {
      "inputs": [],
      "name": "outputIpnsKey",
      "outputs": [
        {
          "internalType": "string",
          "name": "",
          "type": "string"
        }
      ],
      "stateMutability": "view",
      "type": "function"
    },
    {
      "inputs": [],
      "name": "outputIpnsPrivateKey",
      "outputs": [
        {
          "internalType": "string",
          "name": "",
          "type": "string"
        }
      ],
      "stateMutability": "view",
      "type": "function"
    },
    {
      "inputs": [],
      "name": "privateKeyCid",
      "outputs": [
        {
          "internalType": "string",
          "name": "",
          "type": "string"
        }
      ],
      "stateMutability": "view",
      "type": "function"
    },
    {
      "inputs": [
        {
          "internalType": "string",
          "name": "_caralog_ipns_key",
          "type": "string"
        }
      ],
      "name": "setCatalogIpnsKey",
      "outputs": [],
      "stateMutability": "nonpayable",
      "type": "function"
    },
    {
      "inputs": [
        {
          "internalType": "string",
          "name": "_output_ipns_key",
          "type": "string"
        }
      ],
      "name": "setOuputIpnsKey",
      "outputs": [],
      "stateMutability": "nonpayable",
      "type": "function"
    },
    {
      "inputs": [
        {
          "internalType": "string",
          "name": "_output_ipns_private_key",
          "type": "string"
        }
      ],
      "name": "setOutputIpnsPrivateKey",
      "outputs": [],
      "stateMutability": "nonpayable",
      "type": "function"
    },
    {
      "inputs": [
        {
          "internalType": "string",
          "name": "_sk_cid",
          "type": "string"
        }
      ],
      "name": "setPrivateKeyCid",
      "outputs": [],
      "stateMutability": "nonpayable",
      "type": "function"
    }
  ],
  "bytecode": "0x608060405234801561001057600080fd5b5061079c806100206000396000f3fe608060405234801561001057600080fd5b50600436106100885760003560e01c806379ad054f1161005b57806379ad054f14610103578063ad5c85761461011f578063e20b937f1461013b578063f378da5d1461015957610088565b806317d540201461008d5780632b7853ef146100a9578063462659ee146100c75780636bbaf770146100e5575b600080fd5b6100a760048036038101906100a29190610612565b610175565b005b6100b161018f565b6040516100be91906106e3565b60405180910390f35b6100cf61021d565b6040516100dc91906106e3565b60405180910390f35b6100ed6102ab565b6040516100fa91906106e3565b60405180910390f35b61011d60048036038101906101189190610612565b610339565b005b61013960048036038101906101349190610612565b610353565b005b61014361036d565b60405161015091906106e3565b60405180910390f35b610173600480360381019061016e9190610612565b6103fb565b005b806002908051906020019061018b929190610415565b5050565b6001805461019c90610734565b80601f01602080910402602001604051908101604052809291908181526020018280546101c890610734565b80156102155780601f106101ea57610100808354040283529160200191610215565b820191906000526020600020905b8154815290600101906020018083116101f857829003601f168201915b505050505081565b6003805461022a90610734565b80601f016020809104026020016040519081016040528092919081815260200182805461025690610734565b80156102a35780601f10610278576101008083540402835291602001916102a3565b820191906000526020600020905b81548152906001019060200180831161028657829003601f168201915b505050505081565b600280546102b890610734565b80601f01602080910402602001604051908101604052809291908181526020018280546102e490610734565b80156103315780601f1061030657610100808354040283529160200191610331565b820191906000526020600020905b81548152906001019060200180831161031457829003601f168201915b505050505081565b806000908051906020019061034f929190610415565b5050565b8060019080519060200190610369929190610415565b5050565b6000805461037a90610734565b80601f01602080910402602001604051908101604052809291908181526020018280546103a690610734565b80156103f35780601f106103c8576101008083540402835291602001916103f3565b820191906000526020600020905b8154815290600101906020018083116103d657829003601f168201915b505050505081565b8060039080519060200190610411929190610415565b5050565b82805461042190610734565b90600052602060002090601f016020900481019282610443576000855561048a565b82601f1061045c57805160ff191683800117855561048a565b8280016001018555821561048a579182015b8281111561048957825182559160200191906001019061046e565b5b509050610497919061049b565b5090565b5b808211156104b457600081600090555060010161049c565b5090565b6000604051905090565b600080fd5b600080fd5b600080fd5b600080fd5b6000601f19601f8301169050919050565b7f4e487b7100000000000000000000000000000000000000000000000000000000600052604160045260246000fd5b61051f826104d6565b810181811067ffffffffffffffff8211171561053e5761053d6104e7565b5b80604052505050565b60006105516104b8565b905061055d8282610516565b919050565b600067ffffffffffffffff82111561057d5761057c6104e7565b5b610586826104d6565b9050602081019050919050565b82818337600083830152505050565b60006105b56105b084610562565b610547565b9050828152602081018484840111156105d1576105d06104d1565b5b6105dc848285610593565b509392505050565b600082601f8301126105f9576105f86104cc565b5b81356106098482602086016105a2565b91505092915050565b600060208284031215610628576106276104c2565b5b600082013567ffffffffffffffff811115610646576106456104c7565b5b610652848285016105e4565b91505092915050565b600081519050919050565b600082825260208201905092915050565b60005b8381101561069557808201518184015260208101905061067a565b838111156106a4576000848401525b50505050565b60006106b58261065b565b6106bf8185610666565b93506106cf818560208601610677565b6106d8816104d6565b840191505092915050565b600060208201905081810360008301526106fd81846106aa565b905092915050565b7f4e487b7100000000000000000000000000000000000000000000000000000000600052602260045260246000fd5b6000600282049050600182168061074c57607f821691505b602082108114156107605761075f610705565b5b5091905056fea2646970667358221220f7b99f56e7b75ee4af7b3815a57aee976ef6dffaff8c0d457cf0e554b0326f2c64736f6c63430008090033",
  "linkReferences": {},
  "deployedLinkReferences": {}
}