{
  "_format": "hh-sol-artifact-1",
  "contractName": "FarmMenu",
  "sourceName": "contracts/Catalog.sol",
  "abi": [
    {
      "inputs": [
        {
          "internalType": "string",
          "name": "_farmId",
          "type": "string"
        },
        {
          "internalType": "string",
          "name": "_output_ipns_pk",
          "type": "string"
        }
      ],
      "stateMutability": "nonpayable",
      "type": "constructor"
    },
    {
      "anonymous": false,
      "inputs": [
        {
          "indexed": false,
          "internalType": "string",
          "name": "deviceId",
          "type": "string"
        }
      ],
      "name": "DataDeviceRequested",
      "type": "event"
    },
    {
      "anonymous": false,
      "inputs": [],
      "name": "FarmDataRequested",
      "type": "event"
    },
    {
      "anonymous": false,
      "inputs": [
        {
          "indexed": false,
          "internalType": "string",
          "name": "outputIpnsPk",
          "type": "string"
        }
      ],
      "name": "IpnsUpdated",
      "type": "event"
    },
    {
      "inputs": [],
      "name": "farmId",
      "outputs": [
        {
          "internalType": "string",
          "name": "",
          "type": "string"
        }
      ],
      "stateMutability": "view",
      "type": "function"
    },
    {
      "inputs": [],
      "name": "outputIpnsPk",
      "outputs": [
        {
          "internalType": "string",
          "name": "",
          "type": "string"
        }
      ],
      "stateMutability": "view",
      "type": "function"
    },
    {
      "inputs": [],
      "name": "ready",
      "outputs": [
        {
          "internalType": "string",
          "name": "",
          "type": "string"
        }
      ],
      "stateMutability": "view",
      "type": "function"
    },
    {
      "inputs": [
        {
          "internalType": "string",
          "name": "_device_id",
          "type": "string"
        }
      ],
      "name": "requestDeviceData",
      "outputs": [
        {
          "internalType": "string",
          "name": "",
          "type": "string"
        }
      ],
      "stateMutability": "nonpayable",
      "type": "function"
    },
    {
      "inputs": [],
      "name": "requestFarmData",
      "outputs": [
        {
          "internalType": "string",
          "name": "",
          "type": "string"
        }
      ],
      "stateMutability": "nonpayable",
      "type": "function"
    },
    {
      "inputs": [
        {
          "internalType": "string",
          "name": "_ready",
          "type": "string"
        }
      ],
      "name": "setReadyFlag",
      "outputs": [],
      "stateMutability": "nonpayable",
      "type": "function"
    },
    {
      "inputs": [
        {
          "internalType": "string",
          "name": "_output_ipns_pk",
          "type": "string"
        }
      ],
      "name": "updateIpnsPk",
      "outputs": [],
      "stateMutability": "nonpayable",
      "type": "function"
    }
  ],
  "bytecode": "0x60806040523480156200001157600080fd5b5060405162000bf938038062000bf983398181016040528101906200003791906200030c565b81600090805190602001906200004f929190620000bf565b50806001908051906020019062000068929190620000bf565b506040518060400160405280600181526020017f300000000000000000000000000000000000000000000000000000000000000081525060029080519060200190620000b6929190620000bf565b505050620003f6565b828054620000cd90620003c0565b90600052602060002090601f016020900481019282620000f157600085556200013d565b82601f106200010c57805160ff19168380011785556200013d565b828001600101855582156200013d579182015b828111156200013c5782518255916020019190600101906200011f565b5b5090506200014c919062000150565b5090565b5b808211156200016b57600081600090555060010162000151565b5090565b6000604051905090565b600080fd5b600080fd5b600080fd5b600080fd5b6000601f19601f8301169050919050565b7f4e487b7100000000000000000000000000000000000000000000000000000000600052604160045260246000fd5b620001d8826200018d565b810181811067ffffffffffffffff82111715620001fa57620001f96200019e565b5b80604052505050565b60006200020f6200016f565b90506200021d8282620001cd565b919050565b600067ffffffffffffffff82111562000240576200023f6200019e565b5b6200024b826200018d565b9050602081019050919050565b60005b83811015620002785780820151818401526020810190506200025b565b8381111562000288576000848401525b50505050565b6000620002a56200029f8462000222565b62000203565b905082815260208101848484011115620002c457620002c362000188565b5b620002d184828562000258565b509392505050565b600082601f830112620002f157620002f062000183565b5b8151620003038482602086016200028e565b91505092915050565b6000806040838503121562000326576200032562000179565b5b600083015167ffffffffffffffff8111156200034757620003466200017e565b5b6200035585828601620002d9565b925050602083015167ffffffffffffffff8111156200037957620003786200017e565b5b6200038785828601620002d9565b9150509250929050565b7f4e487b7100000000000000000000000000000000000000000000000000000000600052602260045260246000fd5b60006002820490506001821680620003d957607f821691505b60208210811415620003f057620003ef62000391565b5b50919050565b6107f380620004066000396000f3fe608060405234801561001057600080fd5b506004361061007d5760003560e01c80636defbf801161005b5780636defbf80146100ee5780638c22deaf1461010c578063a8cf759314610128578063b8efc6fa146101465761007d565b8063278de00014610082578063475fc0f4146100a057806349e3915b146100d0575b600080fd5b61008a610162565b6040516100979190610558565b60405180910390f35b6100ba60048036038101906100b591906106c3565b6101f0565b6040516100c79190610558565b60405180910390f35b6100d8610249565b6040516100e59190610558565b60405180910390f35b6100f6610295565b6040516101039190610558565b60405180910390f35b610126600480360381019061012191906106c3565b610323565b005b610130610374565b60405161013d9190610558565b60405180910390f35b610160600480360381019061015b91906106c3565b610402565b005b6000805461016f9061073b565b80601f016020809104026020016040519081016040528092919081815260200182805461019b9061073b565b80156101e85780601f106101bd576101008083540402835291602001916101e8565b820191906000526020600020905b8154815290600101906020018083116101cb57829003601f168201915b505050505081565b60607f92c8ae1be97440da1f7f30fb5b39a98e3e352284ec632f81dbe4968ec35f5696826040516102219190610558565b60405180910390a1604051806060016040528060298152602001610795602991399050919050565b60607f513f2213bca64463a207dd663bec29171d4ab06a1b71a1fd8c4bd2e66c6837d560405160405180910390a160405180606001604052806027815260200161076e60279139905090565b600280546102a29061073b565b80601f01602080910402602001604051908101604052809291908181526020018280546102ce9061073b565b801561031b5780601f106102f05761010080835404028352916020019161031b565b820191906000526020600020905b8154815290600101906020018083116102fe57829003601f168201915b505050505081565b806001908051906020019061033992919061041c565b507f275554b9e84105477212781091b7b08f2b148d56eee0f3c2f8ffd99730cb853c816040516103699190610558565b60405180910390a150565b600180546103819061073b565b80601f01602080910402602001604051908101604052809291908181526020018280546103ad9061073b565b80156103fa5780601f106103cf576101008083540402835291602001916103fa565b820191906000526020600020905b8154815290600101906020018083116103dd57829003601f168201915b505050505081565b806002908051906020019061041892919061041c565b5050565b8280546104289061073b565b90600052602060002090601f01602090048101928261044a5760008555610491565b82601f1061046357805160ff1916838001178555610491565b82800160010185558215610491579182015b82811115610490578251825591602001919060010190610475565b5b50905061049e91906104a2565b5090565b5b808211156104bb5760008160009055506001016104a3565b5090565b600081519050919050565b600082825260208201905092915050565b60005b838110156104f95780820151818401526020810190506104de565b83811115610508576000848401525b50505050565b6000601f19601f8301169050919050565b600061052a826104bf565b61053481856104ca565b93506105448185602086016104db565b61054d8161050e565b840191505092915050565b60006020820190508181036000830152610572818461051f565b905092915050565b6000604051905090565b600080fd5b600080fd5b600080fd5b600080fd5b7f4e487b7100000000000000000000000000000000000000000000000000000000600052604160045260246000fd5b6105d08261050e565b810181811067ffffffffffffffff821117156105ef576105ee610598565b5b80604052505050565b600061060261057a565b905061060e82826105c7565b919050565b600067ffffffffffffffff82111561062e5761062d610598565b5b6106378261050e565b9050602081019050919050565b82818337600083830152505050565b600061066661066184610613565b6105f8565b90508281526020810184848401111561068257610681610593565b5b61068d848285610644565b509392505050565b600082601f8301126106aa576106a961058e565b5b81356106ba848260208601610653565b91505092915050565b6000602082840312156106d9576106d8610584565b5b600082013567ffffffffffffffff8111156106f7576106f6610589565b5b61070384828501610695565b91505092915050565b7f4e487b7100000000000000000000000000000000000000000000000000000000600052602260045260246000fd5b6000600282049050600182168061075357607f821691505b602082108114156107675761076661070c565b5b5091905056fe4661726d2064617461207265717565737465642120436865636b207468652049504e53206b65794465766963652064617461207265717565737465642120436865636b207468652049504e53206b6579a26469706673582212207e78a458ada249a5b845d10561247a4ff62e6aae0a78e926c948b6949e1a2cb064736f6c63430008090033",
  "linkReferences": {},
  "deployedLinkReferences": {}
}