{
  "_format": "hh-sol-artifact-1",
  "contractName": "FarmMenu",
  "sourceName": "contracts/Catalog.sol",
  "abi": [
    {
      "inputs": [
        {
          "internalType": "string",
          "name": "_farmId",
          "type": "string"
        },
        {
          "internalType": "string",
          "name": "_output_ipns_pk",
          "type": "string"
        }
      ],
      "stateMutability": "nonpayable",
      "type": "constructor"
    },
    {
      "anonymous": false,
      "inputs": [
        {
          "indexed": false,
          "internalType": "string",
          "name": "deviceId",
          "type": "string"
        }
      ],
      "name": "DataDeviceRequested",
      "type": "event"
    },
    {
      "anonymous": false,
      "inputs": [],
      "name": "FarmDataRequested",
      "type": "event"
    },
    {
      "anonymous": false,
      "inputs": [
        {
          "indexed": false,
          "internalType": "string",
          "name": "outputIpnsPk",
          "type": "string"
        }
      ],
      "name": "IpnsUpdated",
      "type": "event"
    },
    {
      "inputs": [],
      "name": "farmId",
      "outputs": [
        {
          "internalType": "string",
          "name": "",
          "type": "string"
        }
      ],
      "stateMutability": "view",
      "type": "function"
    },
    {
      "inputs": [],
      "name": "gtwScAddr",
      "outputs": [
        {
          "internalType": "string",
          "name": "",
          "type": "string"
        }
      ],
      "stateMutability": "view",
      "type": "function"
    },
    {
      "inputs": [],
      "name": "outputIpnsPk",
      "outputs": [
        {
          "internalType": "string",
          "name": "",
          "type": "string"
        }
      ],
      "stateMutability": "view",
      "type": "function"
    },
    {
      "inputs": [],
      "name": "ready",
      "outputs": [
        {
          "internalType": "string",
          "name": "",
          "type": "string"
        }
      ],
      "stateMutability": "view",
      "type": "function"
    },
    {
      "inputs": [
        {
          "internalType": "string",
          "name": "_device_id",
          "type": "string"
        }
      ],
      "name": "requestDeviceData",
      "outputs": [
        {
          "internalType": "string",
          "name": "",
          "type": "string"
        }
      ],
      "stateMutability": "nonpayable",
      "type": "function"
    },
    {
      "inputs": [],
      "name": "requestFarmData",
      "outputs": [
        {
          "internalType": "string",
          "name": "",
          "type": "string"
        }
      ],
      "stateMutability": "nonpayable",
      "type": "function"
    },
    {
      "inputs": [
        {
          "internalType": "string",
          "name": "_gtw_sc_addr",
          "type": "string"
        }
      ],
      "name": "setGtwScAddr",
      "outputs": [],
      "stateMutability": "nonpayable",
      "type": "function"
    },
    {
      "inputs": [
        {
          "internalType": "string",
          "name": "_ready",
          "type": "string"
        }
      ],
      "name": "setReadyFlag",
      "outputs": [],
      "stateMutability": "nonpayable",
      "type": "function"
    },
    {
      "inputs": [
        {
          "internalType": "string",
          "name": "_output_ipns_pk",
          "type": "string"
        }
      ],
      "name": "updateIpnsPk",
      "outputs": [],
      "stateMutability": "nonpayable",
      "type": "function"
    }
  ],
  "bytecode": "0x60806040523480156200001157600080fd5b5060405162000d3f38038062000d3f83398181016040528101906200003791906200035a565b81600090805190602001906200004f9291906200010d565b508060019080519060200190620000689291906200010d565b506040518060400160405280600181526020017f300000000000000000000000000000000000000000000000000000000000000081525060029080519060200190620000b69291906200010d565b506040518060400160405280600181526020017f300000000000000000000000000000000000000000000000000000000000000081525060039080519060200190620001049291906200010d565b50505062000444565b8280546200011b906200040e565b90600052602060002090601f0160209004810192826200013f57600085556200018b565b82601f106200015a57805160ff19168380011785556200018b565b828001600101855582156200018b579182015b828111156200018a5782518255916020019190600101906200016d565b5b5090506200019a91906200019e565b5090565b5b80821115620001b95760008160009055506001016200019f565b5090565b6000604051905090565b600080fd5b600080fd5b600080fd5b600080fd5b6000601f19601f8301169050919050565b7f4e487b7100000000000000000000000000000000000000000000000000000000600052604160045260246000fd5b6200022682620001db565b810181811067ffffffffffffffff82111715620002485762000247620001ec565b5b80604052505050565b60006200025d620001bd565b90506200026b82826200021b565b919050565b600067ffffffffffffffff8211156200028e576200028d620001ec565b5b6200029982620001db565b9050602081019050919050565b60005b83811015620002c6578082015181840152602081019050620002a9565b83811115620002d6576000848401525b50505050565b6000620002f3620002ed8462000270565b62000251565b905082815260208101848484011115620003125762000311620001d6565b5b6200031f848285620002a6565b509392505050565b600082601f8301126200033f576200033e620001d1565b5b815162000351848260208601620002dc565b91505092915050565b60008060408385031215620003745762000373620001c7565b5b600083015167ffffffffffffffff811115620003955762000394620001cc565b5b620003a38582860162000327565b925050602083015167ffffffffffffffff811115620003c757620003c6620001cc565b5b620003d58582860162000327565b9150509250929050565b7f4e487b7100000000000000000000000000000000000000000000000000000000600052602260045260246000fd5b600060028204905060018216806200042757607f821691505b602082108114156200043e576200043d620003df565b5b50919050565b6108eb80620004546000396000f3fe608060405234801561001057600080fd5b50600436106100935760003560e01c806349e3915b1161006657806349e3915b146101205780636defbf801461013e5780638c22deaf1461015c578063a8cf759314610178578063b8efc6fa1461019657610093565b80630f9618c614610098578063278de000146100b65780633ad0060d146100d4578063475fc0f4146100f0575b600080fd5b6100a06101b2565b6040516100ad9190610650565b60405180910390f35b6100be610240565b6040516100cb9190610650565b60405180910390f35b6100ee60048036038101906100e991906107bb565b6102ce565b005b61010a600480360381019061010591906107bb565b6102e8565b6040516101179190610650565b60405180910390f35b610128610341565b6040516101359190610650565b60405180910390f35b61014661038d565b6040516101539190610650565b60405180910390f35b610176600480360381019061017191906107bb565b61041b565b005b61018061046c565b60405161018d9190610650565b60405180910390f35b6101b060048036038101906101ab91906107bb565b6104fa565b005b600380546101bf90610833565b80601f01602080910402602001604051908101604052809291908181526020018280546101eb90610833565b80156102385780601f1061020d57610100808354040283529160200191610238565b820191906000526020600020905b81548152906001019060200180831161021b57829003601f168201915b505050505081565b6000805461024d90610833565b80601f016020809104026020016040519081016040528092919081815260200182805461027990610833565b80156102c65780601f1061029b576101008083540402835291602001916102c6565b820191906000526020600020905b8154815290600101906020018083116102a957829003601f168201915b505050505081565b80600390805190602001906102e4929190610514565b5050565b60607f92c8ae1be97440da1f7f30fb5b39a98e3e352284ec632f81dbe4968ec35f5696826040516103199190610650565b60405180910390a160405180606001604052806029815260200161088d602991399050919050565b60607f513f2213bca64463a207dd663bec29171d4ab06a1b71a1fd8c4bd2e66c6837d560405160405180910390a160405180606001604052806027815260200161086660279139905090565b6002805461039a90610833565b80601f01602080910402602001604051908101604052809291908181526020018280546103c690610833565b80156104135780601f106103e857610100808354040283529160200191610413565b820191906000526020600020905b8154815290600101906020018083116103f657829003601f168201915b505050505081565b8060019080519060200190610431929190610514565b507f275554b9e84105477212781091b7b08f2b148d56eee0f3c2f8ffd99730cb853c816040516104619190610650565b60405180910390a150565b6001805461047990610833565b80601f01602080910402602001604051908101604052809291908181526020018280546104a590610833565b80156104f25780601f106104c7576101008083540402835291602001916104f2565b820191906000526020600020905b8154815290600101906020018083116104d557829003601f168201915b505050505081565b8060029080519060200190610510929190610514565b5050565b82805461052090610833565b90600052602060002090601f0160209004810192826105425760008555610589565b82601f1061055b57805160ff1916838001178555610589565b82800160010185558215610589579182015b8281111561058857825182559160200191906001019061056d565b5b509050610596919061059a565b5090565b5b808211156105b357600081600090555060010161059b565b5090565b600081519050919050565b600082825260208201905092915050565b60005b838110156105f15780820151818401526020810190506105d6565b83811115610600576000848401525b50505050565b6000601f19601f8301169050919050565b6000610622826105b7565b61062c81856105c2565b935061063c8185602086016105d3565b61064581610606565b840191505092915050565b6000602082019050818103600083015261066a8184610617565b905092915050565b6000604051905090565b600080fd5b600080fd5b600080fd5b600080fd5b7f4e487b7100000000000000000000000000000000000000000000000000000000600052604160045260246000fd5b6106c882610606565b810181811067ffffffffffffffff821117156106e7576106e6610690565b5b80604052505050565b60006106fa610672565b905061070682826106bf565b919050565b600067ffffffffffffffff82111561072657610725610690565b5b61072f82610606565b9050602081019050919050565b82818337600083830152505050565b600061075e6107598461070b565b6106f0565b90508281526020810184848401111561077a5761077961068b565b5b61078584828561073c565b509392505050565b600082601f8301126107a2576107a1610686565b5b81356107b284826020860161074b565b91505092915050565b6000602082840312156107d1576107d061067c565b5b600082013567ffffffffffffffff8111156107ef576107ee610681565b5b6107fb8482850161078d565b91505092915050565b7f4e487b7100000000000000000000000000000000000000000000000000000000600052602260045260246000fd5b6000600282049050600182168061084b57607f821691505b6020821081141561085f5761085e610804565b5b5091905056fe4661726d2064617461207265717565737465642120436865636b207468652049504e53206b65794465766963652064617461207265717565737465642120436865636b207468652049504e53206b6579a2646970667358221220fabd4d65d1a6209b7a3edfe9dfa7a098ab6616444a468dd2d8c5b55412d19f6d64736f6c63430008090033",
  "linkReferences": {},
  "deployedLinkReferences": {}
}