{"contracts/Gateway_Catalog.sol":{"GatewayCatalog":{"abi":[{"inputs":[],"name":"catalogIpnsKey","outputs":[{"internalType":"string","name":"","type":"string"}],"stateMutability":"view","type":"function"},{"inputs":[],"name":"outputIpnsKey","outputs":[{"internalType":"string","name":"","type":"string"}],"stateMutability":"view","type":"function"},{"inputs":[],"name":"privateKeyCid","outputs":[{"internalType":"string","name":"","type":"string"}],"stateMutability":"view","type":"function"},{"inputs":[{"internalType":"string","name":"_caralog_ipns_key","type":"string"}],"name":"setCatalogIpnsKey","outputs":[],"stateMutability":"nonpayable","type":"function"},{"inputs":[{"internalType":"string","name":"_output_ipns_key","type":"string"}],"name":"setOuputIpnsKey","outputs":[],"stateMutability":"nonpayable","type":"function"},{"inputs":[{"internalType":"string","name":"_sk_cid","type":"string"}],"name":"setPrivateKeyCid","outputs":[],"stateMutability":"nonpayable","type":"function"}],"evm":{"bytecode":{"linkReferences":{},"object":"608060405234801561001057600080fd5b50610694806100206000396000f3fe608060405234801561001057600080fd5b50600436106100625760003560e01c80632b7853ef14610067578063462659ee1461008557806379ad054f146100a3578063ad5c8576146100bf578063e20b937f146100db578063f378da5d146100f9575b600080fd5b61006f610115565b60405161007c9190610449565b60405180910390f35b61008d6101a3565b60405161009a9190610449565b60405180910390f35b6100bd60048036038101906100b891906105b4565b610231565b005b6100d960048036038101906100d491906105b4565b61024b565b005b6100e3610265565b6040516100f09190610449565b60405180910390f35b610113600480360381019061010e91906105b4565b6102f3565b005b600180546101229061062c565b80601f016020809104026020016040519081016040528092919081815260200182805461014e9061062c565b801561019b5780601f106101705761010080835404028352916020019161019b565b820191906000526020600020905b81548152906001019060200180831161017e57829003601f168201915b505050505081565b600280546101b09061062c565b80601f01602080910402602001604051908101604052809291908181526020018280546101dc9061062c565b80156102295780601f106101fe57610100808354040283529160200191610229565b820191906000526020600020905b81548152906001019060200180831161020c57829003601f168201915b505050505081565b806000908051906020019061024792919061030d565b5050565b806001908051906020019061026192919061030d565b5050565b600080546102729061062c565b80601f016020809104026020016040519081016040528092919081815260200182805461029e9061062c565b80156102eb5780601f106102c0576101008083540402835291602001916102eb565b820191906000526020600020905b8154815290600101906020018083116102ce57829003601f168201915b505050505081565b806002908051906020019061030992919061030d565b5050565b8280546103199061062c565b90600052602060002090601f01602090048101928261033b5760008555610382565b82601f1061035457805160ff1916838001178555610382565b82800160010185558215610382579182015b82811115610381578251825591602001919060010190610366565b5b50905061038f9190610393565b5090565b5b808211156103ac576000816000905550600101610394565b5090565b600081519050919050565b600082825260208201905092915050565b60005b838110156103ea5780820151818401526020810190506103cf565b838111156103f9576000848401525b50505050565b6000601f19601f8301169050919050565b600061041b826103b0565b61042581856103bb565b93506104358185602086016103cc565b61043e816103ff565b840191505092915050565b600060208201905081810360008301526104638184610410565b905092915050565b6000604051905090565b600080fd5b600080fd5b600080fd5b600080fd5b7f4e487b7100000000000000000000000000000000000000000000000000000000600052604160045260246000fd5b6104c1826103ff565b810181811067ffffffffffffffff821117156104e0576104df610489565b5b80604052505050565b60006104f361046b565b90506104ff82826104b8565b919050565b600067ffffffffffffffff82111561051f5761051e610489565b5b610528826103ff565b9050602081019050919050565b82818337600083830152505050565b600061055761055284610504565b6104e9565b90508281526020810184848401111561057357610572610484565b5b61057e848285610535565b509392505050565b600082601f83011261059b5761059a61047f565b5b81356105ab848260208601610544565b91505092915050565b6000602082840312156105ca576105c9610475565b5b600082013567ffffffffffffffff8111156105e8576105e761047a565b5b6105f484828501610586565b91505092915050565b7f4e487b7100000000000000000000000000000000000000000000000000000000600052602260045260246000fd5b6000600282049050600182168061064457607f821691505b60208210811415610658576106576105fd565b5b5091905056fea2646970667358221220d105620f075268df6bc3fb67df45480b35ea425cb5356b759a238a286b67656364736f6c63430008090033","opcodes":"PUSH1 0x80 PUSH1 0x40 MSTORE CALLVALUE DUP1 ISZERO PUSH2 0x10 JUMPI PUSH1 0x0 DUP1 REVERT JUMPDEST POP PUSH2 0x694 DUP1 PUSH2 0x20 PUSH1 0x0 CODECOPY PUSH1 0x0 RETURN INVALID PUSH1 0x80 PUSH1 0x40 MSTORE CALLVALUE DUP1 ISZERO PUSH2 0x10 JUMPI PUSH1 0x0 DUP1 REVERT JUMPDEST POP PUSH1 0x4 CALLDATASIZE LT PUSH2 0x62 JUMPI PUSH1 0x0 CALLDATALOAD PUSH1 0xE0 SHR DUP1 PUSH4 0x2B7853EF EQ PUSH2 0x67 JUMPI DUP1 PUSH4 0x462659EE EQ PUSH2 0x85 JUMPI DUP1 PUSH4 0x79AD054F EQ PUSH2 0xA3 JUMPI DUP1 PUSH4 0xAD5C8576 EQ PUSH2 0xBF JUMPI DUP1 PUSH4 0xE20B937F EQ PUSH2 0xDB JUMPI DUP1 PUSH4 0xF378DA5D EQ PUSH2 0xF9 JUMPI JUMPDEST PUSH1 0x0 DUP1 REVERT JUMPDEST PUSH2 0x6F PUSH2 0x115 JUMP JUMPDEST PUSH1 0x40 MLOAD PUSH2 0x7C SWAP2 SWAP1 PUSH2 0x449 JUMP JUMPDEST PUSH1 0x40 MLOAD DUP1 SWAP2 SUB SWAP1 RETURN JUMPDEST PUSH2 0x8D PUSH2 0x1A3 JUMP JUMPDEST PUSH1 0x40 MLOAD PUSH2 0x9A SWAP2 SWAP1 PUSH2 0x449 JUMP JUMPDEST PUSH1 0x40 MLOAD DUP1 SWAP2 SUB SWAP1 RETURN JUMPDEST PUSH2 0xBD PUSH1 0x4 DUP1 CALLDATASIZE SUB DUP2 ADD SWAP1 PUSH2 0xB8 SWAP2 SWAP1 PUSH2 0x5B4 JUMP JUMPDEST PUSH2 0x231 JUMP JUMPDEST STOP JUMPDEST PUSH2 0xD9 PUSH1 0x4 DUP1 CALLDATASIZE SUB DUP2 ADD SWAP1 PUSH2 0xD4 SWAP2 SWAP1 PUSH2 0x5B4 JUMP JUMPDEST PUSH2 0x24B JUMP JUMPDEST STOP JUMPDEST PUSH2 0xE3 PUSH2 0x265 JUMP JUMPDEST PUSH1 0x40 MLOAD PUSH2 0xF0 SWAP2 SWAP1 PUSH2 0x449 JUMP JUMPDEST PUSH1 0x40 MLOAD DUP1 SWAP2 SUB SWAP1 RETURN JUMPDEST PUSH2 0x113 PUSH1 0x4 DUP1 CALLDATASIZE SUB DUP2 ADD SWAP1 PUSH2 0x10E SWAP2 SWAP1 PUSH2 0x5B4 JUMP JUMPDEST PUSH2 0x2F3 JUMP JUMPDEST STOP JUMPDEST PUSH1 0x1 DUP1 SLOAD PUSH2 0x122 SWAP1 PUSH2 0x62C JUMP JUMPDEST DUP1 PUSH1 0x1F ADD PUSH1 0x20 DUP1 SWAP2 DIV MUL PUSH1 0x20 ADD PUSH1 0x40 MLOAD SWAP1 DUP2 ADD PUSH1 0x40 MSTORE DUP1 SWAP3 SWAP2 SWAP1 DUP2 DUP2 MSTORE PUSH1 0x20 ADD DUP3 DUP1 SLOAD PUSH2 0x14E SWAP1 PUSH2 0x62C JUMP JUMPDEST DUP1 ISZERO PUSH2 0x19B JUMPI DUP1 PUSH1 0x1F LT PUSH2 0x170 JUMPI PUSH2 0x100 DUP1 DUP4 SLOAD DIV MUL DUP4 MSTORE SWAP2 PUSH1 0x20 ADD SWAP2 PUSH2 0x19B JUMP JUMPDEST DUP3 ADD SWAP2 SWAP1 PUSH1 0x0 MSTORE PUSH1 0x20 PUSH1 0x0 KECCAK256 SWAP1 JUMPDEST DUP2 SLOAD DUP2 MSTORE SWAP1 PUSH1 0x1 ADD SWAP1 PUSH1 0x20 ADD DUP1 DUP4 GT PUSH2 0x17E JUMPI DUP3 SWAP1 SUB PUSH1 0x1F AND DUP3 ADD SWAP2 JUMPDEST POP POP POP POP POP DUP2 JUMP JUMPDEST PUSH1 0x2 DUP1 SLOAD PUSH2 0x1B0 SWAP1 PUSH2 0x62C JUMP JUMPDEST DUP1 PUSH1 0x1F ADD PUSH1 0x20 DUP1 SWAP2 DIV MUL PUSH1 0x20 ADD PUSH1 0x40 MLOAD SWAP1 DUP2 ADD PUSH1 0x40 MSTORE DUP1 SWAP3 SWAP2 SWAP1 DUP2 DUP2 MSTORE PUSH1 0x20 ADD DUP3 DUP1 SLOAD PUSH2 0x1DC SWAP1 PUSH2 0x62C JUMP JUMPDEST DUP1 ISZERO PUSH2 0x229 JUMPI DUP1 PUSH1 0x1F LT PUSH2 0x1FE JUMPI PUSH2 0x100 DUP1 DUP4 SLOAD DIV MUL DUP4 MSTORE SWAP2 PUSH1 0x20 ADD SWAP2 PUSH2 0x229 JUMP JUMPDEST DUP3 ADD SWAP2 SWAP1 PUSH1 0x0 MSTORE PUSH1 0x20 PUSH1 0x0 KECCAK256 SWAP1 JUMPDEST DUP2 SLOAD DUP2 MSTORE SWAP1 PUSH1 0x1 ADD SWAP1 PUSH1 0x20 ADD DUP1 DUP4 GT PUSH2 0x20C JUMPI DUP3 SWAP1 SUB PUSH1 0x1F AND DUP3 ADD SWAP2 JUMPDEST POP POP POP POP POP DUP2 JUMP JUMPDEST DUP1 PUSH1 0x0 SWAP1 DUP1 MLOAD SWAP1 PUSH1 0x20 ADD SWAP1 PUSH2 0x247 SWAP3 SWAP2 SWAP1 PUSH2 0x30D JUMP JUMPDEST POP POP JUMP JUMPDEST DUP1 PUSH1 0x1 SWAP1 DUP1 MLOAD SWAP1 PUSH1 0x20 ADD SWAP1 PUSH2 0x261 SWAP3 SWAP2 SWAP1 PUSH2 0x30D JUMP JUMPDEST POP POP JUMP JUMPDEST PUSH1 0x0 DUP1 SLOAD PUSH2 0x272 SWAP1 PUSH2 0x62C JUMP JUMPDEST DUP1 PUSH1 0x1F ADD PUSH1 0x20 DUP1 SWAP2 DIV MUL PUSH1 0x20 ADD PUSH1 0x40 MLOAD SWAP1 DUP2 ADD PUSH1 0x40 MSTORE DUP1 SWAP3 SWAP2 SWAP1 DUP2 DUP2 MSTORE PUSH1 0x20 ADD DUP3 DUP1 SLOAD PUSH2 0x29E SWAP1 PUSH2 0x62C JUMP JUMPDEST DUP1 ISZERO PUSH2 0x2EB JUMPI DUP1 PUSH1 0x1F LT PUSH2 0x2C0 JUMPI PUSH2 0x100 DUP1 DUP4 SLOAD DIV MUL DUP4 MSTORE SWAP2 PUSH1 0x20 ADD SWAP2 PUSH2 0x2EB JUMP JUMPDEST DUP3 ADD SWAP2 SWAP1 PUSH1 0x0 MSTORE PUSH1 0x20 PUSH1 0x0 KECCAK256 SWAP1 JUMPDEST DUP2 SLOAD DUP2 MSTORE SWAP1 PUSH1 0x1 ADD SWAP1 PUSH1 0x20 ADD DUP1 DUP4 GT PUSH2 0x2CE JUMPI DUP3 SWAP1 SUB PUSH1 0x1F AND DUP3 ADD SWAP2 JUMPDEST POP POP POP POP POP DUP2 JUMP JUMPDEST DUP1 PUSH1 0x2 SWAP1 DUP1 MLOAD SWAP1 PUSH1 0x20 ADD SWAP1 PUSH2 0x309 SWAP3 SWAP2 SWAP1 PUSH2 0x30D JUMP JUMPDEST POP POP JUMP JUMPDEST DUP3 DUP1 SLOAD PUSH2 0x319 SWAP1 PUSH2 0x62C JUMP JUMPDEST SWAP1 PUSH1 0x0 MSTORE PUSH1 0x20 PUSH1 0x0 KECCAK256 SWAP1 PUSH1 0x1F ADD PUSH1 0x20 SWAP1 DIV DUP2 ADD SWAP3 DUP3 PUSH2 0x33B JUMPI PUSH1 0x0 DUP6 SSTORE PUSH2 0x382 JUMP JUMPDEST DUP3 PUSH1 0x1F LT PUSH2 0x354 JUMPI DUP1 MLOAD PUSH1 0xFF NOT AND DUP4 DUP1 ADD OR DUP6 SSTORE PUSH2 0x382 JUMP JUMPDEST DUP3 DUP1 ADD PUSH1 0x1 ADD DUP6 SSTORE DUP3 ISZERO PUSH2 0x382 JUMPI SWAP2 DUP3 ADD JUMPDEST DUP3 DUP2 GT ISZERO PUSH2 0x381 JUMPI DUP3 MLOAD DUP3 SSTORE SWAP2 PUSH1 0x20 ADD SWAP2 SWAP1 PUSH1 0x1 ADD SWAP1 PUSH2 0x366 JUMP JUMPDEST JUMPDEST POP SWAP1 POP PUSH2 0x38F SWAP2 SWAP1 PUSH2 0x393 JUMP JUMPDEST POP SWAP1 JUMP JUMPDEST JUMPDEST DUP1 DUP3 GT ISZERO PUSH2 0x3AC JUMPI PUSH1 0x0 DUP2 PUSH1 0x0 SWAP1 SSTORE POP PUSH1 0x1 ADD PUSH2 0x394 JUMP JUMPDEST POP SWAP1 JUMP JUMPDEST PUSH1 0x0 DUP2 MLOAD SWAP1 POP SWAP2 SWAP1 POP JUMP JUMPDEST PUSH1 0x0 DUP3 DUP3 MSTORE PUSH1 0x20 DUP3 ADD SWAP1 POP SWAP3 SWAP2 POP POP JUMP JUMPDEST PUSH1 0x0 JUMPDEST DUP4 DUP2 LT ISZERO PUSH2 0x3EA JUMPI DUP1 DUP3 ADD MLOAD DUP2 DUP5 ADD MSTORE PUSH1 0x20 DUP2 ADD SWAP1 POP PUSH2 0x3CF JUMP JUMPDEST DUP4 DUP2 GT ISZERO PUSH2 0x3F9 JUMPI PUSH1 0x0 DUP5 DUP5 ADD MSTORE JUMPDEST POP POP POP POP JUMP JUMPDEST PUSH1 0x0 PUSH1 0x1F NOT PUSH1 0x1F DUP4 ADD AND SWAP1 POP SWAP2 SWAP1 POP JUMP JUMPDEST PUSH1 0x0 PUSH2 0x41B DUP3 PUSH2 0x3B0 JUMP JUMPDEST PUSH2 0x425 DUP2 DUP6 PUSH2 0x3BB JUMP JUMPDEST SWAP4 POP PUSH2 0x435 DUP2 DUP6 PUSH1 0x20 DUP7 ADD PUSH2 0x3CC JUMP JUMPDEST PUSH2 0x43E DUP2 PUSH2 0x3FF JUMP JUMPDEST DUP5 ADD SWAP2 POP POP SWAP3 SWAP2 POP POP JUMP JUMPDEST PUSH1 0x0 PUSH1 0x20 DUP3 ADD SWAP1 POP DUP2 DUP2 SUB PUSH1 0x0 DUP4 ADD MSTORE PUSH2 0x463 DUP2 DUP5 PUSH2 0x410 JUMP JUMPDEST SWAP1 POP SWAP3 SWAP2 POP POP JUMP JUMPDEST PUSH1 0x0 PUSH1 0x40 MLOAD SWAP1 POP SWAP1 JUMP JUMPDEST PUSH1 0x0 DUP1 REVERT JUMPDEST PUSH1 0x0 DUP1 REVERT JUMPDEST PUSH1 0x0 DUP1 REVERT JUMPDEST PUSH1 0x0 DUP1 REVERT JUMPDEST PUSH32 0x4E487B7100000000000000000000000000000000000000000000000000000000 PUSH1 0x0 MSTORE PUSH1 0x41 PUSH1 0x4 MSTORE PUSH1 0x24 PUSH1 0x0 REVERT JUMPDEST PUSH2 0x4C1 DUP3 PUSH2 0x3FF JUMP JUMPDEST DUP2 ADD DUP2 DUP2 LT PUSH8 0xFFFFFFFFFFFFFFFF DUP3 GT OR ISZERO PUSH2 0x4E0 JUMPI PUSH2 0x4DF PUSH2 0x489 JUMP JUMPDEST JUMPDEST DUP1 PUSH1 0x40 MSTORE POP POP POP JUMP JUMPDEST PUSH1 0x0 PUSH2 0x4F3 PUSH2 0x46B JUMP JUMPDEST SWAP1 POP PUSH2 0x4FF DUP3 DUP3 PUSH2 0x4B8 JUMP JUMPDEST SWAP2 SWAP1 POP JUMP JUMPDEST PUSH1 0x0 PUSH8 0xFFFFFFFFFFFFFFFF DUP3 GT ISZERO PUSH2 0x51F JUMPI PUSH2 0x51E PUSH2 0x489 JUMP JUMPDEST JUMPDEST PUSH2 0x528 DUP3 PUSH2 0x3FF JUMP JUMPDEST SWAP1 POP PUSH1 0x20 DUP2 ADD SWAP1 POP SWAP2 SWAP1 POP JUMP JUMPDEST DUP3 DUP2 DUP4 CALLDATACOPY PUSH1 0x0 DUP4 DUP4 ADD MSTORE POP POP POP JUMP JUMPDEST PUSH1 0x0 PUSH2 0x557 PUSH2 0x552 DUP5 PUSH2 0x504 JUMP JUMPDEST PUSH2 0x4E9 JUMP JUMPDEST SWAP1 POP DUP3 DUP2 MSTORE PUSH1 0x20 DUP2 ADD DUP5 DUP5 DUP5 ADD GT ISZERO PUSH2 0x573 JUMPI PUSH2 0x572 PUSH2 0x484 JUMP JUMPDEST JUMPDEST PUSH2 0x57E DUP5 DUP3 DUP6 PUSH2 0x535 JUMP JUMPDEST POP SWAP4 SWAP3 POP POP POP JUMP JUMPDEST PUSH1 0x0 DUP3 PUSH1 0x1F DUP4 ADD SLT PUSH2 0x59B JUMPI PUSH2 0x59A PUSH2 0x47F JUMP JUMPDEST JUMPDEST DUP2 CALLDATALOAD PUSH2 0x5AB DUP5 DUP3 PUSH1 0x20 DUP7 ADD PUSH2 0x544 JUMP JUMPDEST SWAP2 POP POP SWAP3 SWAP2 POP POP JUMP JUMPDEST PUSH1 0x0 PUSH1 0x20 DUP3 DUP5 SUB SLT ISZERO PUSH2 0x5CA JUMPI PUSH2 0x5C9 PUSH2 0x475 JUMP JUMPDEST JUMPDEST PUSH1 0x0 DUP3 ADD CALLDATALOAD PUSH8 0xFFFFFFFFFFFFFFFF DUP2 GT ISZERO PUSH2 0x5E8 JUMPI PUSH2 0x5E7 PUSH2 0x47A JUMP JUMPDEST JUMPDEST PUSH2 0x5F4 DUP5 DUP3 DUP6 ADD PUSH2 0x586 JUMP JUMPDEST SWAP2 POP POP SWAP3 SWAP2 POP POP JUMP JUMPDEST PUSH32 0x4E487B7100000000000000000000000000000000000000000000000000000000 PUSH1 0x0 MSTORE PUSH1 0x22 PUSH1 0x4 MSTORE PUSH1 0x24 PUSH1 0x0 REVERT JUMPDEST PUSH1 0x0 PUSH1 0x2 DUP3 DIV SWAP1 POP PUSH1 0x1 DUP3 AND DUP1 PUSH2 0x644 JUMPI PUSH1 0x7F DUP3 AND SWAP2 POP JUMPDEST PUSH1 0x20 DUP3 LT DUP2 EQ ISZERO PUSH2 0x658 JUMPI PUSH2 0x657 PUSH2 0x5FD JUMP JUMPDEST JUMPDEST POP SWAP2 SWAP1 POP JUMP INVALID LOG2 PUSH5 0x6970667358 0x22 SLT KECCAK256 0xD1 SDIV PUSH3 0xF0752 PUSH9 0xDF6BC3FB67DF45480B CALLDATALOAD 0xEA TIMESTAMP 0x5C 0xB5 CALLDATALOAD PUSH12 0x759A238A286B67656364736F PUSH13 0x63430008090033000000000000 "},"methodIdentifiers":{"catalogIpnsKey()":"e20b937f","outputIpnsKey()":"2b7853ef","privateKeyCid()":"462659ee","setCatalogIpnsKey(string)":"79ad054f","setOuputIpnsKey(string)":"ad5c8576","setPrivateKeyCid(string)":"f378da5d"}}}}}