{"contracts/Gateway_Catalog.sol":{"GatewayCatalog":{"abi":[{"inputs":[],"name":"catalogIpnsKey","outputs":[{"internalType":"string","name":"","type":"string"}],"stateMutability":"view","type":"function"},{"inputs":[],"name":"outputIpnsKey","outputs":[{"internalType":"string","name":"","type":"string"}],"stateMutability":"view","type":"function"},{"inputs":[],"name":"outputIpnsPrivateKey","outputs":[{"internalType":"string","name":"","type":"string"}],"stateMutability":"view","type":"function"},{"inputs":[],"name":"privateKeyCid","outputs":[{"internalType":"string","name":"","type":"string"}],"stateMutability":"view","type":"function"},{"inputs":[{"internalType":"string","name":"_caralog_ipns_key","type":"string"}],"name":"setCatalogIpnsKey","outputs":[],"stateMutability":"nonpayable","type":"function"},{"inputs":[{"internalType":"string","name":"_output_ipns_key","type":"string"}],"name":"setOuputIpnsKey","outputs":[],"stateMutability":"nonpayable","type":"function"},{"inputs":[{"internalType":"string","name":"_output_ipns_private_key","type":"string"}],"name":"setOutputIpnsPrivateKey","outputs":[],"stateMutability":"nonpayable","type":"function"},{"inputs":[{"internalType":"string","name":"_sk_cid","type":"string"}],"name":"setPrivateKeyCid","outputs":[],"stateMutability":"nonpayable","type":"function"}],"evm":{"bytecode":{"linkReferences":{},"object":"608060405234801561001057600080fd5b5061079c806100206000396000f3fe608060405234801561001057600080fd5b50600436106100885760003560e01c806379ad054f1161005b57806379ad054f14610103578063ad5c85761461011f578063e20b937f1461013b578063f378da5d1461015957610088565b806317d540201461008d5780632b7853ef146100a9578063462659ee146100c75780636bbaf770146100e5575b600080fd5b6100a760048036038101906100a29190610612565b610175565b005b6100b161018f565b6040516100be91906106e3565b60405180910390f35b6100cf61021d565b6040516100dc91906106e3565b60405180910390f35b6100ed6102ab565b6040516100fa91906106e3565b60405180910390f35b61011d60048036038101906101189190610612565b610339565b005b61013960048036038101906101349190610612565b610353565b005b61014361036d565b60405161015091906106e3565b60405180910390f35b610173600480360381019061016e9190610612565b6103fb565b005b806002908051906020019061018b929190610415565b5050565b6001805461019c90610734565b80601f01602080910402602001604051908101604052809291908181526020018280546101c890610734565b80156102155780601f106101ea57610100808354040283529160200191610215565b820191906000526020600020905b8154815290600101906020018083116101f857829003601f168201915b505050505081565b6003805461022a90610734565b80601f016020809104026020016040519081016040528092919081815260200182805461025690610734565b80156102a35780601f10610278576101008083540402835291602001916102a3565b820191906000526020600020905b81548152906001019060200180831161028657829003601f168201915b505050505081565b600280546102b890610734565b80601f01602080910402602001604051908101604052809291908181526020018280546102e490610734565b80156103315780601f1061030657610100808354040283529160200191610331565b820191906000526020600020905b81548152906001019060200180831161031457829003601f168201915b505050505081565b806000908051906020019061034f929190610415565b5050565b8060019080519060200190610369929190610415565b5050565b6000805461037a90610734565b80601f01602080910402602001604051908101604052809291908181526020018280546103a690610734565b80156103f35780601f106103c8576101008083540402835291602001916103f3565b820191906000526020600020905b8154815290600101906020018083116103d657829003601f168201915b505050505081565b8060039080519060200190610411929190610415565b5050565b82805461042190610734565b90600052602060002090601f016020900481019282610443576000855561048a565b82601f1061045c57805160ff191683800117855561048a565b8280016001018555821561048a579182015b8281111561048957825182559160200191906001019061046e565b5b509050610497919061049b565b5090565b5b808211156104b457600081600090555060010161049c565b5090565b6000604051905090565b600080fd5b600080fd5b600080fd5b600080fd5b6000601f19601f8301169050919050565b7f4e487b7100000000000000000000000000000000000000000000000000000000600052604160045260246000fd5b61051f826104d6565b810181811067ffffffffffffffff8211171561053e5761053d6104e7565b5b80604052505050565b60006105516104b8565b905061055d8282610516565b919050565b600067ffffffffffffffff82111561057d5761057c6104e7565b5b610586826104d6565b9050602081019050919050565b82818337600083830152505050565b60006105b56105b084610562565b610547565b9050828152602081018484840111156105d1576105d06104d1565b5b6105dc848285610593565b509392505050565b600082601f8301126105f9576105f86104cc565b5b81356106098482602086016105a2565b91505092915050565b600060208284031215610628576106276104c2565b5b600082013567ffffffffffffffff811115610646576106456104c7565b5b610652848285016105e4565b91505092915050565b600081519050919050565b600082825260208201905092915050565b60005b8381101561069557808201518184015260208101905061067a565b838111156106a4576000848401525b50505050565b60006106b58261065b565b6106bf8185610666565b93506106cf818560208601610677565b6106d8816104d6565b840191505092915050565b600060208201905081810360008301526106fd81846106aa565b905092915050565b7f4e487b7100000000000000000000000000000000000000000000000000000000600052602260045260246000fd5b6000600282049050600182168061074c57607f821691505b602082108114156107605761075f610705565b5b5091905056fea2646970667358221220f7b99f56e7b75ee4af7b3815a57aee976ef6dffaff8c0d457cf0e554b0326f2c64736f6c63430008090033","opcodes":"PUSH1 0x80 PUSH1 0x40 MSTORE CALLVALUE DUP1 ISZERO PUSH2 0x10 JUMPI PUSH1 0x0 DUP1 REVERT JUMPDEST POP PUSH2 0x79C DUP1 PUSH2 0x20 PUSH1 0x0 CODECOPY PUSH1 0x0 RETURN INVALID PUSH1 0x80 PUSH1 0x40 MSTORE CALLVALUE DUP1 ISZERO PUSH2 0x10 JUMPI PUSH1 0x0 DUP1 REVERT JUMPDEST POP PUSH1 0x4 CALLDATASIZE LT PUSH2 0x88 JUMPI PUSH1 0x0 CALLDATALOAD PUSH1 0xE0 SHR DUP1 PUSH4 0x79AD054F GT PUSH2 0x5B JUMPI DUP1 PUSH4 0x79AD054F EQ PUSH2 0x103 JUMPI DUP1 PUSH4 0xAD5C8576 EQ PUSH2 0x11F JUMPI DUP1 PUSH4 0xE20B937F EQ PUSH2 0x13B JUMPI DUP1 PUSH4 0xF378DA5D EQ PUSH2 0x159 JUMPI PUSH2 0x88 JUMP JUMPDEST DUP1 PUSH4 0x17D54020 EQ PUSH2 0x8D JUMPI DUP1 PUSH4 0x2B7853EF EQ PUSH2 0xA9 JUMPI DUP1 PUSH4 0x462659EE EQ PUSH2 0xC7 JUMPI DUP1 PUSH4 0x6BBAF770 EQ PUSH2 0xE5 JUMPI JUMPDEST PUSH1 0x0 DUP1 REVERT JUMPDEST PUSH2 0xA7 PUSH1 0x4 DUP1 CALLDATASIZE SUB DUP2 ADD SWAP1 PUSH2 0xA2 SWAP2 SWAP1 PUSH2 0x612 JUMP JUMPDEST PUSH2 0x175 JUMP JUMPDEST STOP JUMPDEST PUSH2 0xB1 PUSH2 0x18F JUMP JUMPDEST PUSH1 0x40 MLOAD PUSH2 0xBE SWAP2 SWAP1 PUSH2 0x6E3 JUMP JUMPDEST PUSH1 0x40 MLOAD DUP1 SWAP2 SUB SWAP1 RETURN JUMPDEST PUSH2 0xCF PUSH2 0x21D JUMP JUMPDEST PUSH1 0x40 MLOAD PUSH2 0xDC SWAP2 SWAP1 PUSH2 0x6E3 JUMP JUMPDEST PUSH1 0x40 MLOAD DUP1 SWAP2 SUB SWAP1 RETURN JUMPDEST PUSH2 0xED PUSH2 0x2AB JUMP JUMPDEST PUSH1 0x40 MLOAD PUSH2 0xFA SWAP2 SWAP1 PUSH2 0x6E3 JUMP JUMPDEST PUSH1 0x40 MLOAD DUP1 SWAP2 SUB SWAP1 RETURN JUMPDEST PUSH2 0x11D PUSH1 0x4 DUP1 CALLDATASIZE SUB DUP2 ADD SWAP1 PUSH2 0x118 SWAP2 SWAP1 PUSH2 0x612 JUMP JUMPDEST PUSH2 0x339 JUMP JUMPDEST STOP JUMPDEST PUSH2 0x139 PUSH1 0x4 DUP1 CALLDATASIZE SUB DUP2 ADD SWAP1 PUSH2 0x134 SWAP2 SWAP1 PUSH2 0x612 JUMP JUMPDEST PUSH2 0x353 JUMP JUMPDEST STOP JUMPDEST PUSH2 0x143 PUSH2 0x36D JUMP JUMPDEST PUSH1 0x40 MLOAD PUSH2 0x150 SWAP2 SWAP1 PUSH2 0x6E3 JUMP JUMPDEST PUSH1 0x40 MLOAD DUP1 SWAP2 SUB SWAP1 RETURN JUMPDEST PUSH2 0x173 PUSH1 0x4 DUP1 CALLDATASIZE SUB DUP2 ADD SWAP1 PUSH2 0x16E SWAP2 SWAP1 PUSH2 0x612 JUMP JUMPDEST PUSH2 0x3FB JUMP JUMPDEST STOP JUMPDEST DUP1 PUSH1 0x2 SWAP1 DUP1 MLOAD SWAP1 PUSH1 0x20 ADD SWAP1 PUSH2 0x18B SWAP3 SWAP2 SWAP1 PUSH2 0x415 JUMP JUMPDEST POP POP JUMP JUMPDEST PUSH1 0x1 DUP1 SLOAD PUSH2 0x19C SWAP1 PUSH2 0x734 JUMP JUMPDEST DUP1 PUSH1 0x1F ADD PUSH1 0x20 DUP1 SWAP2 DIV MUL PUSH1 0x20 ADD PUSH1 0x40 MLOAD SWAP1 DUP2 ADD PUSH1 0x40 MSTORE DUP1 SWAP3 SWAP2 SWAP1 DUP2 DUP2 MSTORE PUSH1 0x20 ADD DUP3 DUP1 SLOAD PUSH2 0x1C8 SWAP1 PUSH2 0x734 JUMP JUMPDEST DUP1 ISZERO PUSH2 0x215 JUMPI DUP1 PUSH1 0x1F LT PUSH2 0x1EA JUMPI PUSH2 0x100 DUP1 DUP4 SLOAD DIV MUL DUP4 MSTORE SWAP2 PUSH1 0x20 ADD SWAP2 PUSH2 0x215 JUMP JUMPDEST DUP3 ADD SWAP2 SWAP1 PUSH1 0x0 MSTORE PUSH1 0x20 PUSH1 0x0 KECCAK256 SWAP1 JUMPDEST DUP2 SLOAD DUP2 MSTORE SWAP1 PUSH1 0x1 ADD SWAP1 PUSH1 0x20 ADD DUP1 DUP4 GT PUSH2 0x1F8 JUMPI DUP3 SWAP1 SUB PUSH1 0x1F AND DUP3 ADD SWAP2 JUMPDEST POP POP POP POP POP DUP2 JUMP JUMPDEST PUSH1 0x3 DUP1 SLOAD PUSH2 0x22A SWAP1 PUSH2 0x734 JUMP JUMPDEST DUP1 PUSH1 0x1F ADD PUSH1 0x20 DUP1 SWAP2 DIV MUL PUSH1 0x20 ADD PUSH1 0x40 MLOAD SWAP1 DUP2 ADD PUSH1 0x40 MSTORE DUP1 SWAP3 SWAP2 SWAP1 DUP2 DUP2 MSTORE PUSH1 0x20 ADD DUP3 DUP1 SLOAD PUSH2 0x256 SWAP1 PUSH2 0x734 JUMP JUMPDEST DUP1 ISZERO PUSH2 0x2A3 JUMPI DUP1 PUSH1 0x1F LT PUSH2 0x278 JUMPI PUSH2 0x100 DUP1 DUP4 SLOAD DIV MUL DUP4 MSTORE SWAP2 PUSH1 0x20 ADD SWAP2 PUSH2 0x2A3 JUMP JUMPDEST DUP3 ADD SWAP2 SWAP1 PUSH1 0x0 MSTORE PUSH1 0x20 PUSH1 0x0 KECCAK256 SWAP1 JUMPDEST DUP2 SLOAD DUP2 MSTORE SWAP1 PUSH1 0x1 ADD SWAP1 PUSH1 0x20 ADD DUP1 DUP4 GT PUSH2 0x286 JUMPI DUP3 SWAP1 SUB PUSH1 0x1F AND DUP3 ADD SWAP2 JUMPDEST POP POP POP POP POP DUP2 JUMP JUMPDEST PUSH1 0x2 DUP1 SLOAD PUSH2 0x2B8 SWAP1 PUSH2 0x734 JUMP JUMPDEST DUP1 PUSH1 0x1F ADD PUSH1 0x20 DUP1 SWAP2 DIV MUL PUSH1 0x20 ADD PUSH1 0x40 MLOAD SWAP1 DUP2 ADD PUSH1 0x40 MSTORE DUP1 SWAP3 SWAP2 SWAP1 DUP2 DUP2 MSTORE PUSH1 0x20 ADD DUP3 DUP1 SLOAD PUSH2 0x2E4 SWAP1 PUSH2 0x734 JUMP JUMPDEST DUP1 ISZERO PUSH2 0x331 JUMPI DUP1 PUSH1 0x1F LT PUSH2 0x306 JUMPI PUSH2 0x100 DUP1 DUP4 SLOAD DIV MUL DUP4 MSTORE SWAP2 PUSH1 0x20 ADD SWAP2 PUSH2 0x331 JUMP JUMPDEST DUP3 ADD SWAP2 SWAP1 PUSH1 0x0 MSTORE PUSH1 0x20 PUSH1 0x0 KECCAK256 SWAP1 JUMPDEST DUP2 SLOAD DUP2 MSTORE SWAP1 PUSH1 0x1 ADD SWAP1 PUSH1 0x20 ADD DUP1 DUP4 GT PUSH2 0x314 JUMPI DUP3 SWAP1 SUB PUSH1 0x1F AND DUP3 ADD SWAP2 JUMPDEST POP POP POP POP POP DUP2 JUMP JUMPDEST DUP1 PUSH1 0x0 SWAP1 DUP1 MLOAD SWAP1 PUSH1 0x20 ADD SWAP1 PUSH2 0x34F SWAP3 SWAP2 SWAP1 PUSH2 0x415 JUMP JUMPDEST POP POP JUMP JUMPDEST DUP1 PUSH1 0x1 SWAP1 DUP1 MLOAD SWAP1 PUSH1 0x20 ADD SWAP1 PUSH2 0x369 SWAP3 SWAP2 SWAP1 PUSH2 0x415 JUMP JUMPDEST POP POP JUMP JUMPDEST PUSH1 0x0 DUP1 SLOAD PUSH2 0x37A SWAP1 PUSH2 0x734 JUMP JUMPDEST DUP1 PUSH1 0x1F ADD PUSH1 0x20 DUP1 SWAP2 DIV MUL PUSH1 0x20 ADD PUSH1 0x40 MLOAD SWAP1 DUP2 ADD PUSH1 0x40 MSTORE DUP1 SWAP3 SWAP2 SWAP1 DUP2 DUP2 MSTORE PUSH1 0x20 ADD DUP3 DUP1 SLOAD PUSH2 0x3A6 SWAP1 PUSH2 0x734 JUMP JUMPDEST DUP1 ISZERO PUSH2 0x3F3 JUMPI DUP1 PUSH1 0x1F LT PUSH2 0x3C8 JUMPI PUSH2 0x100 DUP1 DUP4 SLOAD DIV MUL DUP4 MSTORE SWAP2 PUSH1 0x20 ADD SWAP2 PUSH2 0x3F3 JUMP JUMPDEST DUP3 ADD SWAP2 SWAP1 PUSH1 0x0 MSTORE PUSH1 0x20 PUSH1 0x0 KECCAK256 SWAP1 JUMPDEST DUP2 SLOAD DUP2 MSTORE SWAP1 PUSH1 0x1 ADD SWAP1 PUSH1 0x20 ADD DUP1 DUP4 GT PUSH2 0x3D6 JUMPI DUP3 SWAP1 SUB PUSH1 0x1F AND DUP3 ADD SWAP2 JUMPDEST POP POP POP POP POP DUP2 JUMP JUMPDEST DUP1 PUSH1 0x3 SWAP1 DUP1 MLOAD SWAP1 PUSH1 0x20 ADD SWAP1 PUSH2 0x411 SWAP3 SWAP2 SWAP1 PUSH2 0x415 JUMP JUMPDEST POP POP JUMP JUMPDEST DUP3 DUP1 SLOAD PUSH2 0x421 SWAP1 PUSH2 0x734 JUMP JUMPDEST SWAP1 PUSH1 0x0 MSTORE PUSH1 0x20 PUSH1 0x0 KECCAK256 SWAP1 PUSH1 0x1F ADD PUSH1 0x20 SWAP1 DIV DUP2 ADD SWAP3 DUP3 PUSH2 0x443 JUMPI PUSH1 0x0 DUP6 SSTORE PUSH2 0x48A JUMP JUMPDEST DUP3 PUSH1 0x1F LT PUSH2 0x45C JUMPI DUP1 MLOAD PUSH1 0xFF NOT AND DUP4 DUP1 ADD OR DUP6 SSTORE PUSH2 0x48A JUMP JUMPDEST DUP3 DUP1 ADD PUSH1 0x1 ADD DUP6 SSTORE DUP3 ISZERO PUSH2 0x48A JUMPI SWAP2 DUP3 ADD JUMPDEST DUP3 DUP2 GT ISZERO PUSH2 0x489 JUMPI DUP3 MLOAD DUP3 SSTORE SWAP2 PUSH1 0x20 ADD SWAP2 SWAP1 PUSH1 0x1 ADD SWAP1 PUSH2 0x46E JUMP JUMPDEST JUMPDEST POP SWAP1 POP PUSH2 0x497 SWAP2 SWAP1 PUSH2 0x49B JUMP JUMPDEST POP SWAP1 JUMP JUMPDEST JUMPDEST DUP1 DUP3 GT ISZERO PUSH2 0x4B4 JUMPI PUSH1 0x0 DUP2 PUSH1 0x0 SWAP1 SSTORE POP PUSH1 0x1 ADD PUSH2 0x49C JUMP JUMPDEST POP SWAP1 JUMP JUMPDEST PUSH1 0x0 PUSH1 0x40 MLOAD SWAP1 POP SWAP1 JUMP JUMPDEST PUSH1 0x0 DUP1 REVERT JUMPDEST PUSH1 0x0 DUP1 REVERT JUMPDEST PUSH1 0x0 DUP1 REVERT JUMPDEST PUSH1 0x0 DUP1 REVERT JUMPDEST PUSH1 0x0 PUSH1 0x1F NOT PUSH1 0x1F DUP4 ADD AND SWAP1 POP SWAP2 SWAP1 POP JUMP JUMPDEST PUSH32 0x4E487B7100000000000000000000000000000000000000000000000000000000 PUSH1 0x0 MSTORE PUSH1 0x41 PUSH1 0x4 MSTORE PUSH1 0x24 PUSH1 0x0 REVERT JUMPDEST PUSH2 0x51F DUP3 PUSH2 0x4D6 JUMP JUMPDEST DUP2 ADD DUP2 DUP2 LT PUSH8 0xFFFFFFFFFFFFFFFF DUP3 GT OR ISZERO PUSH2 0x53E JUMPI PUSH2 0x53D PUSH2 0x4E7 JUMP JUMPDEST JUMPDEST DUP1 PUSH1 0x40 MSTORE POP POP POP JUMP JUMPDEST PUSH1 0x0 PUSH2 0x551 PUSH2 0x4B8 JUMP JUMPDEST SWAP1 POP PUSH2 0x55D DUP3 DUP3 PUSH2 0x516 JUMP JUMPDEST SWAP2 SWAP1 POP JUMP JUMPDEST PUSH1 0x0 PUSH8 0xFFFFFFFFFFFFFFFF DUP3 GT ISZERO PUSH2 0x57D JUMPI PUSH2 0x57C PUSH2 0x4E7 JUMP JUMPDEST JUMPDEST PUSH2 0x586 DUP3 PUSH2 0x4D6 JUMP JUMPDEST SWAP1 POP PUSH1 0x20 DUP2 ADD SWAP1 POP SWAP2 SWAP1 POP JUMP JUMPDEST DUP3 DUP2 DUP4 CALLDATACOPY PUSH1 0x0 DUP4 DUP4 ADD MSTORE POP POP POP JUMP JUMPDEST PUSH1 0x0 PUSH2 0x5B5 PUSH2 0x5B0 DUP5 PUSH2 0x562 JUMP JUMPDEST PUSH2 0x547 JUMP JUMPDEST SWAP1 POP DUP3 DUP2 MSTORE PUSH1 0x20 DUP2 ADD DUP5 DUP5 DUP5 ADD GT ISZERO PUSH2 0x5D1 JUMPI PUSH2 0x5D0 PUSH2 0x4D1 JUMP JUMPDEST JUMPDEST PUSH2 0x5DC DUP5 DUP3 DUP6 PUSH2 0x593 JUMP JUMPDEST POP SWAP4 SWAP3 POP POP POP JUMP JUMPDEST PUSH1 0x0 DUP3 PUSH1 0x1F DUP4 ADD SLT PUSH2 0x5F9 JUMPI PUSH2 0x5F8 PUSH2 0x4CC JUMP JUMPDEST JUMPDEST DUP2 CALLDATALOAD PUSH2 0x609 DUP5 DUP3 PUSH1 0x20 DUP7 ADD PUSH2 0x5A2 JUMP JUMPDEST SWAP2 POP POP SWAP3 SWAP2 POP POP JUMP JUMPDEST PUSH1 0x0 PUSH1 0x20 DUP3 DUP5 SUB SLT ISZERO PUSH2 0x628 JUMPI PUSH2 0x627 PUSH2 0x4C2 JUMP JUMPDEST JUMPDEST PUSH1 0x0 DUP3 ADD CALLDATALOAD PUSH8 0xFFFFFFFFFFFFFFFF DUP2 GT ISZERO PUSH2 0x646 JUMPI PUSH2 0x645 PUSH2 0x4C7 JUMP JUMPDEST JUMPDEST PUSH2 0x652 DUP5 DUP3 DUP6 ADD PUSH2 0x5E4 JUMP JUMPDEST SWAP2 POP POP SWAP3 SWAP2 POP POP JUMP JUMPDEST PUSH1 0x0 DUP2 MLOAD SWAP1 POP SWAP2 SWAP1 POP JUMP JUMPDEST PUSH1 0x0 DUP3 DUP3 MSTORE PUSH1 0x20 DUP3 ADD SWAP1 POP SWAP3 SWAP2 POP POP JUMP JUMPDEST PUSH1 0x0 JUMPDEST DUP4 DUP2 LT ISZERO PUSH2 0x695 JUMPI DUP1 DUP3 ADD MLOAD DUP2 DUP5 ADD MSTORE PUSH1 0x20 DUP2 ADD SWAP1 POP PUSH2 0x67A JUMP JUMPDEST DUP4 DUP2 GT ISZERO PUSH2 0x6A4 JUMPI PUSH1 0x0 DUP5 DUP5 ADD MSTORE JUMPDEST POP POP POP POP JUMP JUMPDEST PUSH1 0x0 PUSH2 0x6B5 DUP3 PUSH2 0x65B JUMP JUMPDEST PUSH2 0x6BF DUP2 DUP6 PUSH2 0x666 JUMP JUMPDEST SWAP4 POP PUSH2 0x6CF DUP2 DUP6 PUSH1 0x20 DUP7 ADD PUSH2 0x677 JUMP JUMPDEST PUSH2 0x6D8 DUP2 PUSH2 0x4D6 JUMP JUMPDEST DUP5 ADD SWAP2 POP POP SWAP3 SWAP2 POP POP JUMP JUMPDEST PUSH1 0x0 PUSH1 0x20 DUP3 ADD SWAP1 POP DUP2 DUP2 SUB PUSH1 0x0 DUP4 ADD MSTORE PUSH2 0x6FD DUP2 DUP5 PUSH2 0x6AA JUMP JUMPDEST SWAP1 POP SWAP3 SWAP2 POP POP JUMP JUMPDEST PUSH32 0x4E487B7100000000000000000000000000000000000000000000000000000000 PUSH1 0x0 MSTORE PUSH1 0x22 PUSH1 0x4 MSTORE PUSH1 0x24 PUSH1 0x0 REVERT JUMPDEST PUSH1 0x0 PUSH1 0x2 DUP3 DIV SWAP1 POP PUSH1 0x1 DUP3 AND DUP1 PUSH2 0x74C JUMPI PUSH1 0x7F DUP3 AND SWAP2 POP JUMPDEST PUSH1 0x20 DUP3 LT DUP2 EQ ISZERO PUSH2 0x760 JUMPI PUSH2 0x75F PUSH2 0x705 JUMP JUMPDEST JUMPDEST POP SWAP2 SWAP1 POP JUMP INVALID LOG2 PUSH5 0x6970667358 0x22 SLT KECCAK256 0xF7 0xB9 SWAP16 JUMP 0xE7 0xB7 0x5E 0xE4 0xAF PUSH28 0x3815A57AEE976EF6DFFAFF8C0D457CF0E554B0326F2C64736F6C6343 STOP ADDMOD MULMOD STOP CALLER "},"methodIdentifiers":{"catalogIpnsKey()":"e20b937f","outputIpnsKey()":"2b7853ef","outputIpnsPrivateKey()":"6bbaf770","privateKeyCid()":"462659ee","setCatalogIpnsKey(string)":"79ad054f","setOuputIpnsKey(string)":"ad5c8576","setOutputIpnsPrivateKey(string)":"17d54020","setPrivateKeyCid(string)":"f378da5d"}}}}}