{
  "_format": "hh-sol-artifact-1",
  "contractName": "Catalog",
  "sourceName": "contracts/Catalog.sol",
  "abi": [
    {
      "anonymous": false,
      "inputs": [
        {
          "indexed": false,
          "internalType": "address",
          "name": "farmScAddr",
          "type": "address"
        }
      ],
      "name": "FarmCreated",
      "type": "event"
    },
    {
      "inputs": [],
      "name": "catalogIpnsKey",
      "outputs": [
        {
          "internalType": "string",
          "name": "",
          "type": "string"
        }
      ],
      "stateMutability": "view",
      "type": "function"
    },
    {
      "inputs": [
        {
          "internalType": "string",
          "name": "_farmId",
          "type": "string"
        },
        {
          "internalType": "string",
          "name": "_ipns_pk",
          "type": "string"
        }
      ],
      "name": "createFarm",
      "outputs": [
        {
          "internalType": "address",
          "name": "",
          "type": "address"
        }
      ],
      "stateMutability": "nonpayable",
      "type": "function"
    },
    {
      "inputs": [],
      "name": "farmMenuListIpnsKey",
      "outputs": [
        {
          "internalType": "string",
          "name": "",
          "type": "string"
        }
      ],
      "stateMutability": "view",
      "type": "function"
    },
    {
      "inputs": [],
      "name": "farmMenuListSecretKey",
      "outputs": [
        {
          "internalType": "string",
          "name": "",
          "type": "string"
        }
      ],
      "stateMutability": "view",
      "type": "function"
    },
    {
      "inputs": [
        {
          "internalType": "string",
          "name": "_farm_menu_ipns_key",
          "type": "string"
        }
      ],
      "name": "setFarmMenuListIpnsKey",
      "outputs": [],
      "stateMutability": "nonpayable",
      "type": "function"
    },
    {
      "inputs": [
        {
          "internalType": "string",
          "name": "_farm_secret_key",
          "type": "string"
        }
      ],
      "name": "setFarmMenuListSecretKey",
      "outputs": [],
      "stateMutability": "nonpayable",
      "type": "function"
    },
    {
      "inputs": [
        {
          "internalType": "string",
          "name": "_ipns_key",
          "type": "string"
        }
      ],
      "name": "setIpnsKey",
      "outputs": [],
      "stateMutability": "nonpayable",
      "type": "function"
    }
  ],
  "bytecode": "0x608060405234801561001057600080fd5b5061165a806100206000396000f3fe60806040523480156200001157600080fd5b5060043610620000885760003560e01c80638d18dded11620000635780638d18dded14620000ef578063b71cc0781462000111578063e20b937f1462000131578063e6aaf9cc14620001535762000088565b80630f5b7a92146200008d5780630fba35be14620000af5780634e72866514620000cf575b600080fd5b6200009762000189565b604051620000a6919062000584565b60405180910390f35b620000cd6004803603810190620000c791906200070d565b6200021f565b005b620000ed6004803603810190620000e791906200070d565b6200023b565b005b620000f962000257565b60405162000108919062000584565b60405180910390f35b6200012f60048036038101906200012991906200070d565b620002ed565b005b6200013b62000309565b6040516200014a919062000584565b60405180910390f35b6200017160048036038101906200016b91906200075e565b6200039f565b60405162000180919062000828565b60405180910390f35b60018054620001989062000874565b80601f0160208091040260200160405190810160405280929190818152602001828054620001c69062000874565b8015620002175780601f10620001eb5761010080835404028352916020019162000217565b820191906000526020600020905b815481529060010190602001808311620001f957829003601f168201915b505050505081565b80600290805190602001906200023792919062000422565b5050565b80600090805190602001906200025392919062000422565b5050565b60028054620002669062000874565b80601f0160208091040260200160405190810160405280929190818152602001828054620002949062000874565b8015620002e55780601f10620002b957610100808354040283529160200191620002e5565b820191906000526020600020905b815481529060010190602001808311620002c757829003601f168201915b505050505081565b80600190805190602001906200030592919062000422565b5050565b60008054620003189062000874565b80601f0160208091040260200160405190810160405280929190818152602001828054620003469062000874565b8015620003975780601f106200036b5761010080835404028352916020019162000397565b820191906000526020600020905b8154815290600101906020018083116200037957829003601f168201915b505050505081565b6000808383604051620003b290620004b3565b620003bf929190620008aa565b604051809103906000f080158015620003dc573d6000803e3d6000fd5b5090507f46963f16723a084f2199eb74021bd97647aa6c8960612a9a031ce509d40d4ca78160405162000410919062000828565b60405180910390a18091505092915050565b828054620004309062000874565b90600052602060002090601f016020900481019282620004545760008555620004a0565b82601f106200046f57805160ff1916838001178555620004a0565b82800160010185558215620004a0579182015b828111156200049f57825182559160200191906001019062000482565b5b509050620004af9190620004c1565b5090565b610d3f80620008e683390190565b5b80821115620004dc576000816000905550600101620004c2565b5090565b600081519050919050565b600082825260208201905092915050565b60005b838110156200051c578082015181840152602081019050620004ff565b838111156200052c576000848401525b50505050565b6000601f19601f8301169050919050565b60006200055082620004e0565b6200055c8185620004eb565b93506200056e818560208601620004fc565b620005798162000532565b840191505092915050565b60006020820190508181036000830152620005a0818462000543565b905092915050565b6000604051905090565b600080fd5b600080fd5b600080fd5b600080fd5b7f4e487b7100000000000000000000000000000000000000000000000000000000600052604160045260246000fd5b620006008262000532565b810181811067ffffffffffffffff82111715620006225762000621620005c6565b5b80604052505050565b600062000637620005a8565b9050620006458282620005f5565b919050565b600067ffffffffffffffff821115620006685762000667620005c6565b5b620006738262000532565b9050602081019050919050565b82818337600083830152505050565b6000620006a6620006a0846200064a565b6200062b565b905082815260208101848484011115620006c557620006c4620005c1565b5b620006d284828562000680565b509392505050565b600082601f830112620006f257620006f1620005bc565b5b8135620007048482602086016200068f565b91505092915050565b600060208284031215620007265762000725620005b2565b5b600082013567ffffffffffffffff811115620007475762000746620005b7565b5b6200075584828501620006da565b91505092915050565b60008060408385031215620007785762000777620005b2565b5b600083013567ffffffffffffffff811115620007995762000798620005b7565b5b620007a785828601620006da565b925050602083013567ffffffffffffffff811115620007cb57620007ca620005b7565b5b620007d985828601620006da565b9150509250929050565b600073ffffffffffffffffffffffffffffffffffffffff82169050919050565b60006200081082620007e3565b9050919050565b620008228162000803565b82525050565b60006020820190506200083f600083018462000817565b92915050565b7f4e487b7100000000000000000000000000000000000000000000000000000000600052602260045260246000fd5b600060028204905060018216806200088d57607f821691505b60208210811415620008a457620008a362000845565b5b50919050565b60006040820190508181036000830152620008c6818562000543565b90508181036020830152620008dc818462000543565b9050939250505056fe60806040523480156200001157600080fd5b5060405162000d3f38038062000d3f83398181016040528101906200003791906200035a565b81600090805190602001906200004f9291906200010d565b508060019080519060200190620000689291906200010d565b506040518060400160405280600181526020017f300000000000000000000000000000000000000000000000000000000000000081525060029080519060200190620000b69291906200010d565b506040518060400160405280600181526020017f300000000000000000000000000000000000000000000000000000000000000081525060039080519060200190620001049291906200010d565b50505062000444565b8280546200011b906200040e565b90600052602060002090601f0160209004810192826200013f57600085556200018b565b82601f106200015a57805160ff19168380011785556200018b565b828001600101855582156200018b579182015b828111156200018a5782518255916020019190600101906200016d565b5b5090506200019a91906200019e565b5090565b5b80821115620001b95760008160009055506001016200019f565b5090565b6000604051905090565b600080fd5b600080fd5b600080fd5b600080fd5b6000601f19601f8301169050919050565b7f4e487b7100000000000000000000000000000000000000000000000000000000600052604160045260246000fd5b6200022682620001db565b810181811067ffffffffffffffff82111715620002485762000247620001ec565b5b80604052505050565b60006200025d620001bd565b90506200026b82826200021b565b919050565b600067ffffffffffffffff8211156200028e576200028d620001ec565b5b6200029982620001db565b9050602081019050919050565b60005b83811015620002c6578082015181840152602081019050620002a9565b83811115620002d6576000848401525b50505050565b6000620002f3620002ed8462000270565b62000251565b905082815260208101848484011115620003125762000311620001d6565b5b6200031f848285620002a6565b509392505050565b600082601f8301126200033f576200033e620001d1565b5b815162000351848260208601620002dc565b91505092915050565b60008060408385031215620003745762000373620001c7565b5b600083015167ffffffffffffffff811115620003955762000394620001cc565b5b620003a38582860162000327565b925050602083015167ffffffffffffffff811115620003c757620003c6620001cc565b5b620003d58582860162000327565b9150509250929050565b7f4e487b7100000000000000000000000000000000000000000000000000000000600052602260045260246000fd5b600060028204905060018216806200042757607f821691505b602082108114156200043e576200043d620003df565b5b50919050565b6108eb80620004546000396000f3fe608060405234801561001057600080fd5b50600436106100935760003560e01c806349e3915b1161006657806349e3915b146101205780636defbf801461013e5780638c22deaf1461015c578063a8cf759314610178578063b8efc6fa1461019657610093565b80630f9618c614610098578063278de000146100b65780633ad0060d146100d4578063475fc0f4146100f0575b600080fd5b6100a06101b2565b6040516100ad9190610650565b60405180910390f35b6100be610240565b6040516100cb9190610650565b60405180910390f35b6100ee60048036038101906100e991906107bb565b6102ce565b005b61010a600480360381019061010591906107bb565b6102e8565b6040516101179190610650565b60405180910390f35b610128610341565b6040516101359190610650565b60405180910390f35b61014661038d565b6040516101539190610650565b60405180910390f35b610176600480360381019061017191906107bb565b61041b565b005b61018061046c565b60405161018d9190610650565b60405180910390f35b6101b060048036038101906101ab91906107bb565b6104fa565b005b600380546101bf90610833565b80601f01602080910402602001604051908101604052809291908181526020018280546101eb90610833565b80156102385780601f1061020d57610100808354040283529160200191610238565b820191906000526020600020905b81548152906001019060200180831161021b57829003601f168201915b505050505081565b6000805461024d90610833565b80601f016020809104026020016040519081016040528092919081815260200182805461027990610833565b80156102c65780601f1061029b576101008083540402835291602001916102c6565b820191906000526020600020905b8154815290600101906020018083116102a957829003601f168201915b505050505081565b80600390805190602001906102e4929190610514565b5050565b60607f92c8ae1be97440da1f7f30fb5b39a98e3e352284ec632f81dbe4968ec35f5696826040516103199190610650565b60405180910390a160405180606001604052806029815260200161088d602991399050919050565b60607f513f2213bca64463a207dd663bec29171d4ab06a1b71a1fd8c4bd2e66c6837d560405160405180910390a160405180606001604052806027815260200161086660279139905090565b6002805461039a90610833565b80601f01602080910402602001604051908101604052809291908181526020018280546103c690610833565b80156104135780601f106103e857610100808354040283529160200191610413565b820191906000526020600020905b8154815290600101906020018083116103f657829003601f168201915b505050505081565b8060019080519060200190610431929190610514565b507f275554b9e84105477212781091b7b08f2b148d56eee0f3c2f8ffd99730cb853c816040516104619190610650565b60405180910390a150565b6001805461047990610833565b80601f01602080910402602001604051908101604052809291908181526020018280546104a590610833565b80156104f25780601f106104c7576101008083540402835291602001916104f2565b820191906000526020600020905b8154815290600101906020018083116104d557829003601f168201915b505050505081565b8060029080519060200190610510929190610514565b5050565b82805461052090610833565b90600052602060002090601f0160209004810192826105425760008555610589565b82601f1061055b57805160ff1916838001178555610589565b82800160010185558215610589579182015b8281111561058857825182559160200191906001019061056d565b5b509050610596919061059a565b5090565b5b808211156105b357600081600090555060010161059b565b5090565b600081519050919050565b600082825260208201905092915050565b60005b838110156105f15780820151818401526020810190506105d6565b83811115610600576000848401525b50505050565b6000601f19601f8301169050919050565b6000610622826105b7565b61062c81856105c2565b935061063c8185602086016105d3565b61064581610606565b840191505092915050565b6000602082019050818103600083015261066a8184610617565b905092915050565b6000604051905090565b600080fd5b600080fd5b600080fd5b600080fd5b7f4e487b7100000000000000000000000000000000000000000000000000000000600052604160045260246000fd5b6106c882610606565b810181811067ffffffffffffffff821117156106e7576106e6610690565b5b80604052505050565b60006106fa610672565b905061070682826106bf565b919050565b600067ffffffffffffffff82111561072657610725610690565b5b61072f82610606565b9050602081019050919050565b82818337600083830152505050565b600061075e6107598461070b565b6106f0565b90508281526020810184848401111561077a5761077961068b565b5b61078584828561073c565b509392505050565b600082601f8301126107a2576107a1610686565b5b81356107b284826020860161074b565b91505092915050565b6000602082840312156107d1576107d061067c565b5b600082013567ffffffffffffffff8111156107ef576107ee610681565b5b6107fb8482850161078d565b91505092915050565b7f4e487b7100000000000000000000000000000000000000000000000000000000600052602260045260246000fd5b6000600282049050600182168061084b57607f821691505b6020821081141561085f5761085e610804565b5b5091905056fe4661726d2064617461207265717565737465642120436865636b207468652049504e53206b65794465766963652064617461207265717565737465642120436865636b207468652049504e53206b6579a2646970667358221220fabd4d65d1a6209b7a3edfe9dfa7a098ab6616444a468dd2d8c5b55412d19f6d64736f6c63430008090033a2646970667358221220ee3ecfcce8790d6450e0ae45da53ee625c5e46c5684815f4b4fe8795ac65b23164736f6c63430008090033",
  "linkReferences": {},
  "deployedLinkReferences": {}
}